{
	"contracts/Booking.sol": {
		"Booking": {
			"abi": [
				{
					"inputs": [
						{
							"internalType": "address",
							"name": "_taxOffice",
							"type": "address"
						}
					],
					"stateMutability": "nonpayable",
					"type": "constructor"
				},
				{
					"inputs": [
						{
							"internalType": "uint256",
							"name": "_roomID",
							"type": "uint256"
						},
						{
							"internalType": "uint256",
							"name": "_hotelID",
							"type": "uint256"
						},
						{
							"internalType": "uint256",
							"name": "_totalNumberOfDaysOfRoomRental",
							"type": "uint256"
						}
					],
					"name": "createReservation",
					"outputs": [],
					"stateMutability": "payable",
					"type": "function"
				},
				{
					"inputs": [],
					"name": "getReservations",
					"outputs": [
						{
							"components": [
								{
									"internalType": "uint256",
									"name": "id",
									"type": "uint256"
								},
								{
									"components": [
										{
											"internalType": "uint256",
											"name": "id",
											"type": "uint256"
										},
										{
											"internalType": "string",
											"name": "name",
											"type": "string"
										},
										{
											"internalType": "string",
											"name": "city",
											"type": "string"
										},
										{
											"internalType": "enum Booking.Country",
											"name": "country",
											"type": "uint8"
										},
										{
											"internalType": "string",
											"name": "street",
											"type": "string"
										},
										{
											"internalType": "string",
											"name": "postalCode",
											"type": "string"
										},
										{
											"internalType": "string",
											"name": "phoneNumber",
											"type": "string"
										},
										{
											"internalType": "uint256",
											"name": "rating",
											"type": "uint256"
										},
										{
											"internalType": "bool",
											"name": "isOpen",
											"type": "bool"
										}
									],
									"internalType": "struct Booking.Hotel",
									"name": "hotel",
									"type": "tuple"
								},
								{
									"components": [
										{
											"internalType": "uint256",
											"name": "id",
											"type": "uint256"
										},
										{
											"internalType": "string",
											"name": "name",
											"type": "string"
										},
										{
											"internalType": "uint256",
											"name": "ratePerDay",
											"type": "uint256"
										},
										{
											"internalType": "uint256",
											"name": "minimumPersonAmount",
											"type": "uint256"
										},
										{
											"internalType": "uint256",
											"name": "maximumPersonAmount",
											"type": "uint256"
										},
										{
											"internalType": "bool",
											"name": "hasWifi",
											"type": "bool"
										},
										{
											"internalType": "bool",
											"name": "hasAirConditioning",
											"type": "bool"
										},
										{
											"internalType": "bool",
											"name": "isAvailable",
											"type": "bool"
										}
									],
									"internalType": "struct Booking.Room",
									"name": "room",
									"type": "tuple"
								},
								{
									"internalType": "address",
									"name": "tenant",
									"type": "address"
								},
								{
									"internalType": "uint256",
									"name": "price",
									"type": "uint256"
								},
								{
									"internalType": "uint256",
									"name": "totalNumberOfDaysOfRoomRental",
									"type": "uint256"
								},
								{
									"internalType": "uint256",
									"name": "startDate",
									"type": "uint256"
								},
								{
									"internalType": "uint256",
									"name": "endDate",
									"type": "uint256"
								}
							],
							"internalType": "struct Booking.Reservation[]",
							"name": "",
							"type": "tuple[]"
						}
					],
					"stateMutability": "view",
					"type": "function"
				},
				{
					"inputs": [],
					"name": "getTaxes",
					"outputs": [
						{
							"internalType": "uint256",
							"name": "taxex",
							"type": "uint256"
						}
					],
					"stateMutability": "view",
					"type": "function"
				}
			],
			"devdoc": {
				"kind": "dev",
				"methods": {},
				"version": 1
			},
			"evm": {
				"assembly": "    /* \"contracts/Booking.sol\":66:4128  contract Booking {... */\n  mstore(0x40, 0x80)\n    /* \"contracts/Booking.sol\":1007:1109  constructor(address _taxOffice) {... */\n  callvalue\n  dup1\n  iszero\n  tag_1\n  jumpi\n  0x00\n  dup1\n  revert\ntag_1:\n  pop\n  mload(0x40)\n  sub(codesize, bytecodeSize)\n  dup1\n  bytecodeSize\n  dup4\n  codecopy\n  dup2\n  dup2\n  add\n  0x40\n  mstore\n  dup2\n  add\n  swap1\n  tag_2\n  swap2\n  swap1\n  tag_3\n  jump\t// in\ntag_2:\n    /* \"contracts/Booking.sol\":1066:1067  0 */\n  0x00\n    /* \"contracts/Booking.sol\":1050:1063  reservationID */\n  0x02\n    /* \"contracts/Booking.sol\":1050:1067  reservationID = 0 */\n  dup2\n  swap1\n  sstore\n  pop\n    /* \"contracts/Booking.sol\":1091:1101  _taxOffice */\n  dup1\n    /* \"contracts/Booking.sol\":1079:1088  taxOffice */\n  0x00\n  dup1\n    /* \"contracts/Booking.sol\":1079:1101  taxOffice = _taxOffice */\n  0x0100\n  exp\n  dup2\n  sload\n  dup2\n  0xffffffffffffffffffffffffffffffffffffffff\n  mul\n  not\n  and\n  swap1\n  dup4\n  0xffffffffffffffffffffffffffffffffffffffff\n  and\n  mul\n  or\n  swap1\n  sstore\n  pop\n    /* \"contracts/Booking.sol\":1007:1109  constructor(address _taxOffice) {... */\n  pop\n    /* \"contracts/Booking.sol\":66:4128  contract Booking {... */\n  jump(tag_6)\n    /* \"#utility.yul\":88:205   */\ntag_8:\n    /* \"#utility.yul\":197:198   */\n  0x00\n    /* \"#utility.yul\":194:195   */\n  dup1\n    /* \"#utility.yul\":187:199   */\n  revert\n    /* \"#utility.yul\":334:460   */\ntag_10:\n    /* \"#utility.yul\":371:378   */\n  0x00\n    /* \"#utility.yul\":411:453   */\n  0xffffffffffffffffffffffffffffffffffffffff\n    /* \"#utility.yul\":404:409   */\n  dup3\n    /* \"#utility.yul\":400:454   */\n  and\n    /* \"#utility.yul\":389:454   */\n  swap1\n  pop\n    /* \"#utility.yul\":334:460   */\n  swap2\n  swap1\n  pop\n  jump\t// out\n    /* \"#utility.yul\":466:562   */\ntag_11:\n    /* \"#utility.yul\":503:510   */\n  0x00\n    /* \"#utility.yul\":532:556   */\n  tag_20\n    /* \"#utility.yul\":550:555   */\n  dup3\n    /* \"#utility.yul\":532:556   */\n  tag_10\n  jump\t// in\ntag_20:\n    /* \"#utility.yul\":521:556   */\n  swap1\n  pop\n    /* \"#utility.yul\":466:562   */\n  swap2\n  swap1\n  pop\n  jump\t// out\n    /* \"#utility.yul\":568:690   */\ntag_12:\n    /* \"#utility.yul\":641:665   */\n  tag_22\n    /* \"#utility.yul\":659:664   */\n  dup2\n    /* \"#utility.yul\":641:665   */\n  tag_11\n  jump\t// in\ntag_22:\n    /* \"#utility.yul\":634:639   */\n  dup2\n    /* \"#utility.yul\":631:666   */\n  eq\n    /* \"#utility.yul\":621:684   */\n  tag_23\n  jumpi\n    /* \"#utility.yul\":680:681   */\n  0x00\n    /* \"#utility.yul\":677:678   */\n  dup1\n    /* \"#utility.yul\":670:682   */\n  revert\n    /* \"#utility.yul\":621:684   */\ntag_23:\n    /* \"#utility.yul\":568:690   */\n  pop\n  jump\t// out\n    /* \"#utility.yul\":696:839   */\ntag_13:\n    /* \"#utility.yul\":753:758   */\n  0x00\n    /* \"#utility.yul\":784:790   */\n  dup2\n    /* \"#utility.yul\":778:791   */\n  mload\n    /* \"#utility.yul\":769:791   */\n  swap1\n  pop\n    /* \"#utility.yul\":800:833   */\n  tag_25\n    /* \"#utility.yul\":827:832   */\n  dup2\n    /* \"#utility.yul\":800:833   */\n  tag_12\n  jump\t// in\ntag_25:\n    /* \"#utility.yul\":696:839   */\n  swap3\n  swap2\n  pop\n  pop\n  jump\t// out\n    /* \"#utility.yul\":845:1196   */\ntag_3:\n    /* \"#utility.yul\":915:921   */\n  0x00\n    /* \"#utility.yul\":964:966   */\n  0x20\n    /* \"#utility.yul\":952:961   */\n  dup3\n    /* \"#utility.yul\":943:950   */\n  dup5\n    /* \"#utility.yul\":939:962   */\n  sub\n    /* \"#utility.yul\":935:967   */\n  slt\n    /* \"#utility.yul\":932:1051   */\n  iszero\n  tag_27\n  jumpi\n    /* \"#utility.yul\":970:1049   */\n  tag_28\n  tag_8\n  jump\t// in\ntag_28:\n    /* \"#utility.yul\":932:1051   */\ntag_27:\n    /* \"#utility.yul\":1090:1091   */\n  0x00\n    /* \"#utility.yul\":1115:1179   */\n  tag_29\n    /* \"#utility.yul\":1171:1178   */\n  dup5\n    /* \"#utility.yul\":1162:1168   */\n  dup3\n    /* \"#utility.yul\":1151:1160   */\n  dup6\n    /* \"#utility.yul\":1147:1169   */\n  add\n    /* \"#utility.yul\":1115:1179   */\n  tag_13\n  jump\t// in\ntag_29:\n    /* \"#utility.yul\":1105:1179   */\n  swap2\n  pop\n    /* \"#utility.yul\":1061:1189   */\n  pop\n    /* \"#utility.yul\":845:1196   */\n  swap3\n  swap2\n  pop\n  pop\n  jump\t// out\n    /* \"contracts/Booking.sol\":66:4128  contract Booking {... */\ntag_6:\n  dataSize(sub_0)\n  dup1\n  dataOffset(sub_0)\n  0x00\n  codecopy\n  0x00\n  return\nstop\n\nsub_0: assembly {\n        /* \"contracts/Booking.sol\":66:4128  contract Booking {... */\n      mstore(0x40, 0x80)\n      jumpi(tag_1, lt(calldatasize, 0x04))\n      shr(0xe0, calldataload(0x00))\n      dup1\n      0x2973ef2d\n      eq\n      tag_2\n      jumpi\n      dup1\n      0x9c200b88\n      eq\n      tag_3\n      jumpi\n      dup1\n      0xa97606e8\n      eq\n      tag_4\n      jumpi\n    tag_1:\n      0x00\n      dup1\n      revert\n        /* \"contracts/Booking.sol\":2227:2386  function getTaxes() public view onlyTaxOffice returns (uint taxex) {... */\n    tag_2:\n      callvalue\n      dup1\n      iszero\n      tag_5\n      jumpi\n      0x00\n      dup1\n      revert\n    tag_5:\n      pop\n      tag_6\n      tag_7\n      jump\t// in\n    tag_6:\n      mload(0x40)\n      tag_8\n      swap2\n      swap1\n      tag_9\n      jump\t// in\n    tag_8:\n      mload(0x40)\n      dup1\n      swap2\n      sub\n      swap1\n      return\n        /* \"contracts/Booking.sol\":2112:2219  function getReservations() public view returns (Reservation[] memory) {... */\n    tag_3:\n      callvalue\n      dup1\n      iszero\n      tag_10\n      jumpi\n      0x00\n      dup1\n      revert\n    tag_10:\n      pop\n      tag_11\n      tag_12\n      jump\t// in\n    tag_11:\n      mload(0x40)\n      tag_13\n      swap2\n      swap1\n      tag_14\n      jump\t// in\n    tag_13:\n      mload(0x40)\n      dup1\n      swap2\n      sub\n      swap1\n      return\n        /* \"contracts/Booking.sol\":1117:2104  function createReservation(uint _roomID, uint _hotelID, uint _totalNumberOfDaysOfRoomRental) payable public {... */\n    tag_4:\n      tag_15\n      0x04\n      dup1\n      calldatasize\n      sub\n      dup2\n      add\n      swap1\n      tag_16\n      swap2\n      swap1\n      tag_17\n      jump\t// in\n    tag_16:\n      tag_18\n      jump\t// in\n    tag_15:\n      stop\n        /* \"contracts/Booking.sol\":2227:2386  function getTaxes() public view onlyTaxOffice returns (uint taxex) {... */\n    tag_7:\n        /* \"contracts/Booking.sol\":2282:2292  uint taxex */\n      0x00\n        /* \"contracts/Booking.sol\":4051:4060  taxOffice */\n      dup1\n      0x00\n      swap1\n      sload\n      swap1\n      0x0100\n      exp\n      swap1\n      div\n      0xffffffffffffffffffffffffffffffffffffffff\n      and\n        /* \"contracts/Booking.sol\":4037:4060  msg.sender == taxOffice */\n      0xffffffffffffffffffffffffffffffffffffffff\n      and\n        /* \"contracts/Booking.sol\":4037:4047  msg.sender */\n      caller\n        /* \"contracts/Booking.sol\":4037:4060  msg.sender == taxOffice */\n      0xffffffffffffffffffffffffffffffffffffffff\n      and\n      eq\n        /* \"contracts/Booking.sol\":4029:4103  require(msg.sender == taxOffice, \"Only tax office can call this function\") */\n      tag_20\n      jumpi\n      mload(0x40)\n      0x08c379a000000000000000000000000000000000000000000000000000000000\n      dup2\n      mstore\n      0x04\n      add\n      tag_21\n      swap1\n      tag_22\n      jump\t// in\n    tag_21:\n      mload(0x40)\n      dup1\n      swap2\n      sub\n      swap1\n      revert\n    tag_20:\n        /* \"contracts/Booking.sol\":2305:2316  uint income */\n      0x00\n        /* \"contracts/Booking.sol\":2319:2341  calculateTotalIncome() */\n      tag_24\n        /* \"contracts/Booking.sol\":2319:2339  calculateTotalIncome */\n      tag_25\n        /* \"contracts/Booking.sol\":2319:2341  calculateTotalIncome() */\n      jump\t// in\n    tag_24:\n        /* \"contracts/Booking.sol\":2305:2341  uint income = calculateTotalIncome() */\n      swap1\n      pop\n        /* \"contracts/Booking.sol\":2375:2378  100 */\n      0x64\n        /* \"contracts/Booking.sol\":2369:2371  23 */\n      0x17\n        /* \"contracts/Booking.sol\":2360:2366  income */\n      dup3\n        /* \"contracts/Booking.sol\":2360:2371  income * 23 */\n      tag_26\n      swap2\n      swap1\n      tag_27\n      jump\t// in\n    tag_26:\n        /* \"contracts/Booking.sol\":2359:2378  (income * 23) / 100 */\n      tag_28\n      swap2\n      swap1\n      tag_29\n      jump\t// in\n    tag_28:\n        /* \"contracts/Booking.sol\":2352:2378  return (income * 23) / 100 */\n      swap2\n      pop\n      pop\n        /* \"contracts/Booking.sol\":2227:2386  function getTaxes() public view onlyTaxOffice returns (uint taxex) {... */\n      swap1\n      jump\t// out\n        /* \"contracts/Booking.sol\":2112:2219  function getReservations() public view returns (Reservation[] memory) {... */\n    tag_12:\n        /* \"contracts/Booking.sol\":2160:2180  Reservation[] memory */\n      0x60\n        /* \"contracts/Booking.sol\":2200:2211  reservation */\n      0x01\n        /* \"contracts/Booking.sol\":2193:2211  return reservation */\n      dup1\n      sload\n      dup1\n      0x20\n      mul\n      0x20\n      add\n      mload(0x40)\n      swap1\n      dup2\n      add\n      0x40\n      mstore\n      dup1\n      swap3\n      swap2\n      swap1\n      dup2\n      dup2\n      mstore\n      0x20\n      add\n      0x00\n      swap1\n    tag_31:\n      dup3\n      dup3\n      lt\n      iszero\n      tag_32\n      jumpi\n      dup4\n      dup3\n      swap1\n      0x00\n      mstore\n      keccak256(0x00, 0x20)\n      swap1\n      0x15\n      mul\n      add\n      mload(0x40)\n      dup1\n      0x0100\n      add\n      0x40\n      mstore\n      swap1\n      dup2\n      0x00\n      dup3\n      add\n      sload\n      dup2\n      mstore\n      0x20\n      add\n      0x01\n      dup3\n      add\n      mload(0x40)\n      dup1\n      0x0120\n      add\n      0x40\n      mstore\n      swap1\n      dup2\n      0x00\n      dup3\n      add\n      sload\n      dup2\n      mstore\n      0x20\n      add\n      0x01\n      dup3\n      add\n      dup1\n      sload\n      tag_34\n      swap1\n      tag_35\n      jump\t// in\n    tag_34:\n      dup1\n      0x1f\n      add\n      0x20\n      dup1\n      swap2\n      div\n      mul\n      0x20\n      add\n      mload(0x40)\n      swap1\n      dup2\n      add\n      0x40\n      mstore\n      dup1\n      swap3\n      swap2\n      swap1\n      dup2\n      dup2\n      mstore\n      0x20\n      add\n      dup3\n      dup1\n      sload\n      tag_36\n      swap1\n      tag_35\n      jump\t// in\n    tag_36:\n      dup1\n      iszero\n      tag_37\n      jumpi\n      dup1\n      0x1f\n      lt\n      tag_38\n      jumpi\n      0x0100\n      dup1\n      dup4\n      sload\n      div\n      mul\n      dup4\n      mstore\n      swap2\n      0x20\n      add\n      swap2\n      jump(tag_37)\n    tag_38:\n      dup3\n      add\n      swap2\n      swap1\n      0x00\n      mstore\n      keccak256(0x00, 0x20)\n      swap1\n    tag_39:\n      dup2\n      sload\n      dup2\n      mstore\n      swap1\n      0x01\n      add\n      swap1\n      0x20\n      add\n      dup1\n      dup4\n      gt\n      tag_39\n      jumpi\n      dup3\n      swap1\n      sub\n      0x1f\n      and\n      dup3\n      add\n      swap2\n    tag_37:\n      pop\n      pop\n      pop\n      pop\n      pop\n      dup2\n      mstore\n      0x20\n      add\n      0x02\n      dup3\n      add\n      dup1\n      sload\n      tag_40\n      swap1\n      tag_35\n      jump\t// in\n    tag_40:\n      dup1\n      0x1f\n      add\n      0x20\n      dup1\n      swap2\n      div\n      mul\n      0x20\n      add\n      mload(0x40)\n      swap1\n      dup2\n      add\n      0x40\n      mstore\n      dup1\n      swap3\n      swap2\n      swap1\n      dup2\n      dup2\n      mstore\n      0x20\n      add\n      dup3\n      dup1\n      sload\n      tag_41\n      swap1\n      tag_35\n      jump\t// in\n    tag_41:\n      dup1\n      iszero\n      tag_42\n      jumpi\n      dup1\n      0x1f\n      lt\n      tag_43\n      jumpi\n      0x0100\n      dup1\n      dup4\n      sload\n      div\n      mul\n      dup4\n      mstore\n      swap2\n      0x20\n      add\n      swap2\n      jump(tag_42)\n    tag_43:\n      dup3\n      add\n      swap2\n      swap1\n      0x00\n      mstore\n      keccak256(0x00, 0x20)\n      swap1\n    tag_44:\n      dup2\n      sload\n      dup2\n      mstore\n      swap1\n      0x01\n      add\n      swap1\n      0x20\n      add\n      dup1\n      dup4\n      gt\n      tag_44\n      jumpi\n      dup3\n      swap1\n      sub\n      0x1f\n      and\n      dup3\n      add\n      swap2\n    tag_42:\n      pop\n      pop\n      pop\n      pop\n      pop\n      dup2\n      mstore\n      0x20\n      add\n      0x03\n      dup3\n      add\n      0x00\n      swap1\n      sload\n      swap1\n      0x0100\n      exp\n      swap1\n      div\n      0xff\n      and\n      0x02\n      dup2\n      gt\n      iszero\n      tag_45\n      jumpi\n      tag_46\n      tag_47\n      jump\t// in\n    tag_46:\n    tag_45:\n      0x02\n      dup2\n      gt\n      iszero\n      tag_48\n      jumpi\n      tag_49\n      tag_47\n      jump\t// in\n    tag_49:\n    tag_48:\n      dup2\n      mstore\n      0x20\n      add\n      0x04\n      dup3\n      add\n      dup1\n      sload\n      tag_50\n      swap1\n      tag_35\n      jump\t// in\n    tag_50:\n      dup1\n      0x1f\n      add\n      0x20\n      dup1\n      swap2\n      div\n      mul\n      0x20\n      add\n      mload(0x40)\n      swap1\n      dup2\n      add\n      0x40\n      mstore\n      dup1\n      swap3\n      swap2\n      swap1\n      dup2\n      dup2\n      mstore\n      0x20\n      add\n      dup3\n      dup1\n      sload\n      tag_51\n      swap1\n      tag_35\n      jump\t// in\n    tag_51:\n      dup1\n      iszero\n      tag_52\n      jumpi\n      dup1\n      0x1f\n      lt\n      tag_53\n      jumpi\n      0x0100\n      dup1\n      dup4\n      sload\n      div\n      mul\n      dup4\n      mstore\n      swap2\n      0x20\n      add\n      swap2\n      jump(tag_52)\n    tag_53:\n      dup3\n      add\n      swap2\n      swap1\n      0x00\n      mstore\n      keccak256(0x00, 0x20)\n      swap1\n    tag_54:\n      dup2\n      sload\n      dup2\n      mstore\n      swap1\n      0x01\n      add\n      swap1\n      0x20\n      add\n      dup1\n      dup4\n      gt\n      tag_54\n      jumpi\n      dup3\n      swap1\n      sub\n      0x1f\n      and\n      dup3\n      add\n      swap2\n    tag_52:\n      pop\n      pop\n      pop\n      pop\n      pop\n      dup2\n      mstore\n      0x20\n      add\n      0x05\n      dup3\n      add\n      dup1\n      sload\n      tag_55\n      swap1\n      tag_35\n      jump\t// in\n    tag_55:\n      dup1\n      0x1f\n      add\n      0x20\n      dup1\n      swap2\n      div\n      mul\n      0x20\n      add\n      mload(0x40)\n      swap1\n      dup2\n      add\n      0x40\n      mstore\n      dup1\n      swap3\n      swap2\n      swap1\n      dup2\n      dup2\n      mstore\n      0x20\n      add\n      dup3\n      dup1\n      sload\n      tag_56\n      swap1\n      tag_35\n      jump\t// in\n    tag_56:\n      dup1\n      iszero\n      tag_57\n      jumpi\n      dup1\n      0x1f\n      lt\n      tag_58\n      jumpi\n      0x0100\n      dup1\n      dup4\n      sload\n      div\n      mul\n      dup4\n      mstore\n      swap2\n      0x20\n      add\n      swap2\n      jump(tag_57)\n    tag_58:\n      dup3\n      add\n      swap2\n      swap1\n      0x00\n      mstore\n      keccak256(0x00, 0x20)\n      swap1\n    tag_59:\n      dup2\n      sload\n      dup2\n      mstore\n      swap1\n      0x01\n      add\n      swap1\n      0x20\n      add\n      dup1\n      dup4\n      gt\n      tag_59\n      jumpi\n      dup3\n      swap1\n      sub\n      0x1f\n      and\n      dup3\n      add\n      swap2\n    tag_57:\n      pop\n      pop\n      pop\n      pop\n      pop\n      dup2\n      mstore\n      0x20\n      add\n      0x06\n      dup3\n      add\n      dup1\n      sload\n      tag_60\n      swap1\n      tag_35\n      jump\t// in\n    tag_60:\n      dup1\n      0x1f\n      add\n      0x20\n      dup1\n      swap2\n      div\n      mul\n      0x20\n      add\n      mload(0x40)\n      swap1\n      dup2\n      add\n      0x40\n      mstore\n      dup1\n      swap3\n      swap2\n      swap1\n      dup2\n      dup2\n      mstore\n      0x20\n      add\n      dup3\n      dup1\n      sload\n      tag_61\n      swap1\n      tag_35\n      jump\t// in\n    tag_61:\n      dup1\n      iszero\n      tag_62\n      jumpi\n      dup1\n      0x1f\n      lt\n      tag_63\n      jumpi\n      0x0100\n      dup1\n      dup4\n      sload\n      div\n      mul\n      dup4\n      mstore\n      swap2\n      0x20\n      add\n      swap2\n      jump(tag_62)\n    tag_63:\n      dup3\n      add\n      swap2\n      swap1\n      0x00\n      mstore\n      keccak256(0x00, 0x20)\n      swap1\n    tag_64:\n      dup2\n      sload\n      dup2\n      mstore\n      swap1\n      0x01\n      add\n      swap1\n      0x20\n      add\n      dup1\n      dup4\n      gt\n      tag_64\n      jumpi\n      dup3\n      swap1\n      sub\n      0x1f\n      and\n      dup3\n      add\n      swap2\n    tag_62:\n      pop\n      pop\n      pop\n      pop\n      pop\n      dup2\n      mstore\n      0x20\n      add\n      0x07\n      dup3\n      add\n      sload\n      dup2\n      mstore\n      0x20\n      add\n      0x08\n      dup3\n      add\n      0x00\n      swap1\n      sload\n      swap1\n      0x0100\n      exp\n      swap1\n      div\n      0xff\n      and\n      iszero\n      iszero\n      iszero\n      iszero\n      dup2\n      mstore\n      pop\n      pop\n      dup2\n      mstore\n      0x20\n      add\n      0x0a\n      dup3\n      add\n      mload(0x40)\n      dup1\n      0x0100\n      add\n      0x40\n      mstore\n      swap1\n      dup2\n      0x00\n      dup3\n      add\n      sload\n      dup2\n      mstore\n      0x20\n      add\n      0x01\n      dup3\n      add\n      dup1\n      sload\n      tag_65\n      swap1\n      tag_35\n      jump\t// in\n    tag_65:\n      dup1\n      0x1f\n      add\n      0x20\n      dup1\n      swap2\n      div\n      mul\n      0x20\n      add\n      mload(0x40)\n      swap1\n      dup2\n      add\n      0x40\n      mstore\n      dup1\n      swap3\n      swap2\n      swap1\n      dup2\n      dup2\n      mstore\n      0x20\n      add\n      dup3\n      dup1\n      sload\n      tag_66\n      swap1\n      tag_35\n      jump\t// in\n    tag_66:\n      dup1\n      iszero\n      tag_67\n      jumpi\n      dup1\n      0x1f\n      lt\n      tag_68\n      jumpi\n      0x0100\n      dup1\n      dup4\n      sload\n      div\n      mul\n      dup4\n      mstore\n      swap2\n      0x20\n      add\n      swap2\n      jump(tag_67)\n    tag_68:\n      dup3\n      add\n      swap2\n      swap1\n      0x00\n      mstore\n      keccak256(0x00, 0x20)\n      swap1\n    tag_69:\n      dup2\n      sload\n      dup2\n      mstore\n      swap1\n      0x01\n      add\n      swap1\n      0x20\n      add\n      dup1\n      dup4\n      gt\n      tag_69\n      jumpi\n      dup3\n      swap1\n      sub\n      0x1f\n      and\n      dup3\n      add\n      swap2\n    tag_67:\n      pop\n      pop\n      pop\n      pop\n      pop\n      dup2\n      mstore\n      0x20\n      add\n      0x02\n      dup3\n      add\n      sload\n      dup2\n      mstore\n      0x20\n      add\n      0x03\n      dup3\n      add\n      sload\n      dup2\n      mstore\n      0x20\n      add\n      0x04\n      dup3\n      add\n      sload\n      dup2\n      mstore\n      0x20\n      add\n      0x05\n      dup3\n      add\n      0x00\n      swap1\n      sload\n      swap1\n      0x0100\n      exp\n      swap1\n      div\n      0xff\n      and\n      iszero\n      iszero\n      iszero\n      iszero\n      dup2\n      mstore\n      0x20\n      add\n      0x05\n      dup3\n      add\n      0x01\n      swap1\n      sload\n      swap1\n      0x0100\n      exp\n      swap1\n      div\n      0xff\n      and\n      iszero\n      iszero\n      iszero\n      iszero\n      dup2\n      mstore\n      0x20\n      add\n      0x05\n      dup3\n      add\n      0x02\n      swap1\n      sload\n      swap1\n      0x0100\n      exp\n      swap1\n      div\n      0xff\n      and\n      iszero\n      iszero\n      iszero\n      iszero\n      dup2\n      mstore\n      pop\n      pop\n      dup2\n      mstore\n      0x20\n      add\n      0x10\n      dup3\n      add\n      0x00\n      swap1\n      sload\n      swap1\n      0x0100\n      exp\n      swap1\n      div\n      0xffffffffffffffffffffffffffffffffffffffff\n      and\n      0xffffffffffffffffffffffffffffffffffffffff\n      and\n      0xffffffffffffffffffffffffffffffffffffffff\n      and\n      dup2\n      mstore\n      0x20\n      add\n      0x11\n      dup3\n      add\n      sload\n      dup2\n      mstore\n      0x20\n      add\n      0x12\n      dup3\n      add\n      sload\n      dup2\n      mstore\n      0x20\n      add\n      0x13\n      dup3\n      add\n      sload\n      dup2\n      mstore\n      0x20\n      add\n      0x14\n      dup3\n      add\n      sload\n      dup2\n      mstore\n      pop\n      pop\n      dup2\n      mstore\n      0x20\n      add\n      swap1\n      0x01\n      add\n      swap1\n      jump(tag_31)\n    tag_32:\n      pop\n      pop\n      pop\n      pop\n      swap1\n      pop\n        /* \"contracts/Booking.sol\":2112:2219  function getReservations() public view returns (Reservation[] memory) {... */\n      swap1\n      jump\t// out\n        /* \"contracts/Booking.sol\":1117:2104  function createReservation(uint _roomID, uint _hotelID, uint _totalNumberOfDaysOfRoomRental) payable public {... */\n    tag_18:\n        /* \"contracts/Booking.sol\":1254:1255  0 */\n      0x00\n        /* \"contracts/Booking.sol\":1244:1251  _roomID */\n      dup4\n        /* \"contracts/Booking.sol\":1244:1255  _roomID > 0 */\n      gt\n        /* \"contracts/Booking.sol\":1244:1296  _roomID > 0 && _roomID <= prepareHotelRooms().length */\n      dup1\n      iszero\n      tag_71\n      jumpi\n      pop\n        /* \"contracts/Booking.sol\":1270:1289  prepareHotelRooms() */\n      tag_72\n        /* \"contracts/Booking.sol\":1270:1287  prepareHotelRooms */\n      tag_73\n        /* \"contracts/Booking.sol\":1270:1289  prepareHotelRooms() */\n      jump\t// in\n    tag_72:\n        /* \"contracts/Booking.sol\":1270:1296  prepareHotelRooms().length */\n      mload\n        /* \"contracts/Booking.sol\":1259:1266  _roomID */\n      dup4\n        /* \"contracts/Booking.sol\":1259:1296  _roomID <= prepareHotelRooms().length */\n      gt\n      iszero\n        /* \"contracts/Booking.sol\":1244:1296  _roomID > 0 && _roomID <= prepareHotelRooms().length */\n    tag_71:\n        /* \"contracts/Booking.sol\":1236:1316  require(_roomID > 0 && _roomID <= prepareHotelRooms().length, \"Invalid room ID\") */\n      tag_74\n      jumpi\n      mload(0x40)\n      0x08c379a000000000000000000000000000000000000000000000000000000000\n      dup2\n      mstore\n      0x04\n      add\n      tag_75\n      swap1\n      tag_76\n      jump\t// in\n    tag_75:\n      mload(0x40)\n      dup1\n      swap2\n      sub\n      swap1\n      revert\n    tag_74:\n        /* \"contracts/Booking.sol\":1346:1347  0 */\n      0x00\n        /* \"contracts/Booking.sol\":1335:1343  _hotelID */\n      dup3\n        /* \"contracts/Booking.sol\":1335:1347  _hotelID > 0 */\n      gt\n        /* \"contracts/Booking.sol\":1335:1385  _hotelID > 0 && _hotelID <= prepareHotels().length */\n      dup1\n      iszero\n      tag_77\n      jumpi\n      pop\n        /* \"contracts/Booking.sol\":1363:1378  prepareHotels() */\n      tag_78\n        /* \"contracts/Booking.sol\":1363:1376  prepareHotels */\n      tag_79\n        /* \"contracts/Booking.sol\":1363:1378  prepareHotels() */\n      jump\t// in\n    tag_78:\n        /* \"contracts/Booking.sol\":1363:1385  prepareHotels().length */\n      mload\n        /* \"contracts/Booking.sol\":1351:1359  _hotelID */\n      dup3\n        /* \"contracts/Booking.sol\":1351:1385  _hotelID <= prepareHotels().length */\n      gt\n      iszero\n        /* \"contracts/Booking.sol\":1335:1385  _hotelID > 0 && _hotelID <= prepareHotels().length */\n    tag_77:\n        /* \"contracts/Booking.sol\":1327:1406  require(_hotelID > 0 && _hotelID <= prepareHotels().length, \"Invalid hotel ID\") */\n      tag_80\n      jumpi\n      mload(0x40)\n      0x08c379a000000000000000000000000000000000000000000000000000000000\n      dup2\n      mstore\n      0x04\n      add\n      tag_81\n      swap1\n      tag_82\n      jump\t// in\n    tag_81:\n      mload(0x40)\n      dup1\n      swap2\n      sub\n      swap1\n      revert\n    tag_80:\n        /* \"contracts/Booking.sol\":1458:1459  0 */\n      0x00\n        /* \"contracts/Booking.sol\":1425:1455  _totalNumberOfDaysOfRoomRental */\n      dup2\n        /* \"contracts/Booking.sol\":1425:1459  _totalNumberOfDaysOfRoomRental > 0 */\n      gt\n        /* \"contracts/Booking.sol\":1417:1524  require(_totalNumberOfDaysOfRoomRental > 0, \"Total number of days of room rental should be greater than 0\") */\n      tag_83\n      jumpi\n      mload(0x40)\n      0x08c379a000000000000000000000000000000000000000000000000000000000\n      dup2\n      mstore\n      0x04\n      add\n      tag_84\n      swap1\n      tag_85\n      jump\t// in\n    tag_84:\n      mload(0x40)\n      dup1\n      swap2\n      sub\n      swap1\n      revert\n    tag_83:\n        /* \"contracts/Booking.sol\":1537:1561  Room memory selectedRoom */\n      0x00\n        /* \"contracts/Booking.sol\":1564:1583  prepareHotelRooms() */\n      tag_86\n        /* \"contracts/Booking.sol\":1564:1581  prepareHotelRooms */\n      tag_73\n        /* \"contracts/Booking.sol\":1564:1583  prepareHotelRooms() */\n      jump\t// in\n    tag_86:\n        /* \"contracts/Booking.sol\":1594:1595  1 */\n      0x01\n        /* \"contracts/Booking.sol\":1584:1591  _roomID */\n      dup6\n        /* \"contracts/Booking.sol\":1584:1595  _roomID - 1 */\n      tag_87\n      swap2\n      swap1\n      tag_88\n      jump\t// in\n    tag_87:\n        /* \"contracts/Booking.sol\":1564:1596  prepareHotelRooms()[_roomID - 1] */\n      dup2\n      mload\n      dup2\n      lt\n      tag_89\n      jumpi\n      tag_90\n      tag_91\n      jump\t// in\n    tag_90:\n    tag_89:\n      0x20\n      mul\n      0x20\n      add\n      add\n      mload\n        /* \"contracts/Booking.sol\":1537:1596  Room memory selectedRoom = prepareHotelRooms()[_roomID - 1] */\n      swap1\n      pop\n        /* \"contracts/Booking.sol\":1607:1633  Hotel memory selectedHotel */\n      0x00\n        /* \"contracts/Booking.sol\":1636:1651  prepareHotels() */\n      tag_92\n        /* \"contracts/Booking.sol\":1636:1649  prepareHotels */\n      tag_79\n        /* \"contracts/Booking.sol\":1636:1651  prepareHotels() */\n      jump\t// in\n    tag_92:\n        /* \"contracts/Booking.sol\":1663:1664  1 */\n      0x01\n        /* \"contracts/Booking.sol\":1652:1660  _hotelID */\n      dup6\n        /* \"contracts/Booking.sol\":1652:1664  _hotelID - 1 */\n      tag_93\n      swap2\n      swap1\n      tag_88\n      jump\t// in\n    tag_93:\n        /* \"contracts/Booking.sol\":1636:1665  prepareHotels()[_hotelID - 1] */\n      dup2\n      mload\n      dup2\n      lt\n      tag_94\n      jumpi\n      tag_95\n      tag_91\n      jump\t// in\n    tag_95:\n    tag_94:\n      0x20\n      mul\n      0x20\n      add\n      add\n      mload\n        /* \"contracts/Booking.sol\":1607:1665  Hotel memory selectedHotel = prepareHotels()[_hotelID - 1] */\n      swap1\n      pop\n        /* \"contracts/Booking.sol\":1678:1705  uint totalCostOfRentingRoom */\n      0x00\n        /* \"contracts/Booking.sol\":1708:1779  calculatePrice(_totalNumberOfDaysOfRoomRental, selectedRoom.ratePerDay) */\n      tag_96\n        /* \"contracts/Booking.sol\":1723:1753  _totalNumberOfDaysOfRoomRental */\n      dup5\n        /* \"contracts/Booking.sol\":1755:1767  selectedRoom */\n      dup5\n        /* \"contracts/Booking.sol\":1755:1778  selectedRoom.ratePerDay */\n      0x40\n      add\n      mload\n        /* \"contracts/Booking.sol\":1708:1722  calculatePrice */\n      tag_97\n        /* \"contracts/Booking.sol\":1708:1779  calculatePrice(_totalNumberOfDaysOfRoomRental, selectedRoom.ratePerDay) */\n      jump\t// in\n    tag_96:\n        /* \"contracts/Booking.sol\":1678:1779  uint totalCostOfRentingRoom = calculatePrice(_totalNumberOfDaysOfRoomRental, selectedRoom.ratePerDay) */\n      swap1\n      pop\n        /* \"contracts/Booking.sol\":1790:1814  incrementReservationID() */\n      tag_98\n        /* \"contracts/Booking.sol\":1790:1812  incrementReservationID */\n      tag_99\n        /* \"contracts/Booking.sol\":1790:1814  incrementReservationID() */\n      jump\t// in\n    tag_98:\n        /* \"contracts/Booking.sol\":1827:1860  Reservation memory newReservation */\n      0x00\n        /* \"contracts/Booking.sol\":1863:2053  Reservation(reservationID, selectedHotel, selectedRoom, msg.sender, totalCostOfRentingRoom, _totalNumberOfDaysOfRoomRental, block.timestamp, block.timestamp + _totalNumberOfDaysOfRoomRental) */\n      mload(0x40)\n      dup1\n      0x0100\n      add\n      0x40\n      mstore\n      dup1\n        /* \"contracts/Booking.sol\":1875:1888  reservationID */\n      sload(0x02)\n        /* \"contracts/Booking.sol\":1863:2053  Reservation(reservationID, selectedHotel, selectedRoom, msg.sender, totalCostOfRentingRoom, _totalNumberOfDaysOfRoomRental, block.timestamp, block.timestamp + _totalNumberOfDaysOfRoomRental) */\n      dup2\n      mstore\n      0x20\n      add\n        /* \"contracts/Booking.sol\":1890:1903  selectedHotel */\n      dup5\n        /* \"contracts/Booking.sol\":1863:2053  Reservation(reservationID, selectedHotel, selectedRoom, msg.sender, totalCostOfRentingRoom, _totalNumberOfDaysOfRoomRental, block.timestamp, block.timestamp + _totalNumberOfDaysOfRoomRental) */\n      dup2\n      mstore\n      0x20\n      add\n        /* \"contracts/Booking.sol\":1905:1917  selectedRoom */\n      dup6\n        /* \"contracts/Booking.sol\":1863:2053  Reservation(reservationID, selectedHotel, selectedRoom, msg.sender, totalCostOfRentingRoom, _totalNumberOfDaysOfRoomRental, block.timestamp, block.timestamp + _totalNumberOfDaysOfRoomRental) */\n      dup2\n      mstore\n      0x20\n      add\n        /* \"contracts/Booking.sol\":1919:1929  msg.sender */\n      caller\n        /* \"contracts/Booking.sol\":1863:2053  Reservation(reservationID, selectedHotel, selectedRoom, msg.sender, totalCostOfRentingRoom, _totalNumberOfDaysOfRoomRental, block.timestamp, block.timestamp + _totalNumberOfDaysOfRoomRental) */\n      0xffffffffffffffffffffffffffffffffffffffff\n      and\n      dup2\n      mstore\n      0x20\n      add\n        /* \"contracts/Booking.sol\":1931:1953  totalCostOfRentingRoom */\n      dup4\n        /* \"contracts/Booking.sol\":1863:2053  Reservation(reservationID, selectedHotel, selectedRoom, msg.sender, totalCostOfRentingRoom, _totalNumberOfDaysOfRoomRental, block.timestamp, block.timestamp + _totalNumberOfDaysOfRoomRental) */\n      dup2\n      mstore\n      0x20\n      add\n        /* \"contracts/Booking.sol\":1955:1985  _totalNumberOfDaysOfRoomRental */\n      dup7\n        /* \"contracts/Booking.sol\":1863:2053  Reservation(reservationID, selectedHotel, selectedRoom, msg.sender, totalCostOfRentingRoom, _totalNumberOfDaysOfRoomRental, block.timestamp, block.timestamp + _totalNumberOfDaysOfRoomRental) */\n      dup2\n      mstore\n      0x20\n      add\n        /* \"contracts/Booking.sol\":1987:2002  block.timestamp */\n      timestamp\n        /* \"contracts/Booking.sol\":1863:2053  Reservation(reservationID, selectedHotel, selectedRoom, msg.sender, totalCostOfRentingRoom, _totalNumberOfDaysOfRoomRental, block.timestamp, block.timestamp + _totalNumberOfDaysOfRoomRental) */\n      dup2\n      mstore\n      0x20\n      add\n        /* \"contracts/Booking.sol\":2022:2052  _totalNumberOfDaysOfRoomRental */\n      dup7\n        /* \"contracts/Booking.sol\":2004:2019  block.timestamp */\n      timestamp\n        /* \"contracts/Booking.sol\":2004:2052  block.timestamp + _totalNumberOfDaysOfRoomRental */\n      tag_100\n      swap2\n      swap1\n      tag_101\n      jump\t// in\n    tag_100:\n        /* \"contracts/Booking.sol\":1863:2053  Reservation(reservationID, selectedHotel, selectedRoom, msg.sender, totalCostOfRentingRoom, _totalNumberOfDaysOfRoomRental, block.timestamp, block.timestamp + _totalNumberOfDaysOfRoomRental) */\n      dup2\n      mstore\n      pop\n        /* \"contracts/Booking.sol\":1827:2053  Reservation memory newReservation = Reservation(reservationID, selectedHotel, selectedRoom, msg.sender, totalCostOfRentingRoom, _totalNumberOfDaysOfRoomRental, block.timestamp, block.timestamp + _totalNumberOfDaysOfRoomRental) */\n      swap1\n      pop\n        /* \"contracts/Booking.sol\":2064:2075  reservation */\n      0x01\n        /* \"contracts/Booking.sol\":2081:2095  newReservation */\n      dup2\n        /* \"contracts/Booking.sol\":2064:2096  reservation.push(newReservation) */\n      swap1\n      dup1\n      0x01\n      dup2\n      sload\n      add\n      dup1\n      dup3\n      sstore\n      dup1\n      swap2\n      pop\n      pop\n      0x01\n      swap1\n      sub\n      swap1\n      0x00\n      mstore\n      keccak256(0x00, 0x20)\n      swap1\n      0x15\n      mul\n      add\n      0x00\n      swap1\n      swap2\n      swap1\n      swap2\n      swap1\n      swap2\n      pop\n      0x00\n      dup3\n      add\n      mload\n      dup2\n      0x00\n      add\n      sstore\n      0x20\n      dup3\n      add\n      mload\n      dup2\n      0x01\n      add\n      0x00\n      dup3\n      add\n      mload\n      dup2\n      0x00\n      add\n      sstore\n      0x20\n      dup3\n      add\n      mload\n      dup2\n      0x01\n      add\n      swap1\n      dup2\n      tag_103\n      swap2\n      swap1\n      tag_104\n      jump\t// in\n    tag_103:\n      pop\n      0x40\n      dup3\n      add\n      mload\n      dup2\n      0x02\n      add\n      swap1\n      dup2\n      tag_105\n      swap2\n      swap1\n      tag_104\n      jump\t// in\n    tag_105:\n      pop\n      0x60\n      dup3\n      add\n      mload\n      dup2\n      0x03\n      add\n      exp(0x0100, 0x00)\n      dup2\n      sload\n      dup2\n      0xff\n      mul\n      not\n      and\n      swap1\n      dup4\n      0x02\n      dup2\n      gt\n      iszero\n      tag_106\n      jumpi\n      tag_107\n      tag_47\n      jump\t// in\n    tag_107:\n    tag_106:\n      mul\n      or\n      swap1\n      sstore\n      pop\n      0x80\n      dup3\n      add\n      mload\n      dup2\n      0x04\n      add\n      swap1\n      dup2\n      tag_108\n      swap2\n      swap1\n      tag_104\n      jump\t// in\n    tag_108:\n      pop\n      0xa0\n      dup3\n      add\n      mload\n      dup2\n      0x05\n      add\n      swap1\n      dup2\n      tag_109\n      swap2\n      swap1\n      tag_104\n      jump\t// in\n    tag_109:\n      pop\n      0xc0\n      dup3\n      add\n      mload\n      dup2\n      0x06\n      add\n      swap1\n      dup2\n      tag_110\n      swap2\n      swap1\n      tag_104\n      jump\t// in\n    tag_110:\n      pop\n      0xe0\n      dup3\n      add\n      mload\n      dup2\n      0x07\n      add\n      sstore\n      0x0100\n      dup3\n      add\n      mload\n      dup2\n      0x08\n      add\n      exp(0x0100, 0x00)\n      dup2\n      sload\n      dup2\n      0xff\n      mul\n      not\n      and\n      swap1\n      dup4\n      iszero\n      iszero\n      mul\n      or\n      swap1\n      sstore\n      pop\n      pop\n      pop\n      0x40\n      dup3\n      add\n      mload\n      dup2\n      0x0a\n      add\n      0x00\n      dup3\n      add\n      mload\n      dup2\n      0x00\n      add\n      sstore\n      0x20\n      dup3\n      add\n      mload\n      dup2\n      0x01\n      add\n      swap1\n      dup2\n      tag_111\n      swap2\n      swap1\n      tag_104\n      jump\t// in\n    tag_111:\n      pop\n      0x40\n      dup3\n      add\n      mload\n      dup2\n      0x02\n      add\n      sstore\n      0x60\n      dup3\n      add\n      mload\n      dup2\n      0x03\n      add\n      sstore\n      0x80\n      dup3\n      add\n      mload\n      dup2\n      0x04\n      add\n      sstore\n      0xa0\n      dup3\n      add\n      mload\n      dup2\n      0x05\n      add\n      exp(0x0100, 0x00)\n      dup2\n      sload\n      dup2\n      0xff\n      mul\n      not\n      and\n      swap1\n      dup4\n      iszero\n      iszero\n      mul\n      or\n      swap1\n      sstore\n      pop\n      0xc0\n      dup3\n      add\n      mload\n      dup2\n      0x05\n      add\n      exp(0x0100, 0x01)\n      dup2\n      sload\n      dup2\n      0xff\n      mul\n      not\n      and\n      swap1\n      dup4\n      iszero\n      iszero\n      mul\n      or\n      swap1\n      sstore\n      pop\n      0xe0\n      dup3\n      add\n      mload\n      dup2\n      0x05\n      add\n      exp(0x0100, 0x02)\n      dup2\n      sload\n      dup2\n      0xff\n      mul\n      not\n      and\n      swap1\n      dup4\n      iszero\n      iszero\n      mul\n      or\n      swap1\n      sstore\n      pop\n      pop\n      pop\n      0x60\n      dup3\n      add\n      mload\n      dup2\n      0x10\n      add\n      exp(0x0100, 0x00)\n      dup2\n      sload\n      dup2\n      0xffffffffffffffffffffffffffffffffffffffff\n      mul\n      not\n      and\n      swap1\n      dup4\n      0xffffffffffffffffffffffffffffffffffffffff\n      and\n      mul\n      or\n      swap1\n      sstore\n      pop\n      0x80\n      dup3\n      add\n      mload\n      dup2\n      0x11\n      add\n      sstore\n      0xa0\n      dup3\n      add\n      mload\n      dup2\n      0x12\n      add\n      sstore\n      0xc0\n      dup3\n      add\n      mload\n      dup2\n      0x13\n      add\n      sstore\n      0xe0\n      dup3\n      add\n      mload\n      dup2\n      0x14\n      add\n      sstore\n      pop\n      pop\n        /* \"contracts/Booking.sol\":1225:2104  {... */\n      pop\n      pop\n      pop\n      pop\n        /* \"contracts/Booking.sol\":1117:2104  function createReservation(uint _roomID, uint _hotelID, uint _totalNumberOfDaysOfRoomRental) payable public {... */\n      pop\n      pop\n      pop\n      jump\t// out\n        /* \"contracts/Booking.sol\":3760:3982  function calculateTotalIncome() private view returns (uint) {... */\n    tag_25:\n        /* \"contracts/Booking.sol\":3814:3818  uint */\n      0x00\n        /* \"contracts/Booking.sol\":3831:3839  uint sum */\n      dup1\n        /* \"contracts/Booking.sol\":3842:3843  0 */\n      0x00\n        /* \"contracts/Booking.sol\":3831:3843  uint sum = 0 */\n      swap1\n      pop\n        /* \"contracts/Booking.sol\":3859:3865  uint i */\n      0x00\n        /* \"contracts/Booking.sol\":3854:3954  for (uint i = 0; i < reservation.length; i++) {... */\n    tag_113:\n        /* \"contracts/Booking.sol\":3875:3886  reservation */\n      0x01\n        /* \"contracts/Booking.sol\":3875:3893  reservation.length */\n      dup1\n      sload\n      swap1\n      pop\n        /* \"contracts/Booking.sol\":3871:3872  i */\n      dup2\n        /* \"contracts/Booking.sol\":3871:3893  i < reservation.length */\n      lt\n        /* \"contracts/Booking.sol\":3854:3954  for (uint i = 0; i < reservation.length; i++) {... */\n      iszero\n      tag_114\n      jumpi\n        /* \"contracts/Booking.sol\":3922:3933  reservation */\n      0x01\n        /* \"contracts/Booking.sol\":3934:3935  i */\n      dup2\n        /* \"contracts/Booking.sol\":3922:3936  reservation[i] */\n      dup2\n      sload\n      dup2\n      lt\n      tag_116\n      jumpi\n      tag_117\n      tag_91\n      jump\t// in\n    tag_117:\n    tag_116:\n      swap1\n      0x00\n      mstore\n      keccak256(0x00, 0x20)\n      swap1\n      0x15\n      mul\n      add\n        /* \"contracts/Booking.sol\":3922:3942  reservation[i].price */\n      0x11\n      add\n      sload\n        /* \"contracts/Booking.sol\":3915:3942  sum += reservation[i].price */\n      dup3\n      tag_119\n      swap2\n      swap1\n      tag_101\n      jump\t// in\n    tag_119:\n      swap2\n      pop\n        /* \"contracts/Booking.sol\":3895:3898  i++ */\n      dup1\n      dup1\n      tag_120\n      swap1\n      tag_121\n      jump\t// in\n    tag_120:\n      swap2\n      pop\n      pop\n        /* \"contracts/Booking.sol\":3854:3954  for (uint i = 0; i < reservation.length; i++) {... */\n      jump(tag_113)\n    tag_114:\n      pop\n        /* \"contracts/Booking.sol\":3971:3974  sum */\n      dup1\n        /* \"contracts/Booking.sol\":3964:3974  return sum */\n      swap2\n      pop\n      pop\n        /* \"contracts/Booking.sol\":3760:3982  function calculateTotalIncome() private view returns (uint) {... */\n      swap1\n      jump\t// out\n        /* \"contracts/Booking.sol\":2398:3013  function prepareHotelRooms() private pure returns (Room[] memory) {... */\n    tag_73:\n        /* \"contracts/Booking.sol\":2449:2462  Room[] memory */\n      0x60\n        /* \"contracts/Booking.sol\":2475:2499  Room[] memory hotelRooms */\n      0x00\n        /* \"contracts/Booking.sol\":2513:2514  6 */\n      0x06\n        /* \"contracts/Booking.sol\":2502:2515  new Room[](6) */\n      0xffffffffffffffff\n      dup2\n      gt\n      iszero\n      tag_123\n      jumpi\n      tag_124\n      tag_125\n      jump\t// in\n    tag_124:\n    tag_123:\n      mload(0x40)\n      swap1\n      dup1\n      dup3\n      mstore\n      dup1\n      0x20\n      mul\n      0x20\n      add\n      dup3\n      add\n      0x40\n      mstore\n      dup1\n      iszero\n      tag_126\n      jumpi\n      dup2\n      0x20\n      add\n    tag_127:\n      tag_128\n      tag_129\n      jump\t// in\n    tag_128:\n      dup2\n      mstore\n      0x20\n      add\n      swap1\n      0x01\n      swap1\n      sub\n      swap1\n      dup2\n      tag_127\n      jumpi\n      swap1\n      pop\n    tag_126:\n      pop\n        /* \"contracts/Booking.sol\":2475:2515  Room[] memory hotelRooms = new Room[](6) */\n      swap1\n      pop\n        /* \"contracts/Booking.sol\":2542:2591  Room(1, \"Premium 1\", 200, 1, 4, true, true, true) */\n      mload(0x40)\n      dup1\n      0x0100\n      add\n      0x40\n      mstore\n      dup1\n        /* \"contracts/Booking.sol\":2547:2548  1 */\n      0x01\n        /* \"contracts/Booking.sol\":2542:2591  Room(1, \"Premium 1\", 200, 1, 4, true, true, true) */\n      dup2\n      mstore\n      0x20\n      add\n      mload(0x40)\n      dup1\n      0x40\n      add\n      0x40\n      mstore\n      dup1\n      0x09\n      dup2\n      mstore\n      0x20\n      add\n      0x5072656d69756d20310000000000000000000000000000000000000000000000\n      dup2\n      mstore\n      pop\n      dup2\n      mstore\n      0x20\n      add\n        /* \"contracts/Booking.sol\":2563:2566  200 */\n      0xc8\n        /* \"contracts/Booking.sol\":2542:2591  Room(1, \"Premium 1\", 200, 1, 4, true, true, true) */\n      dup2\n      mstore\n      0x20\n      add\n        /* \"contracts/Booking.sol\":2568:2569  1 */\n      0x01\n        /* \"contracts/Booking.sol\":2542:2591  Room(1, \"Premium 1\", 200, 1, 4, true, true, true) */\n      dup2\n      mstore\n      0x20\n      add\n        /* \"contracts/Booking.sol\":2571:2572  4 */\n      0x04\n        /* \"contracts/Booking.sol\":2542:2591  Room(1, \"Premium 1\", 200, 1, 4, true, true, true) */\n      dup2\n      mstore\n      0x20\n      add\n        /* \"contracts/Booking.sol\":2574:2578  true */\n      0x01\n        /* \"contracts/Booking.sol\":2542:2591  Room(1, \"Premium 1\", 200, 1, 4, true, true, true) */\n      iszero\n      iszero\n      dup2\n      mstore\n      0x20\n      add\n        /* \"contracts/Booking.sol\":2580:2584  true */\n      0x01\n        /* \"contracts/Booking.sol\":2542:2591  Room(1, \"Premium 1\", 200, 1, 4, true, true, true) */\n      iszero\n      iszero\n      dup2\n      mstore\n      0x20\n      add\n        /* \"contracts/Booking.sol\":2586:2590  true */\n      0x01\n        /* \"contracts/Booking.sol\":2542:2591  Room(1, \"Premium 1\", 200, 1, 4, true, true, true) */\n      iszero\n      iszero\n      dup2\n      mstore\n      pop\n        /* \"contracts/Booking.sol\":2526:2536  hotelRooms */\n      dup2\n        /* \"contracts/Booking.sol\":2537:2538  0 */\n      0x00\n        /* \"contracts/Booking.sol\":2526:2539  hotelRooms[0] */\n      dup2\n      mload\n      dup2\n      lt\n      tag_130\n      jumpi\n      tag_131\n      tag_91\n      jump\t// in\n    tag_131:\n    tag_130:\n      0x20\n      mul\n      0x20\n      add\n      add\n        /* \"contracts/Booking.sol\":2526:2591  hotelRooms[0] = Room(1, \"Premium 1\", 200, 1, 4, true, true, true) */\n      dup2\n      swap1\n      mstore\n      pop\n        /* \"contracts/Booking.sol\":2618:2668  Room(2, \"Premium 2\", 200, 1, 4, true, true, false) */\n      mload(0x40)\n      dup1\n      0x0100\n      add\n      0x40\n      mstore\n      dup1\n        /* \"contracts/Booking.sol\":2623:2624  2 */\n      0x02\n        /* \"contracts/Booking.sol\":2618:2668  Room(2, \"Premium 2\", 200, 1, 4, true, true, false) */\n      dup2\n      mstore\n      0x20\n      add\n      mload(0x40)\n      dup1\n      0x40\n      add\n      0x40\n      mstore\n      dup1\n      0x09\n      dup2\n      mstore\n      0x20\n      add\n      0x5072656d69756d20320000000000000000000000000000000000000000000000\n      dup2\n      mstore\n      pop\n      dup2\n      mstore\n      0x20\n      add\n        /* \"contracts/Booking.sol\":2639:2642  200 */\n      0xc8\n        /* \"contracts/Booking.sol\":2618:2668  Room(2, \"Premium 2\", 200, 1, 4, true, true, false) */\n      dup2\n      mstore\n      0x20\n      add\n        /* \"contracts/Booking.sol\":2644:2645  1 */\n      0x01\n        /* \"contracts/Booking.sol\":2618:2668  Room(2, \"Premium 2\", 200, 1, 4, true, true, false) */\n      dup2\n      mstore\n      0x20\n      add\n        /* \"contracts/Booking.sol\":2647:2648  4 */\n      0x04\n        /* \"contracts/Booking.sol\":2618:2668  Room(2, \"Premium 2\", 200, 1, 4, true, true, false) */\n      dup2\n      mstore\n      0x20\n      add\n        /* \"contracts/Booking.sol\":2650:2654  true */\n      0x01\n        /* \"contracts/Booking.sol\":2618:2668  Room(2, \"Premium 2\", 200, 1, 4, true, true, false) */\n      iszero\n      iszero\n      dup2\n      mstore\n      0x20\n      add\n        /* \"contracts/Booking.sol\":2656:2660  true */\n      0x01\n        /* \"contracts/Booking.sol\":2618:2668  Room(2, \"Premium 2\", 200, 1, 4, true, true, false) */\n      iszero\n      iszero\n      dup2\n      mstore\n      0x20\n      add\n        /* \"contracts/Booking.sol\":2662:2667  false */\n      0x00\n        /* \"contracts/Booking.sol\":2618:2668  Room(2, \"Premium 2\", 200, 1, 4, true, true, false) */\n      iszero\n      iszero\n      dup2\n      mstore\n      pop\n        /* \"contracts/Booking.sol\":2602:2612  hotelRooms */\n      dup2\n        /* \"contracts/Booking.sol\":2613:2614  1 */\n      0x01\n        /* \"contracts/Booking.sol\":2602:2615  hotelRooms[1] */\n      dup2\n      mload\n      dup2\n      lt\n      tag_132\n      jumpi\n      tag_133\n      tag_91\n      jump\t// in\n    tag_133:\n    tag_132:\n      0x20\n      mul\n      0x20\n      add\n      add\n        /* \"contracts/Booking.sol\":2602:2668  hotelRooms[1] = Room(2, \"Premium 2\", 200, 1, 4, true, true, false) */\n      dup2\n      swap1\n      mstore\n      pop\n        /* \"contracts/Booking.sol\":2695:2746  Room(3, \"Standard 1\", 100, 1, 6, true, false, true) */\n      mload(0x40)\n      dup1\n      0x0100\n      add\n      0x40\n      mstore\n      dup1\n        /* \"contracts/Booking.sol\":2700:2701  3 */\n      0x03\n        /* \"contracts/Booking.sol\":2695:2746  Room(3, \"Standard 1\", 100, 1, 6, true, false, true) */\n      dup2\n      mstore\n      0x20\n      add\n      mload(0x40)\n      dup1\n      0x40\n      add\n      0x40\n      mstore\n      dup1\n      0x0a\n      dup2\n      mstore\n      0x20\n      add\n      0x5374616e64617264203100000000000000000000000000000000000000000000\n      dup2\n      mstore\n      pop\n      dup2\n      mstore\n      0x20\n      add\n        /* \"contracts/Booking.sol\":2717:2720  100 */\n      0x64\n        /* \"contracts/Booking.sol\":2695:2746  Room(3, \"Standard 1\", 100, 1, 6, true, false, true) */\n      dup2\n      mstore\n      0x20\n      add\n        /* \"contracts/Booking.sol\":2722:2723  1 */\n      0x01\n        /* \"contracts/Booking.sol\":2695:2746  Room(3, \"Standard 1\", 100, 1, 6, true, false, true) */\n      dup2\n      mstore\n      0x20\n      add\n        /* \"contracts/Booking.sol\":2725:2726  6 */\n      0x06\n        /* \"contracts/Booking.sol\":2695:2746  Room(3, \"Standard 1\", 100, 1, 6, true, false, true) */\n      dup2\n      mstore\n      0x20\n      add\n        /* \"contracts/Booking.sol\":2728:2732  true */\n      0x01\n        /* \"contracts/Booking.sol\":2695:2746  Room(3, \"Standard 1\", 100, 1, 6, true, false, true) */\n      iszero\n      iszero\n      dup2\n      mstore\n      0x20\n      add\n        /* \"contracts/Booking.sol\":2734:2739  false */\n      0x00\n        /* \"contracts/Booking.sol\":2695:2746  Room(3, \"Standard 1\", 100, 1, 6, true, false, true) */\n      iszero\n      iszero\n      dup2\n      mstore\n      0x20\n      add\n        /* \"contracts/Booking.sol\":2741:2745  true */\n      0x01\n        /* \"contracts/Booking.sol\":2695:2746  Room(3, \"Standard 1\", 100, 1, 6, true, false, true) */\n      iszero\n      iszero\n      dup2\n      mstore\n      pop\n        /* \"contracts/Booking.sol\":2679:2689  hotelRooms */\n      dup2\n        /* \"contracts/Booking.sol\":2690:2691  2 */\n      0x02\n        /* \"contracts/Booking.sol\":2679:2692  hotelRooms[2] */\n      dup2\n      mload\n      dup2\n      lt\n      tag_134\n      jumpi\n      tag_135\n      tag_91\n      jump\t// in\n    tag_135:\n    tag_134:\n      0x20\n      mul\n      0x20\n      add\n      add\n        /* \"contracts/Booking.sol\":2679:2746  hotelRooms[2] = Room(3, \"Standard 1\", 100, 1, 6, true, false, true) */\n      dup2\n      swap1\n      mstore\n      pop\n        /* \"contracts/Booking.sol\":2773:2826  Room(4, \"Standard 2\", 200, 1, 7, false, false, false) */\n      mload(0x40)\n      dup1\n      0x0100\n      add\n      0x40\n      mstore\n      dup1\n        /* \"contracts/Booking.sol\":2778:2779  4 */\n      0x04\n        /* \"contracts/Booking.sol\":2773:2826  Room(4, \"Standard 2\", 200, 1, 7, false, false, false) */\n      dup2\n      mstore\n      0x20\n      add\n      mload(0x40)\n      dup1\n      0x40\n      add\n      0x40\n      mstore\n      dup1\n      0x0a\n      dup2\n      mstore\n      0x20\n      add\n      0x5374616e64617264203200000000000000000000000000000000000000000000\n      dup2\n      mstore\n      pop\n      dup2\n      mstore\n      0x20\n      add\n        /* \"contracts/Booking.sol\":2795:2798  200 */\n      0xc8\n        /* \"contracts/Booking.sol\":2773:2826  Room(4, \"Standard 2\", 200, 1, 7, false, false, false) */\n      dup2\n      mstore\n      0x20\n      add\n        /* \"contracts/Booking.sol\":2800:2801  1 */\n      0x01\n        /* \"contracts/Booking.sol\":2773:2826  Room(4, \"Standard 2\", 200, 1, 7, false, false, false) */\n      dup2\n      mstore\n      0x20\n      add\n        /* \"contracts/Booking.sol\":2803:2804  7 */\n      0x07\n        /* \"contracts/Booking.sol\":2773:2826  Room(4, \"Standard 2\", 200, 1, 7, false, false, false) */\n      dup2\n      mstore\n      0x20\n      add\n        /* \"contracts/Booking.sol\":2806:2811  false */\n      0x00\n        /* \"contracts/Booking.sol\":2773:2826  Room(4, \"Standard 2\", 200, 1, 7, false, false, false) */\n      iszero\n      iszero\n      dup2\n      mstore\n      0x20\n      add\n        /* \"contracts/Booking.sol\":2813:2818  false */\n      0x00\n        /* \"contracts/Booking.sol\":2773:2826  Room(4, \"Standard 2\", 200, 1, 7, false, false, false) */\n      iszero\n      iszero\n      dup2\n      mstore\n      0x20\n      add\n        /* \"contracts/Booking.sol\":2820:2825  false */\n      0x00\n        /* \"contracts/Booking.sol\":2773:2826  Room(4, \"Standard 2\", 200, 1, 7, false, false, false) */\n      iszero\n      iszero\n      dup2\n      mstore\n      pop\n        /* \"contracts/Booking.sol\":2757:2767  hotelRooms */\n      dup2\n        /* \"contracts/Booking.sol\":2768:2769  3 */\n      0x03\n        /* \"contracts/Booking.sol\":2757:2770  hotelRooms[3] */\n      dup2\n      mload\n      dup2\n      lt\n      tag_136\n      jumpi\n      tag_137\n      tag_91\n      jump\t// in\n    tag_137:\n    tag_136:\n      0x20\n      mul\n      0x20\n      add\n      add\n        /* \"contracts/Booking.sol\":2757:2826  hotelRooms[3] = Room(4, \"Standard 2\", 200, 1, 7, false, false, false) */\n      dup2\n      swap1\n      mstore\n      pop\n        /* \"contracts/Booking.sol\":2853:2901  Room(5, \"Poor 1\", 50, 1, 10, false, false, true) */\n      mload(0x40)\n      dup1\n      0x0100\n      add\n      0x40\n      mstore\n      dup1\n        /* \"contracts/Booking.sol\":2858:2859  5 */\n      0x05\n        /* \"contracts/Booking.sol\":2853:2901  Room(5, \"Poor 1\", 50, 1, 10, false, false, true) */\n      dup2\n      mstore\n      0x20\n      add\n      mload(0x40)\n      dup1\n      0x40\n      add\n      0x40\n      mstore\n      dup1\n      0x06\n      dup2\n      mstore\n      0x20\n      add\n      0x506f6f7220310000000000000000000000000000000000000000000000000000\n      dup2\n      mstore\n      pop\n      dup2\n      mstore\n      0x20\n      add\n        /* \"contracts/Booking.sol\":2871:2873  50 */\n      0x32\n        /* \"contracts/Booking.sol\":2853:2901  Room(5, \"Poor 1\", 50, 1, 10, false, false, true) */\n      dup2\n      mstore\n      0x20\n      add\n        /* \"contracts/Booking.sol\":2875:2876  1 */\n      0x01\n        /* \"contracts/Booking.sol\":2853:2901  Room(5, \"Poor 1\", 50, 1, 10, false, false, true) */\n      dup2\n      mstore\n      0x20\n      add\n        /* \"contracts/Booking.sol\":2878:2880  10 */\n      0x0a\n        /* \"contracts/Booking.sol\":2853:2901  Room(5, \"Poor 1\", 50, 1, 10, false, false, true) */\n      dup2\n      mstore\n      0x20\n      add\n        /* \"contracts/Booking.sol\":2882:2887  false */\n      0x00\n        /* \"contracts/Booking.sol\":2853:2901  Room(5, \"Poor 1\", 50, 1, 10, false, false, true) */\n      iszero\n      iszero\n      dup2\n      mstore\n      0x20\n      add\n        /* \"contracts/Booking.sol\":2889:2894  false */\n      0x00\n        /* \"contracts/Booking.sol\":2853:2901  Room(5, \"Poor 1\", 50, 1, 10, false, false, true) */\n      iszero\n      iszero\n      dup2\n      mstore\n      0x20\n      add\n        /* \"contracts/Booking.sol\":2896:2900  true */\n      0x01\n        /* \"contracts/Booking.sol\":2853:2901  Room(5, \"Poor 1\", 50, 1, 10, false, false, true) */\n      iszero\n      iszero\n      dup2\n      mstore\n      pop\n        /* \"contracts/Booking.sol\":2837:2847  hotelRooms */\n      dup2\n        /* \"contracts/Booking.sol\":2848:2849  4 */\n      0x04\n        /* \"contracts/Booking.sol\":2837:2850  hotelRooms[4] */\n      dup2\n      mload\n      dup2\n      lt\n      tag_138\n      jumpi\n      tag_139\n      tag_91\n      jump\t// in\n    tag_139:\n    tag_138:\n      0x20\n      mul\n      0x20\n      add\n      add\n        /* \"contracts/Booking.sol\":2837:2901  hotelRooms[4] = Room(5, \"Poor 1\", 50, 1, 10, false, false, true) */\n      dup2\n      swap1\n      mstore\n      pop\n        /* \"contracts/Booking.sol\":2928:2977  Room(6, \"Poor 2\", 50, 1, 20, false, false, false) */\n      mload(0x40)\n      dup1\n      0x0100\n      add\n      0x40\n      mstore\n      dup1\n        /* \"contracts/Booking.sol\":2933:2934  6 */\n      0x06\n        /* \"contracts/Booking.sol\":2928:2977  Room(6, \"Poor 2\", 50, 1, 20, false, false, false) */\n      dup2\n      mstore\n      0x20\n      add\n      mload(0x40)\n      dup1\n      0x40\n      add\n      0x40\n      mstore\n      dup1\n      0x06\n      dup2\n      mstore\n      0x20\n      add\n      0x506f6f7220320000000000000000000000000000000000000000000000000000\n      dup2\n      mstore\n      pop\n      dup2\n      mstore\n      0x20\n      add\n        /* \"contracts/Booking.sol\":2946:2948  50 */\n      0x32\n        /* \"contracts/Booking.sol\":2928:2977  Room(6, \"Poor 2\", 50, 1, 20, false, false, false) */\n      dup2\n      mstore\n      0x20\n      add\n        /* \"contracts/Booking.sol\":2950:2951  1 */\n      0x01\n        /* \"contracts/Booking.sol\":2928:2977  Room(6, \"Poor 2\", 50, 1, 20, false, false, false) */\n      dup2\n      mstore\n      0x20\n      add\n        /* \"contracts/Booking.sol\":2953:2955  20 */\n      0x14\n        /* \"contracts/Booking.sol\":2928:2977  Room(6, \"Poor 2\", 50, 1, 20, false, false, false) */\n      dup2\n      mstore\n      0x20\n      add\n        /* \"contracts/Booking.sol\":2957:2962  false */\n      0x00\n        /* \"contracts/Booking.sol\":2928:2977  Room(6, \"Poor 2\", 50, 1, 20, false, false, false) */\n      iszero\n      iszero\n      dup2\n      mstore\n      0x20\n      add\n        /* \"contracts/Booking.sol\":2964:2969  false */\n      0x00\n        /* \"contracts/Booking.sol\":2928:2977  Room(6, \"Poor 2\", 50, 1, 20, false, false, false) */\n      iszero\n      iszero\n      dup2\n      mstore\n      0x20\n      add\n        /* \"contracts/Booking.sol\":2971:2976  false */\n      0x00\n        /* \"contracts/Booking.sol\":2928:2977  Room(6, \"Poor 2\", 50, 1, 20, false, false, false) */\n      iszero\n      iszero\n      dup2\n      mstore\n      pop\n        /* \"contracts/Booking.sol\":2912:2922  hotelRooms */\n      dup2\n        /* \"contracts/Booking.sol\":2923:2924  5 */\n      0x05\n        /* \"contracts/Booking.sol\":2912:2925  hotelRooms[5] */\n      dup2\n      mload\n      dup2\n      lt\n      tag_140\n      jumpi\n      tag_141\n      tag_91\n      jump\t// in\n    tag_141:\n    tag_140:\n      0x20\n      mul\n      0x20\n      add\n      add\n        /* \"contracts/Booking.sol\":2912:2977  hotelRooms[5] = Room(6, \"Poor 2\", 50, 1, 20, false, false, false) */\n      dup2\n      swap1\n      mstore\n      pop\n        /* \"contracts/Booking.sol\":2995:3005  hotelRooms */\n      dup1\n        /* \"contracts/Booking.sol\":2988:3005  return hotelRooms */\n      swap2\n      pop\n      pop\n        /* \"contracts/Booking.sol\":2398:3013  function prepareHotelRooms() private pure returns (Room[] memory) {... */\n      swap1\n      jump\t// out\n        /* \"contracts/Booking.sol\":3021:3527  function prepareHotels() private pure returns (Hotel[] memory) {... */\n    tag_79:\n        /* \"contracts/Booking.sol\":3068:3082  Hotel[] memory */\n      0x60\n        /* \"contracts/Booking.sol\":3095:3116  Hotel[] memory hotels */\n      0x00\n        /* \"contracts/Booking.sol\":3131:3132  3 */\n      0x03\n        /* \"contracts/Booking.sol\":3119:3133  new Hotel[](3) */\n      0xffffffffffffffff\n      dup2\n      gt\n      iszero\n      tag_143\n      jumpi\n      tag_144\n      tag_125\n      jump\t// in\n    tag_144:\n    tag_143:\n      mload(0x40)\n      swap1\n      dup1\n      dup3\n      mstore\n      dup1\n      0x20\n      mul\n      0x20\n      add\n      dup3\n      add\n      0x40\n      mstore\n      dup1\n      iszero\n      tag_145\n      jumpi\n      dup2\n      0x20\n      add\n    tag_146:\n      tag_147\n      tag_148\n      jump\t// in\n    tag_147:\n      dup2\n      mstore\n      0x20\n      add\n      swap1\n      0x01\n      swap1\n      sub\n      swap1\n      dup2\n      tag_146\n      jumpi\n      swap1\n      pop\n    tag_145:\n      pop\n        /* \"contracts/Booking.sol\":3095:3133  Hotel[] memory hotels = new Hotel[](3) */\n      swap1\n      pop\n        /* \"contracts/Booking.sol\":3156:3255  Hotel(1, \"Hotel Premium\", \"Premium\", Country.POLAND, \"Glogowska\", \"61-500\", \"500-500-505\", 5, true) */\n      mload(0x40)\n      dup1\n      0x0120\n      add\n      0x40\n      mstore\n      dup1\n        /* \"contracts/Booking.sol\":3162:3163  1 */\n      0x01\n        /* \"contracts/Booking.sol\":3156:3255  Hotel(1, \"Hotel Premium\", \"Premium\", Country.POLAND, \"Glogowska\", \"61-500\", \"500-500-505\", 5, true) */\n      dup2\n      mstore\n      0x20\n      add\n      mload(0x40)\n      dup1\n      0x40\n      add\n      0x40\n      mstore\n      dup1\n      0x0d\n      dup2\n      mstore\n      0x20\n      add\n      0x486f74656c205072656d69756d00000000000000000000000000000000000000\n      dup2\n      mstore\n      pop\n      dup2\n      mstore\n      0x20\n      add\n      mload(0x40)\n      dup1\n      0x40\n      add\n      0x40\n      mstore\n      dup1\n      0x07\n      dup2\n      mstore\n      0x20\n      add\n      0x5072656d69756d00000000000000000000000000000000000000000000000000\n      dup2\n      mstore\n      pop\n      dup2\n      mstore\n      0x20\n      add\n        /* \"contracts/Booking.sol\":3193:3207  Country.POLAND */\n      0x00\n        /* \"contracts/Booking.sol\":3156:3255  Hotel(1, \"Hotel Premium\", \"Premium\", Country.POLAND, \"Glogowska\", \"61-500\", \"500-500-505\", 5, true) */\n      0x02\n      dup2\n      gt\n      iszero\n      tag_149\n      jumpi\n      tag_150\n      tag_47\n      jump\t// in\n    tag_150:\n    tag_149:\n      dup2\n      mstore\n      0x20\n      add\n      mload(0x40)\n      dup1\n      0x40\n      add\n      0x40\n      mstore\n      dup1\n      0x09\n      dup2\n      mstore\n      0x20\n      add\n      0x476c6f676f77736b610000000000000000000000000000000000000000000000\n      dup2\n      mstore\n      pop\n      dup2\n      mstore\n      0x20\n      add\n      mload(0x40)\n      dup1\n      0x40\n      add\n      0x40\n      mstore\n      dup1\n      0x06\n      dup2\n      mstore\n      0x20\n      add\n      0x36312d3530300000000000000000000000000000000000000000000000000000\n      dup2\n      mstore\n      pop\n      dup2\n      mstore\n      0x20\n      add\n      mload(0x40)\n      dup1\n      0x40\n      add\n      0x40\n      mstore\n      dup1\n      0x0b\n      dup2\n      mstore\n      0x20\n      add\n      0x3530302d3530302d353035000000000000000000000000000000000000000000\n      dup2\n      mstore\n      pop\n      dup2\n      mstore\n      0x20\n      add\n        /* \"contracts/Booking.sol\":3247:3248  5 */\n      0x05\n        /* \"contracts/Booking.sol\":3156:3255  Hotel(1, \"Hotel Premium\", \"Premium\", Country.POLAND, \"Glogowska\", \"61-500\", \"500-500-505\", 5, true) */\n      dup2\n      mstore\n      0x20\n      add\n        /* \"contracts/Booking.sol\":3250:3254  true */\n      0x01\n        /* \"contracts/Booking.sol\":3156:3255  Hotel(1, \"Hotel Premium\", \"Premium\", Country.POLAND, \"Glogowska\", \"61-500\", \"500-500-505\", 5, true) */\n      iszero\n      iszero\n      dup2\n      mstore\n      pop\n        /* \"contracts/Booking.sol\":3144:3150  hotels */\n      dup2\n        /* \"contracts/Booking.sol\":3151:3152  0 */\n      0x00\n        /* \"contracts/Booking.sol\":3144:3153  hotels[0] */\n      dup2\n      mload\n      dup2\n      lt\n      tag_151\n      jumpi\n      tag_152\n      tag_91\n      jump\t// in\n    tag_152:\n    tag_151:\n      0x20\n      mul\n      0x20\n      add\n      add\n        /* \"contracts/Booking.sol\":3144:3255  hotels[0] = Hotel(1, \"Hotel Premium\", \"Premium\", Country.POLAND, \"Glogowska\", \"61-500\", \"500-500-505\", 5, true) */\n      dup2\n      swap1\n      mstore\n      pop\n        /* \"contracts/Booking.sol\":3278:3379  Hotel(2, \"Hotel Standard\", \"Standard\", Country.POLAND, \"Glogowska\", \"61-300\", \"300-300-300\", 3, true) */\n      mload(0x40)\n      dup1\n      0x0120\n      add\n      0x40\n      mstore\n      dup1\n        /* \"contracts/Booking.sol\":3284:3285  2 */\n      0x02\n        /* \"contracts/Booking.sol\":3278:3379  Hotel(2, \"Hotel Standard\", \"Standard\", Country.POLAND, \"Glogowska\", \"61-300\", \"300-300-300\", 3, true) */\n      dup2\n      mstore\n      0x20\n      add\n      mload(0x40)\n      dup1\n      0x40\n      add\n      0x40\n      mstore\n      dup1\n      0x0e\n      dup2\n      mstore\n      0x20\n      add\n      0x486f74656c205374616e64617264000000000000000000000000000000000000\n      dup2\n      mstore\n      pop\n      dup2\n      mstore\n      0x20\n      add\n      mload(0x40)\n      dup1\n      0x40\n      add\n      0x40\n      mstore\n      dup1\n      0x08\n      dup2\n      mstore\n      0x20\n      add\n      0x5374616e64617264000000000000000000000000000000000000000000000000\n      dup2\n      mstore\n      pop\n      dup2\n      mstore\n      0x20\n      add\n        /* \"contracts/Booking.sol\":3317:3331  Country.POLAND */\n      0x00\n        /* \"contracts/Booking.sol\":3278:3379  Hotel(2, \"Hotel Standard\", \"Standard\", Country.POLAND, \"Glogowska\", \"61-300\", \"300-300-300\", 3, true) */\n      0x02\n      dup2\n      gt\n      iszero\n      tag_153\n      jumpi\n      tag_154\n      tag_47\n      jump\t// in\n    tag_154:\n    tag_153:\n      dup2\n      mstore\n      0x20\n      add\n      mload(0x40)\n      dup1\n      0x40\n      add\n      0x40\n      mstore\n      dup1\n      0x09\n      dup2\n      mstore\n      0x20\n      add\n      0x476c6f676f77736b610000000000000000000000000000000000000000000000\n      dup2\n      mstore\n      pop\n      dup2\n      mstore\n      0x20\n      add\n      mload(0x40)\n      dup1\n      0x40\n      add\n      0x40\n      mstore\n      dup1\n      0x06\n      dup2\n      mstore\n      0x20\n      add\n      0x36312d3330300000000000000000000000000000000000000000000000000000\n      dup2\n      mstore\n      pop\n      dup2\n      mstore\n      0x20\n      add\n      mload(0x40)\n      dup1\n      0x40\n      add\n      0x40\n      mstore\n      dup1\n      0x0b\n      dup2\n      mstore\n      0x20\n      add\n      0x3330302d3330302d333030000000000000000000000000000000000000000000\n      dup2\n      mstore\n      pop\n      dup2\n      mstore\n      0x20\n      add\n        /* \"contracts/Booking.sol\":3371:3372  3 */\n      0x03\n        /* \"contracts/Booking.sol\":3278:3379  Hotel(2, \"Hotel Standard\", \"Standard\", Country.POLAND, \"Glogowska\", \"61-300\", \"300-300-300\", 3, true) */\n      dup2\n      mstore\n      0x20\n      add\n        /* \"contracts/Booking.sol\":3374:3378  true */\n      0x01\n        /* \"contracts/Booking.sol\":3278:3379  Hotel(2, \"Hotel Standard\", \"Standard\", Country.POLAND, \"Glogowska\", \"61-300\", \"300-300-300\", 3, true) */\n      iszero\n      iszero\n      dup2\n      mstore\n      pop\n        /* \"contracts/Booking.sol\":3266:3272  hotels */\n      dup2\n        /* \"contracts/Booking.sol\":3273:3274  1 */\n      0x01\n        /* \"contracts/Booking.sol\":3266:3275  hotels[1] */\n      dup2\n      mload\n      dup2\n      lt\n      tag_155\n      jumpi\n      tag_156\n      tag_91\n      jump\t// in\n    tag_156:\n    tag_155:\n      0x20\n      mul\n      0x20\n      add\n      add\n        /* \"contracts/Booking.sol\":3266:3379  hotels[1] = Hotel(2, \"Hotel Standard\", \"Standard\", Country.POLAND, \"Glogowska\", \"61-300\", \"300-300-300\", 3, true) */\n      dup2\n      swap1\n      mstore\n      pop\n        /* \"contracts/Booking.sol\":3402:3495  Hotel(3, \"Hotel Poor\", \"Poor\", Country.POLAND, \"Glogowska\", \"61-100\", \"100-100-100\", 1, true) */\n      mload(0x40)\n      dup1\n      0x0120\n      add\n      0x40\n      mstore\n      dup1\n        /* \"contracts/Booking.sol\":3408:3409  3 */\n      0x03\n        /* \"contracts/Booking.sol\":3402:3495  Hotel(3, \"Hotel Poor\", \"Poor\", Country.POLAND, \"Glogowska\", \"61-100\", \"100-100-100\", 1, true) */\n      dup2\n      mstore\n      0x20\n      add\n      mload(0x40)\n      dup1\n      0x40\n      add\n      0x40\n      mstore\n      dup1\n      0x0a\n      dup2\n      mstore\n      0x20\n      add\n      0x486f74656c20506f6f7200000000000000000000000000000000000000000000\n      dup2\n      mstore\n      pop\n      dup2\n      mstore\n      0x20\n      add\n      mload(0x40)\n      dup1\n      0x40\n      add\n      0x40\n      mstore\n      dup1\n      0x04\n      dup2\n      mstore\n      0x20\n      add\n      0x506f6f7200000000000000000000000000000000000000000000000000000000\n      dup2\n      mstore\n      pop\n      dup2\n      mstore\n      0x20\n      add\n        /* \"contracts/Booking.sol\":3433:3447  Country.POLAND */\n      0x00\n        /* \"contracts/Booking.sol\":3402:3495  Hotel(3, \"Hotel Poor\", \"Poor\", Country.POLAND, \"Glogowska\", \"61-100\", \"100-100-100\", 1, true) */\n      0x02\n      dup2\n      gt\n      iszero\n      tag_157\n      jumpi\n      tag_158\n      tag_47\n      jump\t// in\n    tag_158:\n    tag_157:\n      dup2\n      mstore\n      0x20\n      add\n      mload(0x40)\n      dup1\n      0x40\n      add\n      0x40\n      mstore\n      dup1\n      0x09\n      dup2\n      mstore\n      0x20\n      add\n      0x476c6f676f77736b610000000000000000000000000000000000000000000000\n      dup2\n      mstore\n      pop\n      dup2\n      mstore\n      0x20\n      add\n      mload(0x40)\n      dup1\n      0x40\n      add\n      0x40\n      mstore\n      dup1\n      0x06\n      dup2\n      mstore\n      0x20\n      add\n      0x36312d3130300000000000000000000000000000000000000000000000000000\n      dup2\n      mstore\n      pop\n      dup2\n      mstore\n      0x20\n      add\n      mload(0x40)\n      dup1\n      0x40\n      add\n      0x40\n      mstore\n      dup1\n      0x0b\n      dup2\n      mstore\n      0x20\n      add\n      0x3130302d3130302d313030000000000000000000000000000000000000000000\n      dup2\n      mstore\n      pop\n      dup2\n      mstore\n      0x20\n      add\n        /* \"contracts/Booking.sol\":3487:3488  1 */\n      0x01\n        /* \"contracts/Booking.sol\":3402:3495  Hotel(3, \"Hotel Poor\", \"Poor\", Country.POLAND, \"Glogowska\", \"61-100\", \"100-100-100\", 1, true) */\n      dup2\n      mstore\n      0x20\n      add\n        /* \"contracts/Booking.sol\":3490:3494  true */\n      0x01\n        /* \"contracts/Booking.sol\":3402:3495  Hotel(3, \"Hotel Poor\", \"Poor\", Country.POLAND, \"Glogowska\", \"61-100\", \"100-100-100\", 1, true) */\n      iszero\n      iszero\n      dup2\n      mstore\n      pop\n        /* \"contracts/Booking.sol\":3390:3396  hotels */\n      dup2\n        /* \"contracts/Booking.sol\":3397:3398  2 */\n      0x02\n        /* \"contracts/Booking.sol\":3390:3399  hotels[2] */\n      dup2\n      mload\n      dup2\n      lt\n      tag_159\n      jumpi\n      tag_160\n      tag_91\n      jump\t// in\n    tag_160:\n    tag_159:\n      0x20\n      mul\n      0x20\n      add\n      add\n        /* \"contracts/Booking.sol\":3390:3495  hotels[2] = Hotel(3, \"Hotel Poor\", \"Poor\", Country.POLAND, \"Glogowska\", \"61-100\", \"100-100-100\", 1, true) */\n      dup2\n      swap1\n      mstore\n      pop\n        /* \"contracts/Booking.sol\":3513:3519  hotels */\n      dup1\n        /* \"contracts/Booking.sol\":3506:3519  return hotels */\n      swap2\n      pop\n      pop\n        /* \"contracts/Booking.sol\":3021:3527  function prepareHotels() private pure returns (Hotel[] memory) {... */\n      swap1\n      jump\t// out\n        /* \"contracts/Booking.sol\":3535:3668  function calculatePrice(uint _days, uint _ratePerDay) private pure returns (uint price) {... */\n    tag_97:\n        /* \"contracts/Booking.sol\":3611:3621  uint price */\n      0x00\n        /* \"contracts/Booking.sol\":3649:3660  _ratePerDay */\n      dup2\n        /* \"contracts/Booking.sol\":3641:3646  _days */\n      dup4\n        /* \"contracts/Booking.sol\":3641:3660  _days * _ratePerDay */\n      tag_162\n      swap2\n      swap1\n      tag_27\n      jump\t// in\n    tag_162:\n        /* \"contracts/Booking.sol\":3634:3660  return _days * _ratePerDay */\n      swap1\n      pop\n        /* \"contracts/Booking.sol\":3535:3668  function calculatePrice(uint _days, uint _ratePerDay) private pure returns (uint price) {... */\n      swap3\n      swap2\n      pop\n      pop\n      jump\t// out\n        /* \"contracts/Booking.sol\":3676:3752  function incrementReservationID() private {... */\n    tag_99:\n        /* \"contracts/Booking.sol\":3729:3742  reservationID */\n      0x02\n      0x00\n        /* \"contracts/Booking.sol\":3729:3744  reservationID++ */\n      dup2\n      sload\n      dup1\n      swap3\n      swap2\n      swap1\n      tag_164\n      swap1\n      tag_121\n      jump\t// in\n    tag_164:\n      swap2\n      swap1\n      pop\n      sstore\n      pop\n        /* \"contracts/Booking.sol\":3676:3752  function incrementReservationID() private {... */\n      jump\t// out\n    tag_129:\n      mload(0x40)\n      dup1\n      0x0100\n      add\n      0x40\n      mstore\n      dup1\n      0x00\n      dup2\n      mstore\n      0x20\n      add\n      0x60\n      dup2\n      mstore\n      0x20\n      add\n      0x00\n      dup2\n      mstore\n      0x20\n      add\n      0x00\n      dup2\n      mstore\n      0x20\n      add\n      0x00\n      dup2\n      mstore\n      0x20\n      add\n      iszero(iszero(0x00))\n      dup2\n      mstore\n      0x20\n      add\n      iszero(iszero(0x00))\n      dup2\n      mstore\n      0x20\n      add\n      iszero(iszero(0x00))\n      dup2\n      mstore\n      pop\n      swap1\n      jump\t// out\n    tag_148:\n      mload(0x40)\n      dup1\n      0x0120\n      add\n      0x40\n      mstore\n      dup1\n      0x00\n      dup2\n      mstore\n      0x20\n      add\n      0x60\n      dup2\n      mstore\n      0x20\n      add\n      0x60\n      dup2\n      mstore\n      0x20\n      add\n      0x00\n      0x02\n      dup2\n      gt\n      iszero\n      tag_165\n      jumpi\n      tag_166\n      tag_47\n      jump\t// in\n    tag_166:\n    tag_165:\n      dup2\n      mstore\n      0x20\n      add\n      0x60\n      dup2\n      mstore\n      0x20\n      add\n      0x60\n      dup2\n      mstore\n      0x20\n      add\n      0x60\n      dup2\n      mstore\n      0x20\n      add\n      0x00\n      dup2\n      mstore\n      0x20\n      add\n      iszero(iszero(0x00))\n      dup2\n      mstore\n      pop\n      swap1\n      jump\t// out\n        /* \"#utility.yul\":7:84   */\n    tag_167:\n        /* \"#utility.yul\":44:51   */\n      0x00\n        /* \"#utility.yul\":73:78   */\n      dup2\n        /* \"#utility.yul\":62:78   */\n      swap1\n      pop\n        /* \"#utility.yul\":7:84   */\n      swap2\n      swap1\n      pop\n      jump\t// out\n        /* \"#utility.yul\":90:208   */\n    tag_168:\n        /* \"#utility.yul\":177:201   */\n      tag_228\n        /* \"#utility.yul\":195:200   */\n      dup2\n        /* \"#utility.yul\":177:201   */\n      tag_167\n      jump\t// in\n    tag_228:\n        /* \"#utility.yul\":172:175   */\n      dup3\n        /* \"#utility.yul\":165:202   */\n      mstore\n        /* \"#utility.yul\":90:208   */\n      pop\n      pop\n      jump\t// out\n        /* \"#utility.yul\":214:436   */\n    tag_9:\n        /* \"#utility.yul\":307:311   */\n      0x00\n        /* \"#utility.yul\":345:347   */\n      0x20\n        /* \"#utility.yul\":334:343   */\n      dup3\n        /* \"#utility.yul\":330:348   */\n      add\n        /* \"#utility.yul\":322:348   */\n      swap1\n      pop\n        /* \"#utility.yul\":358:429   */\n      tag_230\n        /* \"#utility.yul\":426:427   */\n      0x00\n        /* \"#utility.yul\":415:424   */\n      dup4\n        /* \"#utility.yul\":411:428   */\n      add\n        /* \"#utility.yul\":402:408   */\n      dup5\n        /* \"#utility.yul\":358:429   */\n      tag_168\n      jump\t// in\n    tag_230:\n        /* \"#utility.yul\":214:436   */\n      swap3\n      swap2\n      pop\n      pop\n      jump\t// out\n        /* \"#utility.yul\":442:583   */\n    tag_169:\n        /* \"#utility.yul\":536:542   */\n      0x00\n        /* \"#utility.yul\":570:575   */\n      dup2\n        /* \"#utility.yul\":564:576   */\n      mload\n        /* \"#utility.yul\":554:576   */\n      swap1\n      pop\n        /* \"#utility.yul\":442:583   */\n      swap2\n      swap1\n      pop\n      jump\t// out\n        /* \"#utility.yul\":589:800   */\n    tag_170:\n        /* \"#utility.yul\":715:726   */\n      0x00\n        /* \"#utility.yul\":749:755   */\n      dup3\n        /* \"#utility.yul\":744:747   */\n      dup3\n        /* \"#utility.yul\":737:756   */\n      mstore\n        /* \"#utility.yul\":789:793   */\n      0x20\n        /* \"#utility.yul\":784:787   */\n      dup3\n        /* \"#utility.yul\":780:794   */\n      add\n        /* \"#utility.yul\":765:794   */\n      swap1\n      pop\n        /* \"#utility.yul\":589:800   */\n      swap3\n      swap2\n      pop\n      pop\n      jump\t// out\n        /* \"#utility.yul\":806:965   */\n    tag_171:\n        /* \"#utility.yul\":900:904   */\n      0x00\n        /* \"#utility.yul\":923:926   */\n      dup2\n        /* \"#utility.yul\":915:926   */\n      swap1\n      pop\n        /* \"#utility.yul\":953:957   */\n      0x20\n        /* \"#utility.yul\":948:951   */\n      dup3\n        /* \"#utility.yul\":944:958   */\n      add\n        /* \"#utility.yul\":936:958   */\n      swap1\n      pop\n        /* \"#utility.yul\":806:965   */\n      swap2\n      swap1\n      pop\n      jump\t// out\n        /* \"#utility.yul\":971:1079   */\n    tag_172:\n        /* \"#utility.yul\":1048:1072   */\n      tag_235\n        /* \"#utility.yul\":1066:1071   */\n      dup2\n        /* \"#utility.yul\":1048:1072   */\n      tag_167\n      jump\t// in\n    tag_235:\n        /* \"#utility.yul\":1043:1046   */\n      dup3\n        /* \"#utility.yul\":1036:1073   */\n      mstore\n        /* \"#utility.yul\":971:1079   */\n      pop\n      pop\n      jump\t// out\n        /* \"#utility.yul\":1085:1184   */\n    tag_173:\n        /* \"#utility.yul\":1137:1143   */\n      0x00\n        /* \"#utility.yul\":1171:1176   */\n      dup2\n        /* \"#utility.yul\":1165:1177   */\n      mload\n        /* \"#utility.yul\":1155:1177   */\n      swap1\n      pop\n        /* \"#utility.yul\":1085:1184   */\n      swap2\n      swap1\n      pop\n      jump\t// out\n        /* \"#utility.yul\":1190:1349   */\n    tag_174:\n        /* \"#utility.yul\":1264:1275   */\n      0x00\n        /* \"#utility.yul\":1298:1304   */\n      dup3\n        /* \"#utility.yul\":1293:1296   */\n      dup3\n        /* \"#utility.yul\":1286:1305   */\n      mstore\n        /* \"#utility.yul\":1338:1342   */\n      0x20\n        /* \"#utility.yul\":1333:1336   */\n      dup3\n        /* \"#utility.yul\":1329:1343   */\n      add\n        /* \"#utility.yul\":1314:1343   */\n      swap1\n      pop\n        /* \"#utility.yul\":1190:1349   */\n      swap3\n      swap2\n      pop\n      pop\n      jump\t// out\n        /* \"#utility.yul\":1355:1601   */\n    tag_175:\n        /* \"#utility.yul\":1436:1437   */\n      0x00\n        /* \"#utility.yul\":1446:1559   */\n    tag_239:\n        /* \"#utility.yul\":1460:1466   */\n      dup4\n        /* \"#utility.yul\":1457:1458   */\n      dup2\n        /* \"#utility.yul\":1454:1467   */\n      lt\n        /* \"#utility.yul\":1446:1559   */\n      iszero\n      tag_241\n      jumpi\n        /* \"#utility.yul\":1545:1546   */\n      dup1\n        /* \"#utility.yul\":1540:1543   */\n      dup3\n        /* \"#utility.yul\":1536:1547   */\n      add\n        /* \"#utility.yul\":1530:1548   */\n      mload\n        /* \"#utility.yul\":1526:1527   */\n      dup2\n        /* \"#utility.yul\":1521:1524   */\n      dup5\n        /* \"#utility.yul\":1517:1528   */\n      add\n        /* \"#utility.yul\":1510:1549   */\n      mstore\n        /* \"#utility.yul\":1482:1484   */\n      0x20\n        /* \"#utility.yul\":1479:1480   */\n      dup2\n        /* \"#utility.yul\":1475:1485   */\n      add\n        /* \"#utility.yul\":1470:1485   */\n      swap1\n      pop\n        /* \"#utility.yul\":1446:1559   */\n      jump(tag_239)\n    tag_241:\n        /* \"#utility.yul\":1593:1594   */\n      0x00\n        /* \"#utility.yul\":1584:1590   */\n      dup5\n        /* \"#utility.yul\":1579:1582   */\n      dup5\n        /* \"#utility.yul\":1575:1591   */\n      add\n        /* \"#utility.yul\":1568:1595   */\n      mstore\n        /* \"#utility.yul\":1417:1601   */\n      pop\n        /* \"#utility.yul\":1355:1601   */\n      pop\n      pop\n      pop\n      jump\t// out\n        /* \"#utility.yul\":1607:1709   */\n    tag_176:\n        /* \"#utility.yul\":1648:1654   */\n      0x00\n        /* \"#utility.yul\":1699:1701   */\n      0x1f\n        /* \"#utility.yul\":1695:1702   */\n      not\n        /* \"#utility.yul\":1690:1692   */\n      0x1f\n        /* \"#utility.yul\":1683:1688   */\n      dup4\n        /* \"#utility.yul\":1679:1693   */\n      add\n        /* \"#utility.yul\":1675:1703   */\n      and\n        /* \"#utility.yul\":1665:1703   */\n      swap1\n      pop\n        /* \"#utility.yul\":1607:1709   */\n      swap2\n      swap1\n      pop\n      jump\t// out\n        /* \"#utility.yul\":1715:2072   */\n    tag_177:\n        /* \"#utility.yul\":1793:1796   */\n      0x00\n        /* \"#utility.yul\":1821:1860   */\n      tag_244\n        /* \"#utility.yul\":1854:1859   */\n      dup3\n        /* \"#utility.yul\":1821:1860   */\n      tag_173\n      jump\t// in\n    tag_244:\n        /* \"#utility.yul\":1876:1937   */\n      tag_245\n        /* \"#utility.yul\":1930:1936   */\n      dup2\n        /* \"#utility.yul\":1925:1928   */\n      dup6\n        /* \"#utility.yul\":1876:1937   */\n      tag_174\n      jump\t// in\n    tag_245:\n        /* \"#utility.yul\":1869:1937   */\n      swap4\n      pop\n        /* \"#utility.yul\":1946:2011   */\n      tag_246\n        /* \"#utility.yul\":2004:2010   */\n      dup2\n        /* \"#utility.yul\":1999:2002   */\n      dup6\n        /* \"#utility.yul\":1992:1996   */\n      0x20\n        /* \"#utility.yul\":1985:1990   */\n      dup7\n        /* \"#utility.yul\":1981:1997   */\n      add\n        /* \"#utility.yul\":1946:2011   */\n      tag_175\n      jump\t// in\n    tag_246:\n        /* \"#utility.yul\":2036:2065   */\n      tag_247\n        /* \"#utility.yul\":2058:2064   */\n      dup2\n        /* \"#utility.yul\":2036:2065   */\n      tag_176\n      jump\t// in\n    tag_247:\n        /* \"#utility.yul\":2031:2034   */\n      dup5\n        /* \"#utility.yul\":2027:2066   */\n      add\n        /* \"#utility.yul\":2020:2066   */\n      swap2\n      pop\n        /* \"#utility.yul\":1797:2072   */\n      pop\n        /* \"#utility.yul\":1715:2072   */\n      swap3\n      swap2\n      pop\n      pop\n      jump\t// out\n        /* \"#utility.yul\":2078:2258   */\n    tag_47:\n        /* \"#utility.yul\":2126:2203   */\n      0x4e487b7100000000000000000000000000000000000000000000000000000000\n        /* \"#utility.yul\":2123:2124   */\n      0x00\n        /* \"#utility.yul\":2116:2204   */\n      mstore\n        /* \"#utility.yul\":2223:2227   */\n      0x21\n        /* \"#utility.yul\":2220:2221   */\n      0x04\n        /* \"#utility.yul\":2213:2228   */\n      mstore\n        /* \"#utility.yul\":2247:2251   */\n      0x24\n        /* \"#utility.yul\":2244:2245   */\n      0x00\n        /* \"#utility.yul\":2237:2252   */\n      revert\n        /* \"#utility.yul\":2264:2378   */\n    tag_178:\n        /* \"#utility.yul\":2346:2347   */\n      0x03\n        /* \"#utility.yul\":2339:2344   */\n      dup2\n        /* \"#utility.yul\":2336:2348   */\n      lt\n        /* \"#utility.yul\":2326:2372   */\n      tag_250\n      jumpi\n        /* \"#utility.yul\":2352:2370   */\n      tag_251\n      tag_47\n      jump\t// in\n    tag_251:\n        /* \"#utility.yul\":2326:2372   */\n    tag_250:\n        /* \"#utility.yul\":2264:2378   */\n      pop\n      jump\t// out\n        /* \"#utility.yul\":2384:2513   */\n    tag_179:\n        /* \"#utility.yul\":2430:2437   */\n      0x00\n        /* \"#utility.yul\":2459:2464   */\n      dup2\n        /* \"#utility.yul\":2448:2464   */\n      swap1\n      pop\n        /* \"#utility.yul\":2465:2507   */\n      tag_253\n        /* \"#utility.yul\":2501:2506   */\n      dup3\n        /* \"#utility.yul\":2465:2507   */\n      tag_178\n      jump\t// in\n    tag_253:\n        /* \"#utility.yul\":2384:2513   */\n      swap2\n      swap1\n      pop\n      jump\t// out\n        /* \"#utility.yul\":2519:2648   */\n    tag_180:\n        /* \"#utility.yul\":2576:2585   */\n      0x00\n        /* \"#utility.yul\":2609:2642   */\n      tag_255\n        /* \"#utility.yul\":2636:2641   */\n      dup3\n        /* \"#utility.yul\":2609:2642   */\n      tag_179\n      jump\t// in\n    tag_255:\n        /* \"#utility.yul\":2596:2642   */\n      swap1\n      pop\n        /* \"#utility.yul\":2519:2648   */\n      swap2\n      swap1\n      pop\n      jump\t// out\n        /* \"#utility.yul\":2654:2789   */\n    tag_181:\n        /* \"#utility.yul\":2738:2782   */\n      tag_257\n        /* \"#utility.yul\":2776:2781   */\n      dup2\n        /* \"#utility.yul\":2738:2782   */\n      tag_180\n      jump\t// in\n    tag_257:\n        /* \"#utility.yul\":2733:2736   */\n      dup3\n        /* \"#utility.yul\":2726:2783   */\n      mstore\n        /* \"#utility.yul\":2654:2789   */\n      pop\n      pop\n      jump\t// out\n        /* \"#utility.yul\":2795:2885   */\n    tag_182:\n        /* \"#utility.yul\":2829:2836   */\n      0x00\n        /* \"#utility.yul\":2872:2877   */\n      dup2\n        /* \"#utility.yul\":2865:2878   */\n      iszero\n        /* \"#utility.yul\":2858:2879   */\n      iszero\n        /* \"#utility.yul\":2847:2879   */\n      swap1\n      pop\n        /* \"#utility.yul\":2795:2885   */\n      swap2\n      swap1\n      pop\n      jump\t// out\n        /* \"#utility.yul\":2891:2990   */\n    tag_183:\n        /* \"#utility.yul\":2962:2983   */\n      tag_260\n        /* \"#utility.yul\":2977:2982   */\n      dup2\n        /* \"#utility.yul\":2962:2983   */\n      tag_182\n      jump\t// in\n    tag_260:\n        /* \"#utility.yul\":2957:2960   */\n      dup3\n        /* \"#utility.yul\":2950:2984   */\n      mstore\n        /* \"#utility.yul\":2891:2990   */\n      pop\n      pop\n      jump\t// out\n        /* \"#utility.yul\":3048:5165   */\n    tag_184:\n        /* \"#utility.yul\":3149:3152   */\n      0x00\n        /* \"#utility.yul\":3185:3191   */\n      0x0120\n        /* \"#utility.yul\":3180:3183   */\n      dup4\n        /* \"#utility.yul\":3176:3192   */\n      add\n        /* \"#utility.yul\":3272:3276   */\n      0x00\n        /* \"#utility.yul\":3265:3270   */\n      dup4\n        /* \"#utility.yul\":3261:3277   */\n      add\n        /* \"#utility.yul\":3255:3278   */\n      mload\n        /* \"#utility.yul\":3291:3354   */\n      tag_262\n        /* \"#utility.yul\":3348:3352   */\n      0x00\n        /* \"#utility.yul\":3343:3346   */\n      dup7\n        /* \"#utility.yul\":3339:3353   */\n      add\n        /* \"#utility.yul\":3325:3337   */\n      dup3\n        /* \"#utility.yul\":3291:3354   */\n      tag_172\n      jump\t// in\n    tag_262:\n        /* \"#utility.yul\":3202:3364   */\n      pop\n        /* \"#utility.yul\":3446:3450   */\n      0x20\n        /* \"#utility.yul\":3439:3444   */\n      dup4\n        /* \"#utility.yul\":3435:3451   */\n      add\n        /* \"#utility.yul\":3429:3452   */\n      mload\n        /* \"#utility.yul\":3499:3502   */\n      dup5\n        /* \"#utility.yul\":3493:3497   */\n      dup3\n        /* \"#utility.yul\":3489:3503   */\n      sub\n        /* \"#utility.yul\":3482:3486   */\n      0x20\n        /* \"#utility.yul\":3477:3480   */\n      dup7\n        /* \"#utility.yul\":3473:3487   */\n      add\n        /* \"#utility.yul\":3466:3504   */\n      mstore\n        /* \"#utility.yul\":3525:3598   */\n      tag_263\n        /* \"#utility.yul\":3593:3597   */\n      dup3\n        /* \"#utility.yul\":3579:3591   */\n      dup3\n        /* \"#utility.yul\":3525:3598   */\n      tag_177\n      jump\t// in\n    tag_263:\n        /* \"#utility.yul\":3517:3598   */\n      swap2\n      pop\n        /* \"#utility.yul\":3374:3609   */\n      pop\n        /* \"#utility.yul\":3691:3695   */\n      0x40\n        /* \"#utility.yul\":3684:3689   */\n      dup4\n        /* \"#utility.yul\":3680:3696   */\n      add\n        /* \"#utility.yul\":3674:3697   */\n      mload\n        /* \"#utility.yul\":3744:3747   */\n      dup5\n        /* \"#utility.yul\":3738:3742   */\n      dup3\n        /* \"#utility.yul\":3734:3748   */\n      sub\n        /* \"#utility.yul\":3727:3731   */\n      0x40\n        /* \"#utility.yul\":3722:3725   */\n      dup7\n        /* \"#utility.yul\":3718:3732   */\n      add\n        /* \"#utility.yul\":3711:3749   */\n      mstore\n        /* \"#utility.yul\":3770:3843   */\n      tag_264\n        /* \"#utility.yul\":3838:3842   */\n      dup3\n        /* \"#utility.yul\":3824:3836   */\n      dup3\n        /* \"#utility.yul\":3770:3843   */\n      tag_177\n      jump\t// in\n    tag_264:\n        /* \"#utility.yul\":3762:3843   */\n      swap2\n      pop\n        /* \"#utility.yul\":3619:3854   */\n      pop\n        /* \"#utility.yul\":3939:3943   */\n      0x60\n        /* \"#utility.yul\":3932:3937   */\n      dup4\n        /* \"#utility.yul\":3928:3944   */\n      add\n        /* \"#utility.yul\":3922:3945   */\n      mload\n        /* \"#utility.yul\":3958:4028   */\n      tag_265\n        /* \"#utility.yul\":4022:4026   */\n      0x60\n        /* \"#utility.yul\":4017:4020   */\n      dup7\n        /* \"#utility.yul\":4013:4027   */\n      add\n        /* \"#utility.yul\":3999:4011   */\n      dup3\n        /* \"#utility.yul\":3958:4028   */\n      tag_181\n      jump\t// in\n    tag_265:\n        /* \"#utility.yul\":3864:4038   */\n      pop\n        /* \"#utility.yul\":4122:4126   */\n      0x80\n        /* \"#utility.yul\":4115:4120   */\n      dup4\n        /* \"#utility.yul\":4111:4127   */\n      add\n        /* \"#utility.yul\":4105:4128   */\n      mload\n        /* \"#utility.yul\":4175:4178   */\n      dup5\n        /* \"#utility.yul\":4169:4173   */\n      dup3\n        /* \"#utility.yul\":4165:4179   */\n      sub\n        /* \"#utility.yul\":4158:4162   */\n      0x80\n        /* \"#utility.yul\":4153:4156   */\n      dup7\n        /* \"#utility.yul\":4149:4163   */\n      add\n        /* \"#utility.yul\":4142:4180   */\n      mstore\n        /* \"#utility.yul\":4201:4274   */\n      tag_266\n        /* \"#utility.yul\":4269:4273   */\n      dup3\n        /* \"#utility.yul\":4255:4267   */\n      dup3\n        /* \"#utility.yul\":4201:4274   */\n      tag_177\n      jump\t// in\n    tag_266:\n        /* \"#utility.yul\":4193:4274   */\n      swap2\n      pop\n        /* \"#utility.yul\":4048:4285   */\n      pop\n        /* \"#utility.yul\":4373:4377   */\n      0xa0\n        /* \"#utility.yul\":4366:4371   */\n      dup4\n        /* \"#utility.yul\":4362:4378   */\n      add\n        /* \"#utility.yul\":4356:4379   */\n      mload\n        /* \"#utility.yul\":4426:4429   */\n      dup5\n        /* \"#utility.yul\":4420:4424   */\n      dup3\n        /* \"#utility.yul\":4416:4430   */\n      sub\n        /* \"#utility.yul\":4409:4413   */\n      0xa0\n        /* \"#utility.yul\":4404:4407   */\n      dup7\n        /* \"#utility.yul\":4400:4414   */\n      add\n        /* \"#utility.yul\":4393:4431   */\n      mstore\n        /* \"#utility.yul\":4452:4525   */\n      tag_267\n        /* \"#utility.yul\":4520:4524   */\n      dup3\n        /* \"#utility.yul\":4506:4518   */\n      dup3\n        /* \"#utility.yul\":4452:4525   */\n      tag_177\n      jump\t// in\n    tag_267:\n        /* \"#utility.yul\":4444:4525   */\n      swap2\n      pop\n        /* \"#utility.yul\":4295:4536   */\n      pop\n        /* \"#utility.yul\":4625:4629   */\n      0xc0\n        /* \"#utility.yul\":4618:4623   */\n      dup4\n        /* \"#utility.yul\":4614:4630   */\n      add\n        /* \"#utility.yul\":4608:4631   */\n      mload\n        /* \"#utility.yul\":4678:4681   */\n      dup5\n        /* \"#utility.yul\":4672:4676   */\n      dup3\n        /* \"#utility.yul\":4668:4682   */\n      sub\n        /* \"#utility.yul\":4661:4665   */\n      0xc0\n        /* \"#utility.yul\":4656:4659   */\n      dup7\n        /* \"#utility.yul\":4652:4666   */\n      add\n        /* \"#utility.yul\":4645:4683   */\n      mstore\n        /* \"#utility.yul\":4704:4777   */\n      tag_268\n        /* \"#utility.yul\":4772:4776   */\n      dup3\n        /* \"#utility.yul\":4758:4770   */\n      dup3\n        /* \"#utility.yul\":4704:4777   */\n      tag_177\n      jump\t// in\n    tag_268:\n        /* \"#utility.yul\":4696:4777   */\n      swap2\n      pop\n        /* \"#utility.yul\":4546:4788   */\n      pop\n        /* \"#utility.yul\":4872:4876   */\n      0xe0\n        /* \"#utility.yul\":4865:4870   */\n      dup4\n        /* \"#utility.yul\":4861:4877   */\n      add\n        /* \"#utility.yul\":4855:4878   */\n      mload\n        /* \"#utility.yul\":4891:4954   */\n      tag_269\n        /* \"#utility.yul\":4948:4952   */\n      0xe0\n        /* \"#utility.yul\":4943:4946   */\n      dup7\n        /* \"#utility.yul\":4939:4953   */\n      add\n        /* \"#utility.yul\":4925:4937   */\n      dup3\n        /* \"#utility.yul\":4891:4954   */\n      tag_172\n      jump\t// in\n    tag_269:\n        /* \"#utility.yul\":4798:4964   */\n      pop\n        /* \"#utility.yul\":5048:5054   */\n      0x0100\n        /* \"#utility.yul\":5041:5046   */\n      dup4\n        /* \"#utility.yul\":5037:5055   */\n      add\n        /* \"#utility.yul\":5031:5056   */\n      mload\n        /* \"#utility.yul\":5069:5128   */\n      tag_270\n        /* \"#utility.yul\":5120:5126   */\n      0x0100\n        /* \"#utility.yul\":5115:5118   */\n      dup7\n        /* \"#utility.yul\":5111:5127   */\n      add\n        /* \"#utility.yul\":5097:5109   */\n      dup3\n        /* \"#utility.yul\":5069:5128   */\n      tag_183\n      jump\t// in\n    tag_270:\n        /* \"#utility.yul\":4974:5138   */\n      pop\n        /* \"#utility.yul\":5155:5159   */\n      dup1\n        /* \"#utility.yul\":5148:5159   */\n      swap2\n      pop\n        /* \"#utility.yul\":3154:5165   */\n      pop\n        /* \"#utility.yul\":3048:5165   */\n      swap3\n      swap2\n      pop\n      pop\n      jump\t// out\n        /* \"#utility.yul\":5221:6893   */\n    tag_185:\n        /* \"#utility.yul\":5320:5323   */\n      0x00\n        /* \"#utility.yul\":5356:5362   */\n      0x0100\n        /* \"#utility.yul\":5351:5354   */\n      dup4\n        /* \"#utility.yul\":5347:5363   */\n      add\n        /* \"#utility.yul\":5443:5447   */\n      0x00\n        /* \"#utility.yul\":5436:5441   */\n      dup4\n        /* \"#utility.yul\":5432:5448   */\n      add\n        /* \"#utility.yul\":5426:5449   */\n      mload\n        /* \"#utility.yul\":5462:5525   */\n      tag_272\n        /* \"#utility.yul\":5519:5523   */\n      0x00\n        /* \"#utility.yul\":5514:5517   */\n      dup7\n        /* \"#utility.yul\":5510:5524   */\n      add\n        /* \"#utility.yul\":5496:5508   */\n      dup3\n        /* \"#utility.yul\":5462:5525   */\n      tag_172\n      jump\t// in\n    tag_272:\n        /* \"#utility.yul\":5373:5535   */\n      pop\n        /* \"#utility.yul\":5617:5621   */\n      0x20\n        /* \"#utility.yul\":5610:5615   */\n      dup4\n        /* \"#utility.yul\":5606:5622   */\n      add\n        /* \"#utility.yul\":5600:5623   */\n      mload\n        /* \"#utility.yul\":5670:5673   */\n      dup5\n        /* \"#utility.yul\":5664:5668   */\n      dup3\n        /* \"#utility.yul\":5660:5674   */\n      sub\n        /* \"#utility.yul\":5653:5657   */\n      0x20\n        /* \"#utility.yul\":5648:5651   */\n      dup7\n        /* \"#utility.yul\":5644:5658   */\n      add\n        /* \"#utility.yul\":5637:5675   */\n      mstore\n        /* \"#utility.yul\":5696:5769   */\n      tag_273\n        /* \"#utility.yul\":5764:5768   */\n      dup3\n        /* \"#utility.yul\":5750:5762   */\n      dup3\n        /* \"#utility.yul\":5696:5769   */\n      tag_177\n      jump\t// in\n    tag_273:\n        /* \"#utility.yul\":5688:5769   */\n      swap2\n      pop\n        /* \"#utility.yul\":5545:5780   */\n      pop\n        /* \"#utility.yul\":5868:5872   */\n      0x40\n        /* \"#utility.yul\":5861:5866   */\n      dup4\n        /* \"#utility.yul\":5857:5873   */\n      add\n        /* \"#utility.yul\":5851:5874   */\n      mload\n        /* \"#utility.yul\":5887:5950   */\n      tag_274\n        /* \"#utility.yul\":5944:5948   */\n      0x40\n        /* \"#utility.yul\":5939:5942   */\n      dup7\n        /* \"#utility.yul\":5935:5949   */\n      add\n        /* \"#utility.yul\":5921:5933   */\n      dup3\n        /* \"#utility.yul\":5887:5950   */\n      tag_172\n      jump\t// in\n    tag_274:\n        /* \"#utility.yul\":5790:5960   */\n      pop\n        /* \"#utility.yul\":6057:6061   */\n      0x60\n        /* \"#utility.yul\":6050:6055   */\n      dup4\n        /* \"#utility.yul\":6046:6062   */\n      add\n        /* \"#utility.yul\":6040:6063   */\n      mload\n        /* \"#utility.yul\":6076:6139   */\n      tag_275\n        /* \"#utility.yul\":6133:6137   */\n      0x60\n        /* \"#utility.yul\":6128:6131   */\n      dup7\n        /* \"#utility.yul\":6124:6138   */\n      add\n        /* \"#utility.yul\":6110:6122   */\n      dup3\n        /* \"#utility.yul\":6076:6139   */\n      tag_172\n      jump\t// in\n    tag_275:\n        /* \"#utility.yul\":5970:6149   */\n      pop\n        /* \"#utility.yul\":6246:6250   */\n      0x80\n        /* \"#utility.yul\":6239:6244   */\n      dup4\n        /* \"#utility.yul\":6235:6251   */\n      add\n        /* \"#utility.yul\":6229:6252   */\n      mload\n        /* \"#utility.yul\":6265:6328   */\n      tag_276\n        /* \"#utility.yul\":6322:6326   */\n      0x80\n        /* \"#utility.yul\":6317:6320   */\n      dup7\n        /* \"#utility.yul\":6313:6327   */\n      add\n        /* \"#utility.yul\":6299:6311   */\n      dup3\n        /* \"#utility.yul\":6265:6328   */\n      tag_172\n      jump\t// in\n    tag_276:\n        /* \"#utility.yul\":6159:6338   */\n      pop\n        /* \"#utility.yul\":6423:6427   */\n      0xa0\n        /* \"#utility.yul\":6416:6421   */\n      dup4\n        /* \"#utility.yul\":6412:6428   */\n      add\n        /* \"#utility.yul\":6406:6429   */\n      mload\n        /* \"#utility.yul\":6442:6499   */\n      tag_277\n        /* \"#utility.yul\":6493:6497   */\n      0xa0\n        /* \"#utility.yul\":6488:6491   */\n      dup7\n        /* \"#utility.yul\":6484:6498   */\n      add\n        /* \"#utility.yul\":6470:6482   */\n      dup3\n        /* \"#utility.yul\":6442:6499   */\n      tag_183\n      jump\t// in\n    tag_277:\n        /* \"#utility.yul\":6348:6509   */\n      pop\n        /* \"#utility.yul\":6605:6609   */\n      0xc0\n        /* \"#utility.yul\":6598:6603   */\n      dup4\n        /* \"#utility.yul\":6594:6610   */\n      add\n        /* \"#utility.yul\":6588:6611   */\n      mload\n        /* \"#utility.yul\":6624:6681   */\n      tag_278\n        /* \"#utility.yul\":6675:6679   */\n      0xc0\n        /* \"#utility.yul\":6670:6673   */\n      dup7\n        /* \"#utility.yul\":6666:6680   */\n      add\n        /* \"#utility.yul\":6652:6664   */\n      dup3\n        /* \"#utility.yul\":6624:6681   */\n      tag_183\n      jump\t// in\n    tag_278:\n        /* \"#utility.yul\":6519:6691   */\n      pop\n        /* \"#utility.yul\":6780:6784   */\n      0xe0\n        /* \"#utility.yul\":6773:6778   */\n      dup4\n        /* \"#utility.yul\":6769:6785   */\n      add\n        /* \"#utility.yul\":6763:6786   */\n      mload\n        /* \"#utility.yul\":6799:6856   */\n      tag_279\n        /* \"#utility.yul\":6850:6854   */\n      0xe0\n        /* \"#utility.yul\":6845:6848   */\n      dup7\n        /* \"#utility.yul\":6841:6855   */\n      add\n        /* \"#utility.yul\":6827:6839   */\n      dup3\n        /* \"#utility.yul\":6799:6856   */\n      tag_183\n      jump\t// in\n    tag_279:\n        /* \"#utility.yul\":6701:6866   */\n      pop\n        /* \"#utility.yul\":6883:6887   */\n      dup1\n        /* \"#utility.yul\":6876:6887   */\n      swap2\n      pop\n        /* \"#utility.yul\":5325:6893   */\n      pop\n        /* \"#utility.yul\":5221:6893   */\n      swap3\n      swap2\n      pop\n      pop\n      jump\t// out\n        /* \"#utility.yul\":6899:7025   */\n    tag_186:\n        /* \"#utility.yul\":6936:6943   */\n      0x00\n        /* \"#utility.yul\":6976:7018   */\n      0xffffffffffffffffffffffffffffffffffffffff\n        /* \"#utility.yul\":6969:6974   */\n      dup3\n        /* \"#utility.yul\":6965:7019   */\n      and\n        /* \"#utility.yul\":6954:7019   */\n      swap1\n      pop\n        /* \"#utility.yul\":6899:7025   */\n      swap2\n      swap1\n      pop\n      jump\t// out\n        /* \"#utility.yul\":7031:7127   */\n    tag_187:\n        /* \"#utility.yul\":7068:7075   */\n      0x00\n        /* \"#utility.yul\":7097:7121   */\n      tag_282\n        /* \"#utility.yul\":7115:7120   */\n      dup3\n        /* \"#utility.yul\":7097:7121   */\n      tag_186\n      jump\t// in\n    tag_282:\n        /* \"#utility.yul\":7086:7121   */\n      swap1\n      pop\n        /* \"#utility.yul\":7031:7127   */\n      swap2\n      swap1\n      pop\n      jump\t// out\n        /* \"#utility.yul\":7133:7241   */\n    tag_188:\n        /* \"#utility.yul\":7210:7234   */\n      tag_284\n        /* \"#utility.yul\":7228:7233   */\n      dup2\n        /* \"#utility.yul\":7210:7234   */\n      tag_187\n      jump\t// in\n    tag_284:\n        /* \"#utility.yul\":7205:7208   */\n      dup3\n        /* \"#utility.yul\":7198:7235   */\n      mstore\n        /* \"#utility.yul\":7133:7241   */\n      pop\n      pop\n      jump\t// out\n        /* \"#utility.yul\":7311:9105   */\n    tag_189:\n        /* \"#utility.yul\":7424:7427   */\n      0x00\n        /* \"#utility.yul\":7460:7466   */\n      0x0100\n        /* \"#utility.yul\":7455:7458   */\n      dup4\n        /* \"#utility.yul\":7451:7467   */\n      add\n        /* \"#utility.yul\":7547:7551   */\n      0x00\n        /* \"#utility.yul\":7540:7545   */\n      dup4\n        /* \"#utility.yul\":7536:7552   */\n      add\n        /* \"#utility.yul\":7530:7553   */\n      mload\n        /* \"#utility.yul\":7566:7629   */\n      tag_286\n        /* \"#utility.yul\":7623:7627   */\n      0x00\n        /* \"#utility.yul\":7618:7621   */\n      dup7\n        /* \"#utility.yul\":7614:7628   */\n      add\n        /* \"#utility.yul\":7600:7612   */\n      dup3\n        /* \"#utility.yul\":7566:7629   */\n      tag_172\n      jump\t// in\n    tag_286:\n        /* \"#utility.yul\":7477:7639   */\n      pop\n        /* \"#utility.yul\":7722:7726   */\n      0x20\n        /* \"#utility.yul\":7715:7720   */\n      dup4\n        /* \"#utility.yul\":7711:7727   */\n      add\n        /* \"#utility.yul\":7705:7728   */\n      mload\n        /* \"#utility.yul\":7775:7778   */\n      dup5\n        /* \"#utility.yul\":7769:7773   */\n      dup3\n        /* \"#utility.yul\":7765:7779   */\n      sub\n        /* \"#utility.yul\":7758:7762   */\n      0x20\n        /* \"#utility.yul\":7753:7756   */\n      dup7\n        /* \"#utility.yul\":7749:7763   */\n      add\n        /* \"#utility.yul\":7742:7780   */\n      mstore\n        /* \"#utility.yul\":7801:7896   */\n      tag_287\n        /* \"#utility.yul\":7891:7895   */\n      dup3\n        /* \"#utility.yul\":7877:7889   */\n      dup3\n        /* \"#utility.yul\":7801:7896   */\n      tag_184\n      jump\t// in\n    tag_287:\n        /* \"#utility.yul\":7793:7896   */\n      swap2\n      pop\n        /* \"#utility.yul\":7649:7907   */\n      pop\n        /* \"#utility.yul\":7989:7993   */\n      0x40\n        /* \"#utility.yul\":7982:7987   */\n      dup4\n        /* \"#utility.yul\":7978:7994   */\n      add\n        /* \"#utility.yul\":7972:7995   */\n      mload\n        /* \"#utility.yul\":8042:8045   */\n      dup5\n        /* \"#utility.yul\":8036:8040   */\n      dup3\n        /* \"#utility.yul\":8032:8046   */\n      sub\n        /* \"#utility.yul\":8025:8029   */\n      0x40\n        /* \"#utility.yul\":8020:8023   */\n      dup7\n        /* \"#utility.yul\":8016:8030   */\n      add\n        /* \"#utility.yul\":8009:8047   */\n      mstore\n        /* \"#utility.yul\":8068:8161   */\n      tag_288\n        /* \"#utility.yul\":8156:8160   */\n      dup3\n        /* \"#utility.yul\":8142:8154   */\n      dup3\n        /* \"#utility.yul\":8068:8161   */\n      tag_185\n      jump\t// in\n    tag_288:\n        /* \"#utility.yul\":8060:8161   */\n      swap2\n      pop\n        /* \"#utility.yul\":7917:8172   */\n      pop\n        /* \"#utility.yul\":8256:8260   */\n      0x60\n        /* \"#utility.yul\":8249:8254   */\n      dup4\n        /* \"#utility.yul\":8245:8261   */\n      add\n        /* \"#utility.yul\":8239:8262   */\n      mload\n        /* \"#utility.yul\":8275:8338   */\n      tag_289\n        /* \"#utility.yul\":8332:8336   */\n      0x60\n        /* \"#utility.yul\":8327:8330   */\n      dup7\n        /* \"#utility.yul\":8323:8337   */\n      add\n        /* \"#utility.yul\":8309:8321   */\n      dup3\n        /* \"#utility.yul\":8275:8338   */\n      tag_188\n      jump\t// in\n    tag_289:\n        /* \"#utility.yul\":8182:8348   */\n      pop\n        /* \"#utility.yul\":8431:8435   */\n      0x80\n        /* \"#utility.yul\":8424:8429   */\n      dup4\n        /* \"#utility.yul\":8420:8436   */\n      add\n        /* \"#utility.yul\":8414:8437   */\n      mload\n        /* \"#utility.yul\":8450:8513   */\n      tag_290\n        /* \"#utility.yul\":8507:8511   */\n      0x80\n        /* \"#utility.yul\":8502:8505   */\n      dup7\n        /* \"#utility.yul\":8498:8512   */\n      add\n        /* \"#utility.yul\":8484:8496   */\n      dup3\n        /* \"#utility.yul\":8450:8513   */\n      tag_172\n      jump\t// in\n    tag_290:\n        /* \"#utility.yul\":8358:8523   */\n      pop\n        /* \"#utility.yul\":8630:8634   */\n      0xa0\n        /* \"#utility.yul\":8623:8628   */\n      dup4\n        /* \"#utility.yul\":8619:8635   */\n      add\n        /* \"#utility.yul\":8613:8636   */\n      mload\n        /* \"#utility.yul\":8649:8712   */\n      tag_291\n        /* \"#utility.yul\":8706:8710   */\n      0xa0\n        /* \"#utility.yul\":8701:8704   */\n      dup7\n        /* \"#utility.yul\":8697:8711   */\n      add\n        /* \"#utility.yul\":8683:8695   */\n      dup3\n        /* \"#utility.yul\":8649:8712   */\n      tag_172\n      jump\t// in\n    tag_291:\n        /* \"#utility.yul\":8533:8722   */\n      pop\n        /* \"#utility.yul\":8809:8813   */\n      0xc0\n        /* \"#utility.yul\":8802:8807   */\n      dup4\n        /* \"#utility.yul\":8798:8814   */\n      add\n        /* \"#utility.yul\":8792:8815   */\n      mload\n        /* \"#utility.yul\":8828:8891   */\n      tag_292\n        /* \"#utility.yul\":8885:8889   */\n      0xc0\n        /* \"#utility.yul\":8880:8883   */\n      dup7\n        /* \"#utility.yul\":8876:8890   */\n      add\n        /* \"#utility.yul\":8862:8874   */\n      dup3\n        /* \"#utility.yul\":8828:8891   */\n      tag_172\n      jump\t// in\n    tag_292:\n        /* \"#utility.yul\":8732:8901   */\n      pop\n        /* \"#utility.yul\":8986:8990   */\n      0xe0\n        /* \"#utility.yul\":8979:8984   */\n      dup4\n        /* \"#utility.yul\":8975:8991   */\n      add\n        /* \"#utility.yul\":8969:8992   */\n      mload\n        /* \"#utility.yul\":9005:9068   */\n      tag_293\n        /* \"#utility.yul\":9062:9066   */\n      0xe0\n        /* \"#utility.yul\":9057:9060   */\n      dup7\n        /* \"#utility.yul\":9053:9067   */\n      add\n        /* \"#utility.yul\":9039:9051   */\n      dup3\n        /* \"#utility.yul\":9005:9068   */\n      tag_172\n      jump\t// in\n    tag_293:\n        /* \"#utility.yul\":8911:9078   */\n      pop\n        /* \"#utility.yul\":9095:9099   */\n      dup1\n        /* \"#utility.yul\":9088:9099   */\n      swap2\n      pop\n        /* \"#utility.yul\":7429:9105   */\n      pop\n        /* \"#utility.yul\":7311:9105   */\n      swap3\n      swap2\n      pop\n      pop\n      jump\t// out\n        /* \"#utility.yul\":9111:9375   */\n    tag_190:\n        /* \"#utility.yul\":9234:9244   */\n      0x00\n        /* \"#utility.yul\":9269:9369   */\n      tag_295\n        /* \"#utility.yul\":9365:9368   */\n      dup4\n        /* \"#utility.yul\":9357:9363   */\n      dup4\n        /* \"#utility.yul\":9269:9369   */\n      tag_189\n      jump\t// in\n    tag_295:\n        /* \"#utility.yul\":9255:9369   */\n      swap1\n      pop\n        /* \"#utility.yul\":9111:9375   */\n      swap3\n      swap2\n      pop\n      pop\n      jump\t// out\n        /* \"#utility.yul\":9381:9521   */\n    tag_191:\n        /* \"#utility.yul\":9478:9482   */\n      0x00\n        /* \"#utility.yul\":9510:9514   */\n      0x20\n        /* \"#utility.yul\":9505:9508   */\n      dup3\n        /* \"#utility.yul\":9501:9515   */\n      add\n        /* \"#utility.yul\":9493:9515   */\n      swap1\n      pop\n        /* \"#utility.yul\":9381:9521   */\n      swap2\n      swap1\n      pop\n      jump\t// out\n        /* \"#utility.yul\":9595:10722   */\n    tag_192:\n        /* \"#utility.yul\":9768:9771   */\n      0x00\n        /* \"#utility.yul\":9797:9878   */\n      tag_298\n        /* \"#utility.yul\":9872:9877   */\n      dup3\n        /* \"#utility.yul\":9797:9878   */\n      tag_169\n      jump\t// in\n    tag_298:\n        /* \"#utility.yul\":9894:10007   */\n      tag_299\n        /* \"#utility.yul\":10000:10006   */\n      dup2\n        /* \"#utility.yul\":9995:9998   */\n      dup6\n        /* \"#utility.yul\":9894:10007   */\n      tag_170\n      jump\t// in\n    tag_299:\n        /* \"#utility.yul\":9887:10007   */\n      swap4\n      pop\n        /* \"#utility.yul\":10033:10036   */\n      dup4\n        /* \"#utility.yul\":10078:10082   */\n      0x20\n        /* \"#utility.yul\":10070:10076   */\n      dup3\n        /* \"#utility.yul\":10066:10083   */\n      mul\n        /* \"#utility.yul\":10061:10064   */\n      dup6\n        /* \"#utility.yul\":10057:10084   */\n      add\n        /* \"#utility.yul\":10108:10191   */\n      tag_300\n        /* \"#utility.yul\":10185:10190   */\n      dup6\n        /* \"#utility.yul\":10108:10191   */\n      tag_171\n      jump\t// in\n    tag_300:\n        /* \"#utility.yul\":10214:10221   */\n      dup1\n        /* \"#utility.yul\":10245:10246   */\n      0x00\n        /* \"#utility.yul\":10230:10677   */\n    tag_301:\n        /* \"#utility.yul\":10255:10261   */\n      dup6\n        /* \"#utility.yul\":10252:10253   */\n      dup2\n        /* \"#utility.yul\":10249:10262   */\n      lt\n        /* \"#utility.yul\":10230:10677   */\n      iszero\n      tag_303\n      jumpi\n        /* \"#utility.yul\":10326:10335   */\n      dup5\n        /* \"#utility.yul\":10320:10324   */\n      dup5\n        /* \"#utility.yul\":10316:10336   */\n      sub\n        /* \"#utility.yul\":10311:10314   */\n      dup10\n        /* \"#utility.yul\":10304:10337   */\n      mstore\n        /* \"#utility.yul\":10377:10383   */\n      dup2\n        /* \"#utility.yul\":10371:10384   */\n      mload\n        /* \"#utility.yul\":10405:10523   */\n      tag_304\n        /* \"#utility.yul\":10518:10522   */\n      dup6\n        /* \"#utility.yul\":10503:10516   */\n      dup3\n        /* \"#utility.yul\":10405:10523   */\n      tag_190\n      jump\t// in\n    tag_304:\n        /* \"#utility.yul\":10397:10523   */\n      swap5\n      pop\n        /* \"#utility.yul\":10546:10633   */\n      tag_305\n        /* \"#utility.yul\":10626:10632   */\n      dup4\n        /* \"#utility.yul\":10546:10633   */\n      tag_191\n      jump\t// in\n    tag_305:\n        /* \"#utility.yul\":10536:10633   */\n      swap3\n      pop\n        /* \"#utility.yul\":10662:10666   */\n      0x20\n        /* \"#utility.yul\":10657:10660   */\n      dup11\n        /* \"#utility.yul\":10653:10667   */\n      add\n        /* \"#utility.yul\":10646:10667   */\n      swap10\n      pop\n        /* \"#utility.yul\":10290:10677   */\n      pop\n        /* \"#utility.yul\":10277:10278   */\n      0x01\n        /* \"#utility.yul\":10274:10275   */\n      dup2\n        /* \"#utility.yul\":10270:10279   */\n      add\n        /* \"#utility.yul\":10265:10279   */\n      swap1\n      pop\n        /* \"#utility.yul\":10230:10677   */\n      jump(tag_301)\n    tag_303:\n        /* \"#utility.yul\":10234:10248   */\n      pop\n        /* \"#utility.yul\":10693:10697   */\n      dup3\n        /* \"#utility.yul\":10686:10697   */\n      swap8\n      pop\n        /* \"#utility.yul\":10713:10716   */\n      dup8\n        /* \"#utility.yul\":10706:10716   */\n      swap6\n      pop\n        /* \"#utility.yul\":9773:10722   */\n      pop\n      pop\n      pop\n      pop\n      pop\n        /* \"#utility.yul\":9595:10722   */\n      swap3\n      swap2\n      pop\n      pop\n      jump\t// out\n        /* \"#utility.yul\":10728:11209   */\n    tag_14:\n        /* \"#utility.yul\":10925:10929   */\n      0x00\n        /* \"#utility.yul\":10963:10965   */\n      0x20\n        /* \"#utility.yul\":10952:10961   */\n      dup3\n        /* \"#utility.yul\":10948:10966   */\n      add\n        /* \"#utility.yul\":10940:10966   */\n      swap1\n      pop\n        /* \"#utility.yul\":11012:11021   */\n      dup2\n        /* \"#utility.yul\":11006:11010   */\n      dup2\n        /* \"#utility.yul\":11002:11022   */\n      sub\n        /* \"#utility.yul\":10998:10999   */\n      0x00\n        /* \"#utility.yul\":10987:10996   */\n      dup4\n        /* \"#utility.yul\":10983:11000   */\n      add\n        /* \"#utility.yul\":10976:11023   */\n      mstore\n        /* \"#utility.yul\":11040:11202   */\n      tag_307\n        /* \"#utility.yul\":11197:11201   */\n      dup2\n        /* \"#utility.yul\":11188:11194   */\n      dup5\n        /* \"#utility.yul\":11040:11202   */\n      tag_192\n      jump\t// in\n    tag_307:\n        /* \"#utility.yul\":11032:11202   */\n      swap1\n      pop\n        /* \"#utility.yul\":10728:11209   */\n      swap3\n      swap2\n      pop\n      pop\n      jump\t// out\n        /* \"#utility.yul\":11296:11413   */\n    tag_194:\n        /* \"#utility.yul\":11405:11406   */\n      0x00\n        /* \"#utility.yul\":11402:11403   */\n      dup1\n        /* \"#utility.yul\":11395:11407   */\n      revert\n        /* \"#utility.yul\":11542:11664   */\n    tag_196:\n        /* \"#utility.yul\":11615:11639   */\n      tag_312\n        /* \"#utility.yul\":11633:11638   */\n      dup2\n        /* \"#utility.yul\":11615:11639   */\n      tag_167\n      jump\t// in\n    tag_312:\n        /* \"#utility.yul\":11608:11613   */\n      dup2\n        /* \"#utility.yul\":11605:11640   */\n      eq\n        /* \"#utility.yul\":11595:11658   */\n      tag_313\n      jumpi\n        /* \"#utility.yul\":11654:11655   */\n      0x00\n        /* \"#utility.yul\":11651:11652   */\n      dup1\n        /* \"#utility.yul\":11644:11656   */\n      revert\n        /* \"#utility.yul\":11595:11658   */\n    tag_313:\n        /* \"#utility.yul\":11542:11664   */\n      pop\n      jump\t// out\n        /* \"#utility.yul\":11670:11809   */\n    tag_197:\n        /* \"#utility.yul\":11716:11721   */\n      0x00\n        /* \"#utility.yul\":11754:11760   */\n      dup2\n        /* \"#utility.yul\":11741:11761   */\n      calldataload\n        /* \"#utility.yul\":11732:11761   */\n      swap1\n      pop\n        /* \"#utility.yul\":11770:11803   */\n      tag_315\n        /* \"#utility.yul\":11797:11802   */\n      dup2\n        /* \"#utility.yul\":11770:11803   */\n      tag_196\n      jump\t// in\n    tag_315:\n        /* \"#utility.yul\":11670:11809   */\n      swap3\n      swap2\n      pop\n      pop\n      jump\t// out\n        /* \"#utility.yul\":11815:12434   */\n    tag_17:\n        /* \"#utility.yul\":11892:11898   */\n      0x00\n        /* \"#utility.yul\":11900:11906   */\n      dup1\n        /* \"#utility.yul\":11908:11914   */\n      0x00\n        /* \"#utility.yul\":11957:11959   */\n      0x60\n        /* \"#utility.yul\":11945:11954   */\n      dup5\n        /* \"#utility.yul\":11936:11943   */\n      dup7\n        /* \"#utility.yul\":11932:11955   */\n      sub\n        /* \"#utility.yul\":11928:11960   */\n      slt\n        /* \"#utility.yul\":11925:12044   */\n      iszero\n      tag_317\n      jumpi\n        /* \"#utility.yul\":11963:12042   */\n      tag_318\n      tag_194\n      jump\t// in\n    tag_318:\n        /* \"#utility.yul\":11925:12044   */\n    tag_317:\n        /* \"#utility.yul\":12083:12084   */\n      0x00\n        /* \"#utility.yul\":12108:12161   */\n      tag_319\n        /* \"#utility.yul\":12153:12160   */\n      dup7\n        /* \"#utility.yul\":12144:12150   */\n      dup3\n        /* \"#utility.yul\":12133:12142   */\n      dup8\n        /* \"#utility.yul\":12129:12151   */\n      add\n        /* \"#utility.yul\":12108:12161   */\n      tag_197\n      jump\t// in\n    tag_319:\n        /* \"#utility.yul\":12098:12161   */\n      swap4\n      pop\n        /* \"#utility.yul\":12054:12171   */\n      pop\n        /* \"#utility.yul\":12210:12212   */\n      0x20\n        /* \"#utility.yul\":12236:12289   */\n      tag_320\n        /* \"#utility.yul\":12281:12288   */\n      dup7\n        /* \"#utility.yul\":12272:12278   */\n      dup3\n        /* \"#utility.yul\":12261:12270   */\n      dup8\n        /* \"#utility.yul\":12257:12279   */\n      add\n        /* \"#utility.yul\":12236:12289   */\n      tag_197\n      jump\t// in\n    tag_320:\n        /* \"#utility.yul\":12226:12289   */\n      swap3\n      pop\n        /* \"#utility.yul\":12181:12299   */\n      pop\n        /* \"#utility.yul\":12338:12340   */\n      0x40\n        /* \"#utility.yul\":12364:12417   */\n      tag_321\n        /* \"#utility.yul\":12409:12416   */\n      dup7\n        /* \"#utility.yul\":12400:12406   */\n      dup3\n        /* \"#utility.yul\":12389:12398   */\n      dup8\n        /* \"#utility.yul\":12385:12407   */\n      add\n        /* \"#utility.yul\":12364:12417   */\n      tag_197\n      jump\t// in\n    tag_321:\n        /* \"#utility.yul\":12354:12417   */\n      swap2\n      pop\n        /* \"#utility.yul\":12309:12427   */\n      pop\n        /* \"#utility.yul\":11815:12434   */\n      swap3\n      pop\n      swap3\n      pop\n      swap3\n      jump\t// out\n        /* \"#utility.yul\":12440:12609   */\n    tag_198:\n        /* \"#utility.yul\":12524:12535   */\n      0x00\n        /* \"#utility.yul\":12558:12564   */\n      dup3\n        /* \"#utility.yul\":12553:12556   */\n      dup3\n        /* \"#utility.yul\":12546:12565   */\n      mstore\n        /* \"#utility.yul\":12598:12602   */\n      0x20\n        /* \"#utility.yul\":12593:12596   */\n      dup3\n        /* \"#utility.yul\":12589:12603   */\n      add\n        /* \"#utility.yul\":12574:12603   */\n      swap1\n      pop\n        /* \"#utility.yul\":12440:12609   */\n      swap3\n      swap2\n      pop\n      pop\n      jump\t// out\n        /* \"#utility.yul\":12615:12840   */\n    tag_199:\n        /* \"#utility.yul\":12755:12789   */\n      0x4f6e6c7920746178206f66666963652063616e2063616c6c2074686973206675\n        /* \"#utility.yul\":12751:12752   */\n      0x00\n        /* \"#utility.yul\":12743:12749   */\n      dup3\n        /* \"#utility.yul\":12739:12753   */\n      add\n        /* \"#utility.yul\":12732:12790   */\n      mstore\n        /* \"#utility.yul\":12824:12832   */\n      0x6e6374696f6e0000000000000000000000000000000000000000000000000000\n        /* \"#utility.yul\":12819:12821   */\n      0x20\n        /* \"#utility.yul\":12811:12817   */\n      dup3\n        /* \"#utility.yul\":12807:12822   */\n      add\n        /* \"#utility.yul\":12800:12833   */\n      mstore\n        /* \"#utility.yul\":12615:12840   */\n      pop\n      jump\t// out\n        /* \"#utility.yul\":12846:13212   */\n    tag_200:\n        /* \"#utility.yul\":12988:12991   */\n      0x00\n        /* \"#utility.yul\":13009:13076   */\n      tag_325\n        /* \"#utility.yul\":13073:13075   */\n      0x26\n        /* \"#utility.yul\":13068:13071   */\n      dup4\n        /* \"#utility.yul\":13009:13076   */\n      tag_198\n      jump\t// in\n    tag_325:\n        /* \"#utility.yul\":13002:13076   */\n      swap2\n      pop\n        /* \"#utility.yul\":13085:13178   */\n      tag_326\n        /* \"#utility.yul\":13174:13177   */\n      dup3\n        /* \"#utility.yul\":13085:13178   */\n      tag_199\n      jump\t// in\n    tag_326:\n        /* \"#utility.yul\":13203:13205   */\n      0x40\n        /* \"#utility.yul\":13198:13201   */\n      dup3\n        /* \"#utility.yul\":13194:13206   */\n      add\n        /* \"#utility.yul\":13187:13206   */\n      swap1\n      pop\n        /* \"#utility.yul\":12846:13212   */\n      swap2\n      swap1\n      pop\n      jump\t// out\n        /* \"#utility.yul\":13218:13637   */\n    tag_22:\n        /* \"#utility.yul\":13384:13388   */\n      0x00\n        /* \"#utility.yul\":13422:13424   */\n      0x20\n        /* \"#utility.yul\":13411:13420   */\n      dup3\n        /* \"#utility.yul\":13407:13425   */\n      add\n        /* \"#utility.yul\":13399:13425   */\n      swap1\n      pop\n        /* \"#utility.yul\":13471:13480   */\n      dup2\n        /* \"#utility.yul\":13465:13469   */\n      dup2\n        /* \"#utility.yul\":13461:13481   */\n      sub\n        /* \"#utility.yul\":13457:13458   */\n      0x00\n        /* \"#utility.yul\":13446:13455   */\n      dup4\n        /* \"#utility.yul\":13442:13459   */\n      add\n        /* \"#utility.yul\":13435:13482   */\n      mstore\n        /* \"#utility.yul\":13499:13630   */\n      tag_328\n        /* \"#utility.yul\":13625:13629   */\n      dup2\n        /* \"#utility.yul\":13499:13630   */\n      tag_200\n      jump\t// in\n    tag_328:\n        /* \"#utility.yul\":13491:13630   */\n      swap1\n      pop\n        /* \"#utility.yul\":13218:13637   */\n      swap2\n      swap1\n      pop\n      jump\t// out\n        /* \"#utility.yul\":13643:13823   */\n    tag_201:\n        /* \"#utility.yul\":13691:13768   */\n      0x4e487b7100000000000000000000000000000000000000000000000000000000\n        /* \"#utility.yul\":13688:13689   */\n      0x00\n        /* \"#utility.yul\":13681:13769   */\n      mstore\n        /* \"#utility.yul\":13788:13792   */\n      0x11\n        /* \"#utility.yul\":13785:13786   */\n      0x04\n        /* \"#utility.yul\":13778:13793   */\n      mstore\n        /* \"#utility.yul\":13812:13816   */\n      0x24\n        /* \"#utility.yul\":13809:13810   */\n      0x00\n        /* \"#utility.yul\":13802:13817   */\n      revert\n        /* \"#utility.yul\":13829:14239   */\n    tag_27:\n        /* \"#utility.yul\":13869:13876   */\n      0x00\n        /* \"#utility.yul\":13892:13912   */\n      tag_331\n        /* \"#utility.yul\":13910:13911   */\n      dup3\n        /* \"#utility.yul\":13892:13912   */\n      tag_167\n      jump\t// in\n    tag_331:\n        /* \"#utility.yul\":13887:13912   */\n      swap2\n      pop\n        /* \"#utility.yul\":13926:13946   */\n      tag_332\n        /* \"#utility.yul\":13944:13945   */\n      dup4\n        /* \"#utility.yul\":13926:13946   */\n      tag_167\n      jump\t// in\n    tag_332:\n        /* \"#utility.yul\":13921:13946   */\n      swap3\n      pop\n        /* \"#utility.yul\":13981:13982   */\n      dup3\n        /* \"#utility.yul\":13978:13979   */\n      dup3\n        /* \"#utility.yul\":13974:13983   */\n      mul\n        /* \"#utility.yul\":14003:14033   */\n      tag_333\n        /* \"#utility.yul\":14021:14032   */\n      dup2\n        /* \"#utility.yul\":14003:14033   */\n      tag_167\n      jump\t// in\n    tag_333:\n        /* \"#utility.yul\":13992:14033   */\n      swap2\n      pop\n        /* \"#utility.yul\":14182:14183   */\n      dup3\n        /* \"#utility.yul\":14173:14180   */\n      dup3\n        /* \"#utility.yul\":14169:14184   */\n      div\n        /* \"#utility.yul\":14166:14167   */\n      dup5\n        /* \"#utility.yul\":14163:14185   */\n      eq\n        /* \"#utility.yul\":14143:14144   */\n      dup4\n        /* \"#utility.yul\":14136:14145   */\n      iszero\n        /* \"#utility.yul\":14116:14199   */\n      or\n        /* \"#utility.yul\":14093:14232   */\n      tag_334\n      jumpi\n        /* \"#utility.yul\":14212:14230   */\n      tag_335\n      tag_201\n      jump\t// in\n    tag_335:\n        /* \"#utility.yul\":14093:14232   */\n    tag_334:\n        /* \"#utility.yul\":13877:14239   */\n      pop\n        /* \"#utility.yul\":13829:14239   */\n      swap3\n      swap2\n      pop\n      pop\n      jump\t// out\n        /* \"#utility.yul\":14245:14425   */\n    tag_202:\n        /* \"#utility.yul\":14293:14370   */\n      0x4e487b7100000000000000000000000000000000000000000000000000000000\n        /* \"#utility.yul\":14290:14291   */\n      0x00\n        /* \"#utility.yul\":14283:14371   */\n      mstore\n        /* \"#utility.yul\":14390:14394   */\n      0x12\n        /* \"#utility.yul\":14387:14388   */\n      0x04\n        /* \"#utility.yul\":14380:14395   */\n      mstore\n        /* \"#utility.yul\":14414:14418   */\n      0x24\n        /* \"#utility.yul\":14411:14412   */\n      0x00\n        /* \"#utility.yul\":14404:14419   */\n      revert\n        /* \"#utility.yul\":14431:14616   */\n    tag_29:\n        /* \"#utility.yul\":14471:14472   */\n      0x00\n        /* \"#utility.yul\":14488:14508   */\n      tag_338\n        /* \"#utility.yul\":14506:14507   */\n      dup3\n        /* \"#utility.yul\":14488:14508   */\n      tag_167\n      jump\t// in\n    tag_338:\n        /* \"#utility.yul\":14483:14508   */\n      swap2\n      pop\n        /* \"#utility.yul\":14522:14542   */\n      tag_339\n        /* \"#utility.yul\":14540:14541   */\n      dup4\n        /* \"#utility.yul\":14522:14542   */\n      tag_167\n      jump\t// in\n    tag_339:\n        /* \"#utility.yul\":14517:14542   */\n      swap3\n      pop\n        /* \"#utility.yul\":14561:14562   */\n      dup3\n        /* \"#utility.yul\":14551:14586   */\n      tag_340\n      jumpi\n        /* \"#utility.yul\":14566:14584   */\n      tag_341\n      tag_202\n      jump\t// in\n    tag_341:\n        /* \"#utility.yul\":14551:14586   */\n    tag_340:\n        /* \"#utility.yul\":14608:14609   */\n      dup3\n        /* \"#utility.yul\":14605:14606   */\n      dup3\n        /* \"#utility.yul\":14601:14610   */\n      div\n        /* \"#utility.yul\":14596:14610   */\n      swap1\n      pop\n        /* \"#utility.yul\":14431:14616   */\n      swap3\n      swap2\n      pop\n      pop\n      jump\t// out\n        /* \"#utility.yul\":14622:14802   */\n    tag_203:\n        /* \"#utility.yul\":14670:14747   */\n      0x4e487b7100000000000000000000000000000000000000000000000000000000\n        /* \"#utility.yul\":14667:14668   */\n      0x00\n        /* \"#utility.yul\":14660:14748   */\n      mstore\n        /* \"#utility.yul\":14767:14771   */\n      0x22\n        /* \"#utility.yul\":14764:14765   */\n      0x04\n        /* \"#utility.yul\":14757:14772   */\n      mstore\n        /* \"#utility.yul\":14791:14795   */\n      0x24\n        /* \"#utility.yul\":14788:14789   */\n      0x00\n        /* \"#utility.yul\":14781:14796   */\n      revert\n        /* \"#utility.yul\":14808:15128   */\n    tag_35:\n        /* \"#utility.yul\":14852:14858   */\n      0x00\n        /* \"#utility.yul\":14889:14890   */\n      0x02\n        /* \"#utility.yul\":14883:14887   */\n      dup3\n        /* \"#utility.yul\":14879:14891   */\n      div\n        /* \"#utility.yul\":14869:14891   */\n      swap1\n      pop\n        /* \"#utility.yul\":14936:14937   */\n      0x01\n        /* \"#utility.yul\":14930:14934   */\n      dup3\n        /* \"#utility.yul\":14926:14938   */\n      and\n        /* \"#utility.yul\":14957:14975   */\n      dup1\n        /* \"#utility.yul\":14947:15028   */\n      tag_344\n      jumpi\n        /* \"#utility.yul\":15013:15017   */\n      0x7f\n        /* \"#utility.yul\":15005:15011   */\n      dup3\n        /* \"#utility.yul\":15001:15018   */\n      and\n        /* \"#utility.yul\":14991:15018   */\n      swap2\n      pop\n        /* \"#utility.yul\":14947:15028   */\n    tag_344:\n        /* \"#utility.yul\":15075:15077   */\n      0x20\n        /* \"#utility.yul\":15067:15073   */\n      dup3\n        /* \"#utility.yul\":15064:15078   */\n      lt\n        /* \"#utility.yul\":15044:15062   */\n      dup2\n        /* \"#utility.yul\":15041:15079   */\n      sub\n        /* \"#utility.yul\":15038:15122   */\n      tag_345\n      jumpi\n        /* \"#utility.yul\":15094:15112   */\n      tag_346\n      tag_203\n      jump\t// in\n    tag_346:\n        /* \"#utility.yul\":15038:15122   */\n    tag_345:\n        /* \"#utility.yul\":14859:15128   */\n      pop\n        /* \"#utility.yul\":14808:15128   */\n      swap2\n      swap1\n      pop\n      jump\t// out\n        /* \"#utility.yul\":15134:15299   */\n    tag_204:\n        /* \"#utility.yul\":15274:15291   */\n      0x496e76616c696420726f6f6d2049440000000000000000000000000000000000\n        /* \"#utility.yul\":15270:15271   */\n      0x00\n        /* \"#utility.yul\":15262:15268   */\n      dup3\n        /* \"#utility.yul\":15258:15272   */\n      add\n        /* \"#utility.yul\":15251:15292   */\n      mstore\n        /* \"#utility.yul\":15134:15299   */\n      pop\n      jump\t// out\n        /* \"#utility.yul\":15305:15671   */\n    tag_205:\n        /* \"#utility.yul\":15447:15450   */\n      0x00\n        /* \"#utility.yul\":15468:15535   */\n      tag_349\n        /* \"#utility.yul\":15532:15534   */\n      0x0f\n        /* \"#utility.yul\":15527:15530   */\n      dup4\n        /* \"#utility.yul\":15468:15535   */\n      tag_198\n      jump\t// in\n    tag_349:\n        /* \"#utility.yul\":15461:15535   */\n      swap2\n      pop\n        /* \"#utility.yul\":15544:15637   */\n      tag_350\n        /* \"#utility.yul\":15633:15636   */\n      dup3\n        /* \"#utility.yul\":15544:15637   */\n      tag_204\n      jump\t// in\n    tag_350:\n        /* \"#utility.yul\":15662:15664   */\n      0x20\n        /* \"#utility.yul\":15657:15660   */\n      dup3\n        /* \"#utility.yul\":15653:15665   */\n      add\n        /* \"#utility.yul\":15646:15665   */\n      swap1\n      pop\n        /* \"#utility.yul\":15305:15671   */\n      swap2\n      swap1\n      pop\n      jump\t// out\n        /* \"#utility.yul\":15677:16096   */\n    tag_76:\n        /* \"#utility.yul\":15843:15847   */\n      0x00\n        /* \"#utility.yul\":15881:15883   */\n      0x20\n        /* \"#utility.yul\":15870:15879   */\n      dup3\n        /* \"#utility.yul\":15866:15884   */\n      add\n        /* \"#utility.yul\":15858:15884   */\n      swap1\n      pop\n        /* \"#utility.yul\":15930:15939   */\n      dup2\n        /* \"#utility.yul\":15924:15928   */\n      dup2\n        /* \"#utility.yul\":15920:15940   */\n      sub\n        /* \"#utility.yul\":15916:15917   */\n      0x00\n        /* \"#utility.yul\":15905:15914   */\n      dup4\n        /* \"#utility.yul\":15901:15918   */\n      add\n        /* \"#utility.yul\":15894:15941   */\n      mstore\n        /* \"#utility.yul\":15958:16089   */\n      tag_352\n        /* \"#utility.yul\":16084:16088   */\n      dup2\n        /* \"#utility.yul\":15958:16089   */\n      tag_205\n      jump\t// in\n    tag_352:\n        /* \"#utility.yul\":15950:16089   */\n      swap1\n      pop\n        /* \"#utility.yul\":15677:16096   */\n      swap2\n      swap1\n      pop\n      jump\t// out\n        /* \"#utility.yul\":16102:16268   */\n    tag_206:\n        /* \"#utility.yul\":16242:16260   */\n      0x496e76616c696420686f74656c20494400000000000000000000000000000000\n        /* \"#utility.yul\":16238:16239   */\n      0x00\n        /* \"#utility.yul\":16230:16236   */\n      dup3\n        /* \"#utility.yul\":16226:16240   */\n      add\n        /* \"#utility.yul\":16219:16261   */\n      mstore\n        /* \"#utility.yul\":16102:16268   */\n      pop\n      jump\t// out\n        /* \"#utility.yul\":16274:16640   */\n    tag_207:\n        /* \"#utility.yul\":16416:16419   */\n      0x00\n        /* \"#utility.yul\":16437:16504   */\n      tag_355\n        /* \"#utility.yul\":16501:16503   */\n      0x10\n        /* \"#utility.yul\":16496:16499   */\n      dup4\n        /* \"#utility.yul\":16437:16504   */\n      tag_198\n      jump\t// in\n    tag_355:\n        /* \"#utility.yul\":16430:16504   */\n      swap2\n      pop\n        /* \"#utility.yul\":16513:16606   */\n      tag_356\n        /* \"#utility.yul\":16602:16605   */\n      dup3\n        /* \"#utility.yul\":16513:16606   */\n      tag_206\n      jump\t// in\n    tag_356:\n        /* \"#utility.yul\":16631:16633   */\n      0x20\n        /* \"#utility.yul\":16626:16629   */\n      dup3\n        /* \"#utility.yul\":16622:16634   */\n      add\n        /* \"#utility.yul\":16615:16634   */\n      swap1\n      pop\n        /* \"#utility.yul\":16274:16640   */\n      swap2\n      swap1\n      pop\n      jump\t// out\n        /* \"#utility.yul\":16646:17065   */\n    tag_82:\n        /* \"#utility.yul\":16812:16816   */\n      0x00\n        /* \"#utility.yul\":16850:16852   */\n      0x20\n        /* \"#utility.yul\":16839:16848   */\n      dup3\n        /* \"#utility.yul\":16835:16853   */\n      add\n        /* \"#utility.yul\":16827:16853   */\n      swap1\n      pop\n        /* \"#utility.yul\":16899:16908   */\n      dup2\n        /* \"#utility.yul\":16893:16897   */\n      dup2\n        /* \"#utility.yul\":16889:16909   */\n      sub\n        /* \"#utility.yul\":16885:16886   */\n      0x00\n        /* \"#utility.yul\":16874:16883   */\n      dup4\n        /* \"#utility.yul\":16870:16887   */\n      add\n        /* \"#utility.yul\":16863:16910   */\n      mstore\n        /* \"#utility.yul\":16927:17058   */\n      tag_358\n        /* \"#utility.yul\":17053:17057   */\n      dup2\n        /* \"#utility.yul\":16927:17058   */\n      tag_207\n      jump\t// in\n    tag_358:\n        /* \"#utility.yul\":16919:17058   */\n      swap1\n      pop\n        /* \"#utility.yul\":16646:17065   */\n      swap2\n      swap1\n      pop\n      jump\t// out\n        /* \"#utility.yul\":17071:17318   */\n    tag_208:\n        /* \"#utility.yul\":17211:17245   */\n      0x546f74616c206e756d626572206f662064617973206f6620726f6f6d2072656e\n        /* \"#utility.yul\":17207:17208   */\n      0x00\n        /* \"#utility.yul\":17199:17205   */\n      dup3\n        /* \"#utility.yul\":17195:17209   */\n      add\n        /* \"#utility.yul\":17188:17246   */\n      mstore\n        /* \"#utility.yul\":17280:17310   */\n      0x74616c2073686f756c642062652067726561746572207468616e203000000000\n        /* \"#utility.yul\":17275:17277   */\n      0x20\n        /* \"#utility.yul\":17267:17273   */\n      dup3\n        /* \"#utility.yul\":17263:17278   */\n      add\n        /* \"#utility.yul\":17256:17311   */\n      mstore\n        /* \"#utility.yul\":17071:17318   */\n      pop\n      jump\t// out\n        /* \"#utility.yul\":17324:17690   */\n    tag_209:\n        /* \"#utility.yul\":17466:17469   */\n      0x00\n        /* \"#utility.yul\":17487:17554   */\n      tag_361\n        /* \"#utility.yul\":17551:17553   */\n      0x3c\n        /* \"#utility.yul\":17546:17549   */\n      dup4\n        /* \"#utility.yul\":17487:17554   */\n      tag_198\n      jump\t// in\n    tag_361:\n        /* \"#utility.yul\":17480:17554   */\n      swap2\n      pop\n        /* \"#utility.yul\":17563:17656   */\n      tag_362\n        /* \"#utility.yul\":17652:17655   */\n      dup3\n        /* \"#utility.yul\":17563:17656   */\n      tag_208\n      jump\t// in\n    tag_362:\n        /* \"#utility.yul\":17681:17683   */\n      0x40\n        /* \"#utility.yul\":17676:17679   */\n      dup3\n        /* \"#utility.yul\":17672:17684   */\n      add\n        /* \"#utility.yul\":17665:17684   */\n      swap1\n      pop\n        /* \"#utility.yul\":17324:17690   */\n      swap2\n      swap1\n      pop\n      jump\t// out\n        /* \"#utility.yul\":17696:18115   */\n    tag_85:\n        /* \"#utility.yul\":17862:17866   */\n      0x00\n        /* \"#utility.yul\":17900:17902   */\n      0x20\n        /* \"#utility.yul\":17889:17898   */\n      dup3\n        /* \"#utility.yul\":17885:17903   */\n      add\n        /* \"#utility.yul\":17877:17903   */\n      swap1\n      pop\n        /* \"#utility.yul\":17949:17958   */\n      dup2\n        /* \"#utility.yul\":17943:17947   */\n      dup2\n        /* \"#utility.yul\":17939:17959   */\n      sub\n        /* \"#utility.yul\":17935:17936   */\n      0x00\n        /* \"#utility.yul\":17924:17933   */\n      dup4\n        /* \"#utility.yul\":17920:17937   */\n      add\n        /* \"#utility.yul\":17913:17960   */\n      mstore\n        /* \"#utility.yul\":17977:18108   */\n      tag_364\n        /* \"#utility.yul\":18103:18107   */\n      dup2\n        /* \"#utility.yul\":17977:18108   */\n      tag_209\n      jump\t// in\n    tag_364:\n        /* \"#utility.yul\":17969:18108   */\n      swap1\n      pop\n        /* \"#utility.yul\":17696:18115   */\n      swap2\n      swap1\n      pop\n      jump\t// out\n        /* \"#utility.yul\":18121:18315   */\n    tag_88:\n        /* \"#utility.yul\":18161:18165   */\n      0x00\n        /* \"#utility.yul\":18181:18201   */\n      tag_366\n        /* \"#utility.yul\":18199:18200   */\n      dup3\n        /* \"#utility.yul\":18181:18201   */\n      tag_167\n      jump\t// in\n    tag_366:\n        /* \"#utility.yul\":18176:18201   */\n      swap2\n      pop\n        /* \"#utility.yul\":18215:18235   */\n      tag_367\n        /* \"#utility.yul\":18233:18234   */\n      dup4\n        /* \"#utility.yul\":18215:18235   */\n      tag_167\n      jump\t// in\n    tag_367:\n        /* \"#utility.yul\":18210:18235   */\n      swap3\n      pop\n        /* \"#utility.yul\":18259:18260   */\n      dup3\n        /* \"#utility.yul\":18256:18257   */\n      dup3\n        /* \"#utility.yul\":18252:18261   */\n      sub\n        /* \"#utility.yul\":18244:18261   */\n      swap1\n      pop\n        /* \"#utility.yul\":18283:18284   */\n      dup2\n        /* \"#utility.yul\":18277:18281   */\n      dup2\n        /* \"#utility.yul\":18274:18285   */\n      gt\n        /* \"#utility.yul\":18271:18308   */\n      iszero\n      tag_368\n      jumpi\n        /* \"#utility.yul\":18288:18306   */\n      tag_369\n      tag_201\n      jump\t// in\n    tag_369:\n        /* \"#utility.yul\":18271:18308   */\n    tag_368:\n        /* \"#utility.yul\":18121:18315   */\n      swap3\n      swap2\n      pop\n      pop\n      jump\t// out\n        /* \"#utility.yul\":18321:18501   */\n    tag_91:\n        /* \"#utility.yul\":18369:18446   */\n      0x4e487b7100000000000000000000000000000000000000000000000000000000\n        /* \"#utility.yul\":18366:18367   */\n      0x00\n        /* \"#utility.yul\":18359:18447   */\n      mstore\n        /* \"#utility.yul\":18466:18470   */\n      0x32\n        /* \"#utility.yul\":18463:18464   */\n      0x04\n        /* \"#utility.yul\":18456:18471   */\n      mstore\n        /* \"#utility.yul\":18490:18494   */\n      0x24\n        /* \"#utility.yul\":18487:18488   */\n      0x00\n        /* \"#utility.yul\":18480:18495   */\n      revert\n        /* \"#utility.yul\":18507:18698   */\n    tag_101:\n        /* \"#utility.yul\":18547:18550   */\n      0x00\n        /* \"#utility.yul\":18566:18586   */\n      tag_372\n        /* \"#utility.yul\":18584:18585   */\n      dup3\n        /* \"#utility.yul\":18566:18586   */\n      tag_167\n      jump\t// in\n    tag_372:\n        /* \"#utility.yul\":18561:18586   */\n      swap2\n      pop\n        /* \"#utility.yul\":18600:18620   */\n      tag_373\n        /* \"#utility.yul\":18618:18619   */\n      dup4\n        /* \"#utility.yul\":18600:18620   */\n      tag_167\n      jump\t// in\n    tag_373:\n        /* \"#utility.yul\":18595:18620   */\n      swap3\n      pop\n        /* \"#utility.yul\":18643:18644   */\n      dup3\n        /* \"#utility.yul\":18640:18641   */\n      dup3\n        /* \"#utility.yul\":18636:18645   */\n      add\n        /* \"#utility.yul\":18629:18645   */\n      swap1\n      pop\n        /* \"#utility.yul\":18664:18667   */\n      dup1\n        /* \"#utility.yul\":18661:18662   */\n      dup3\n        /* \"#utility.yul\":18658:18668   */\n      gt\n        /* \"#utility.yul\":18655:18691   */\n      iszero\n      tag_374\n      jumpi\n        /* \"#utility.yul\":18671:18689   */\n      tag_375\n      tag_201\n      jump\t// in\n    tag_375:\n        /* \"#utility.yul\":18655:18691   */\n    tag_374:\n        /* \"#utility.yul\":18507:18698   */\n      swap3\n      swap2\n      pop\n      pop\n      jump\t// out\n        /* \"#utility.yul\":18704:18884   */\n    tag_125:\n        /* \"#utility.yul\":18752:18829   */\n      0x4e487b7100000000000000000000000000000000000000000000000000000000\n        /* \"#utility.yul\":18749:18750   */\n      0x00\n        /* \"#utility.yul\":18742:18830   */\n      mstore\n        /* \"#utility.yul\":18849:18853   */\n      0x41\n        /* \"#utility.yul\":18846:18847   */\n      0x04\n        /* \"#utility.yul\":18839:18854   */\n      mstore\n        /* \"#utility.yul\":18873:18877   */\n      0x24\n        /* \"#utility.yul\":18870:18871   */\n      0x00\n        /* \"#utility.yul\":18863:18878   */\n      revert\n        /* \"#utility.yul\":18890:19031   */\n    tag_210:\n        /* \"#utility.yul\":18939:18943   */\n      0x00\n        /* \"#utility.yul\":18962:18965   */\n      dup2\n        /* \"#utility.yul\":18954:18965   */\n      swap1\n      pop\n        /* \"#utility.yul\":18985:18988   */\n      dup2\n        /* \"#utility.yul\":18982:18983   */\n      0x00\n        /* \"#utility.yul\":18975:18989   */\n      mstore\n        /* \"#utility.yul\":19019:19023   */\n      0x20\n        /* \"#utility.yul\":19016:19017   */\n      0x00\n        /* \"#utility.yul\":19006:19024   */\n      keccak256\n        /* \"#utility.yul\":18998:19024   */\n      swap1\n      pop\n        /* \"#utility.yul\":18890:19031   */\n      swap2\n      swap1\n      pop\n      jump\t// out\n        /* \"#utility.yul\":19037:19130   */\n    tag_211:\n        /* \"#utility.yul\":19074:19080   */\n      0x00\n        /* \"#utility.yul\":19121:19123   */\n      0x20\n        /* \"#utility.yul\":19116:19118   */\n      0x1f\n        /* \"#utility.yul\":19109:19114   */\n      dup4\n        /* \"#utility.yul\":19105:19119   */\n      add\n        /* \"#utility.yul\":19101:19124   */\n      div\n        /* \"#utility.yul\":19091:19124   */\n      swap1\n      pop\n        /* \"#utility.yul\":19037:19130   */\n      swap2\n      swap1\n      pop\n      jump\t// out\n        /* \"#utility.yul\":19136:19243   */\n    tag_212:\n        /* \"#utility.yul\":19180:19188   */\n      0x00\n        /* \"#utility.yul\":19230:19235   */\n      dup3\n        /* \"#utility.yul\":19224:19228   */\n      dup3\n        /* \"#utility.yul\":19220:19236   */\n      shl\n        /* \"#utility.yul\":19199:19236   */\n      swap1\n      pop\n        /* \"#utility.yul\":19136:19243   */\n      swap3\n      swap2\n      pop\n      pop\n      jump\t// out\n        /* \"#utility.yul\":19249:19642   */\n    tag_213:\n        /* \"#utility.yul\":19318:19324   */\n      0x00\n        /* \"#utility.yul\":19368:19369   */\n      0x08\n        /* \"#utility.yul\":19356:19366   */\n      dup4\n        /* \"#utility.yul\":19352:19370   */\n      mul\n        /* \"#utility.yul\":19391:19488   */\n      tag_381\n        /* \"#utility.yul\":19421:19487   */\n      0xffffffffffffffffffffffffffffffffffffffffffffffffffffffffffffffff\n        /* \"#utility.yul\":19410:19419   */\n      dup3\n        /* \"#utility.yul\":19391:19488   */\n      tag_212\n      jump\t// in\n    tag_381:\n        /* \"#utility.yul\":19509:19548   */\n      tag_382\n        /* \"#utility.yul\":19539:19547   */\n      dup7\n        /* \"#utility.yul\":19528:19537   */\n      dup4\n        /* \"#utility.yul\":19509:19548   */\n      tag_212\n      jump\t// in\n    tag_382:\n        /* \"#utility.yul\":19497:19548   */\n      swap6\n      pop\n        /* \"#utility.yul\":19581:19585   */\n      dup1\n        /* \"#utility.yul\":19577:19586   */\n      not\n        /* \"#utility.yul\":19570:19575   */\n      dup5\n        /* \"#utility.yul\":19566:19587   */\n      and\n        /* \"#utility.yul\":19557:19587   */\n      swap4\n      pop\n        /* \"#utility.yul\":19630:19634   */\n      dup1\n        /* \"#utility.yul\":19620:19628   */\n      dup7\n        /* \"#utility.yul\":19616:19635   */\n      and\n        /* \"#utility.yul\":19609:19614   */\n      dup5\n        /* \"#utility.yul\":19606:19636   */\n      or\n        /* \"#utility.yul\":19596:19636   */\n      swap3\n      pop\n        /* \"#utility.yul\":19325:19642   */\n      pop\n      pop\n        /* \"#utility.yul\":19249:19642   */\n      swap4\n      swap3\n      pop\n      pop\n      pop\n      jump\t// out\n        /* \"#utility.yul\":19648:19708   */\n    tag_214:\n        /* \"#utility.yul\":19676:19679   */\n      0x00\n        /* \"#utility.yul\":19697:19702   */\n      dup2\n        /* \"#utility.yul\":19690:19702   */\n      swap1\n      pop\n        /* \"#utility.yul\":19648:19708   */\n      swap2\n      swap1\n      pop\n      jump\t// out\n        /* \"#utility.yul\":19714:19856   */\n    tag_215:\n        /* \"#utility.yul\":19764:19773   */\n      0x00\n        /* \"#utility.yul\":19797:19850   */\n      tag_385\n        /* \"#utility.yul\":19815:19849   */\n      tag_386\n        /* \"#utility.yul\":19824:19848   */\n      tag_387\n        /* \"#utility.yul\":19842:19847   */\n      dup5\n        /* \"#utility.yul\":19824:19848   */\n      tag_167\n      jump\t// in\n    tag_387:\n        /* \"#utility.yul\":19815:19849   */\n      tag_214\n      jump\t// in\n    tag_386:\n        /* \"#utility.yul\":19797:19850   */\n      tag_167\n      jump\t// in\n    tag_385:\n        /* \"#utility.yul\":19784:19850   */\n      swap1\n      pop\n        /* \"#utility.yul\":19714:19856   */\n      swap2\n      swap1\n      pop\n      jump\t// out\n        /* \"#utility.yul\":19862:19937   */\n    tag_216:\n        /* \"#utility.yul\":19905:19908   */\n      0x00\n        /* \"#utility.yul\":19926:19931   */\n      dup2\n        /* \"#utility.yul\":19919:19931   */\n      swap1\n      pop\n        /* \"#utility.yul\":19862:19937   */\n      swap2\n      swap1\n      pop\n      jump\t// out\n        /* \"#utility.yul\":19943:20212   */\n    tag_217:\n        /* \"#utility.yul\":20053:20092   */\n      tag_390\n        /* \"#utility.yul\":20084:20091   */\n      dup4\n        /* \"#utility.yul\":20053:20092   */\n      tag_215\n      jump\t// in\n    tag_390:\n        /* \"#utility.yul\":20114:20205   */\n      tag_391\n        /* \"#utility.yul\":20163:20204   */\n      tag_392\n        /* \"#utility.yul\":20187:20203   */\n      dup3\n        /* \"#utility.yul\":20163:20204   */\n      tag_216\n      jump\t// in\n    tag_392:\n        /* \"#utility.yul\":20155:20161   */\n      dup5\n        /* \"#utility.yul\":20148:20152   */\n      dup5\n        /* \"#utility.yul\":20142:20153   */\n      sload\n        /* \"#utility.yul\":20114:20205   */\n      tag_213\n      jump\t// in\n    tag_391:\n        /* \"#utility.yul\":20108:20112   */\n      dup3\n        /* \"#utility.yul\":20101:20206   */\n      sstore\n        /* \"#utility.yul\":20019:20212   */\n      pop\n        /* \"#utility.yul\":19943:20212   */\n      pop\n      pop\n      pop\n      jump\t// out\n        /* \"#utility.yul\":20218:20291   */\n    tag_218:\n        /* \"#utility.yul\":20263:20266   */\n      0x00\n        /* \"#utility.yul\":20218:20291   */\n      swap1\n      jump\t// out\n        /* \"#utility.yul\":20297:20486   */\n    tag_219:\n        /* \"#utility.yul\":20374:20406   */\n      tag_395\n      tag_218\n      jump\t// in\n    tag_395:\n        /* \"#utility.yul\":20415:20480   */\n      tag_396\n        /* \"#utility.yul\":20473:20479   */\n      dup2\n        /* \"#utility.yul\":20465:20471   */\n      dup5\n        /* \"#utility.yul\":20459:20463   */\n      dup5\n        /* \"#utility.yul\":20415:20480   */\n      tag_217\n      jump\t// in\n    tag_396:\n        /* \"#utility.yul\":20350:20486   */\n      pop\n        /* \"#utility.yul\":20297:20486   */\n      pop\n      pop\n      jump\t// out\n        /* \"#utility.yul\":20492:20678   */\n    tag_220:\n        /* \"#utility.yul\":20552:20672   */\n    tag_398:\n        /* \"#utility.yul\":20569:20572   */\n      dup2\n        /* \"#utility.yul\":20562:20567   */\n      dup2\n        /* \"#utility.yul\":20559:20573   */\n      lt\n        /* \"#utility.yul\":20552:20672   */\n      iszero\n      tag_400\n      jumpi\n        /* \"#utility.yul\":20623:20662   */\n      tag_401\n        /* \"#utility.yul\":20660:20661   */\n      0x00\n        /* \"#utility.yul\":20653:20658   */\n      dup3\n        /* \"#utility.yul\":20623:20662   */\n      tag_219\n      jump\t// in\n    tag_401:\n        /* \"#utility.yul\":20596:20597   */\n      0x01\n        /* \"#utility.yul\":20589:20594   */\n      dup2\n        /* \"#utility.yul\":20585:20598   */\n      add\n        /* \"#utility.yul\":20576:20598   */\n      swap1\n      pop\n        /* \"#utility.yul\":20552:20672   */\n      jump(tag_398)\n    tag_400:\n        /* \"#utility.yul\":20492:20678   */\n      pop\n      pop\n      jump\t// out\n        /* \"#utility.yul\":20684:21227   */\n    tag_221:\n        /* \"#utility.yul\":20785:20787   */\n      0x1f\n        /* \"#utility.yul\":20780:20783   */\n      dup3\n        /* \"#utility.yul\":20777:20788   */\n      gt\n        /* \"#utility.yul\":20774:21220   */\n      iszero\n      tag_403\n      jumpi\n        /* \"#utility.yul\":20819:20857   */\n      tag_404\n        /* \"#utility.yul\":20851:20856   */\n      dup2\n        /* \"#utility.yul\":20819:20857   */\n      tag_210\n      jump\t// in\n    tag_404:\n        /* \"#utility.yul\":20903:20932   */\n      tag_405\n        /* \"#utility.yul\":20921:20931   */\n      dup5\n        /* \"#utility.yul\":20903:20932   */\n      tag_211\n      jump\t// in\n    tag_405:\n        /* \"#utility.yul\":20893:20901   */\n      dup2\n        /* \"#utility.yul\":20889:20933   */\n      add\n        /* \"#utility.yul\":21086:21088   */\n      0x20\n        /* \"#utility.yul\":21074:21084   */\n      dup6\n        /* \"#utility.yul\":21071:21089   */\n      lt\n        /* \"#utility.yul\":21068:21117   */\n      iszero\n      tag_406\n      jumpi\n        /* \"#utility.yul\":21107:21115   */\n      dup2\n        /* \"#utility.yul\":21092:21115   */\n      swap1\n      pop\n        /* \"#utility.yul\":21068:21117   */\n    tag_406:\n        /* \"#utility.yul\":21130:21210   */\n      tag_407\n        /* \"#utility.yul\":21186:21208   */\n      tag_408\n        /* \"#utility.yul\":21204:21207   */\n      dup6\n        /* \"#utility.yul\":21186:21208   */\n      tag_211\n      jump\t// in\n    tag_408:\n        /* \"#utility.yul\":21176:21184   */\n      dup4\n        /* \"#utility.yul\":21172:21209   */\n      add\n        /* \"#utility.yul\":21159:21170   */\n      dup3\n        /* \"#utility.yul\":21130:21210   */\n      tag_220\n      jump\t// in\n    tag_407:\n        /* \"#utility.yul\":20789:21220   */\n      pop\n      pop\n        /* \"#utility.yul\":20774:21220   */\n    tag_403:\n        /* \"#utility.yul\":20684:21227   */\n      pop\n      pop\n      pop\n      jump\t// out\n        /* \"#utility.yul\":21233:21350   */\n    tag_222:\n        /* \"#utility.yul\":21287:21295   */\n      0x00\n        /* \"#utility.yul\":21337:21342   */\n      dup3\n        /* \"#utility.yul\":21331:21335   */\n      dup3\n        /* \"#utility.yul\":21327:21343   */\n      shr\n        /* \"#utility.yul\":21306:21343   */\n      swap1\n      pop\n        /* \"#utility.yul\":21233:21350   */\n      swap3\n      swap2\n      pop\n      pop\n      jump\t// out\n        /* \"#utility.yul\":21356:21525   */\n    tag_223:\n        /* \"#utility.yul\":21400:21406   */\n      0x00\n        /* \"#utility.yul\":21433:21484   */\n      tag_411\n        /* \"#utility.yul\":21481:21482   */\n      0x00\n        /* \"#utility.yul\":21477:21483   */\n      not\n        /* \"#utility.yul\":21469:21474   */\n      dup5\n        /* \"#utility.yul\":21466:21467   */\n      0x08\n        /* \"#utility.yul\":21462:21475   */\n      mul\n        /* \"#utility.yul\":21433:21484   */\n      tag_222\n      jump\t// in\n    tag_411:\n        /* \"#utility.yul\":21429:21485   */\n      not\n        /* \"#utility.yul\":21514:21518   */\n      dup1\n        /* \"#utility.yul\":21508:21512   */\n      dup4\n        /* \"#utility.yul\":21504:21519   */\n      and\n        /* \"#utility.yul\":21494:21519   */\n      swap2\n      pop\n        /* \"#utility.yul\":21407:21525   */\n      pop\n        /* \"#utility.yul\":21356:21525   */\n      swap3\n      swap2\n      pop\n      pop\n      jump\t// out\n        /* \"#utility.yul\":21530:21825   */\n    tag_224:\n        /* \"#utility.yul\":21606:21610   */\n      0x00\n        /* \"#utility.yul\":21752:21781   */\n      tag_413\n        /* \"#utility.yul\":21777:21780   */\n      dup4\n        /* \"#utility.yul\":21771:21775   */\n      dup4\n        /* \"#utility.yul\":21752:21781   */\n      tag_223\n      jump\t// in\n    tag_413:\n        /* \"#utility.yul\":21744:21781   */\n      swap2\n      pop\n        /* \"#utility.yul\":21814:21817   */\n      dup3\n        /* \"#utility.yul\":21811:21812   */\n      0x02\n        /* \"#utility.yul\":21807:21818   */\n      mul\n        /* \"#utility.yul\":21801:21805   */\n      dup3\n        /* \"#utility.yul\":21798:21819   */\n      or\n        /* \"#utility.yul\":21790:21819   */\n      swap1\n      pop\n        /* \"#utility.yul\":21530:21825   */\n      swap3\n      swap2\n      pop\n      pop\n      jump\t// out\n        /* \"#utility.yul\":21830:23225   */\n    tag_104:\n        /* \"#utility.yul\":21947:21984   */\n      tag_415\n        /* \"#utility.yul\":21980:21983   */\n      dup3\n        /* \"#utility.yul\":21947:21984   */\n      tag_173\n      jump\t// in\n    tag_415:\n        /* \"#utility.yul\":22049:22067   */\n      0xffffffffffffffff\n        /* \"#utility.yul\":22041:22047   */\n      dup2\n        /* \"#utility.yul\":22038:22068   */\n      gt\n        /* \"#utility.yul\":22035:22091   */\n      iszero\n      tag_416\n      jumpi\n        /* \"#utility.yul\":22071:22089   */\n      tag_417\n      tag_125\n      jump\t// in\n    tag_417:\n        /* \"#utility.yul\":22035:22091   */\n    tag_416:\n        /* \"#utility.yul\":22115:22153   */\n      tag_418\n        /* \"#utility.yul\":22147:22151   */\n      dup3\n        /* \"#utility.yul\":22141:22152   */\n      sload\n        /* \"#utility.yul\":22115:22153   */\n      tag_35\n      jump\t// in\n    tag_418:\n        /* \"#utility.yul\":22200:22267   */\n      tag_419\n        /* \"#utility.yul\":22260:22266   */\n      dup3\n        /* \"#utility.yul\":22252:22258   */\n      dup3\n        /* \"#utility.yul\":22246:22250   */\n      dup6\n        /* \"#utility.yul\":22200:22267   */\n      tag_221\n      jump\t// in\n    tag_419:\n        /* \"#utility.yul\":22294:22295   */\n      0x00\n        /* \"#utility.yul\":22318:22322   */\n      0x20\n        /* \"#utility.yul\":22305:22322   */\n      swap1\n      pop\n        /* \"#utility.yul\":22350:22352   */\n      0x1f\n        /* \"#utility.yul\":22342:22348   */\n      dup4\n        /* \"#utility.yul\":22339:22353   */\n      gt\n        /* \"#utility.yul\":22367:22368   */\n      0x01\n        /* \"#utility.yul\":22362:22980   */\n      dup2\n      eq\n      tag_421\n      jumpi\n        /* \"#utility.yul\":23024:23025   */\n      0x00\n        /* \"#utility.yul\":23041:23047   */\n      dup5\n        /* \"#utility.yul\":23038:23115   */\n      iszero\n      tag_422\n      jumpi\n        /* \"#utility.yul\":23090:23099   */\n      dup3\n        /* \"#utility.yul\":23085:23088   */\n      dup8\n        /* \"#utility.yul\":23081:23100   */\n      add\n        /* \"#utility.yul\":23075:23101   */\n      mload\n        /* \"#utility.yul\":23066:23101   */\n      swap1\n      pop\n        /* \"#utility.yul\":23038:23115   */\n    tag_422:\n        /* \"#utility.yul\":23141:23208   */\n      tag_423\n        /* \"#utility.yul\":23201:23207   */\n      dup6\n        /* \"#utility.yul\":23194:23199   */\n      dup3\n        /* \"#utility.yul\":23141:23208   */\n      tag_224\n      jump\t// in\n    tag_423:\n        /* \"#utility.yul\":23135:23139   */\n      dup7\n        /* \"#utility.yul\":23128:23209   */\n      sstore\n        /* \"#utility.yul\":22997:23219   */\n      pop\n        /* \"#utility.yul\":22332:23219   */\n      jump(tag_420)\n        /* \"#utility.yul\":22362:22980   */\n    tag_421:\n        /* \"#utility.yul\":22414:22418   */\n      0x1f\n        /* \"#utility.yul\":22410:22419   */\n      not\n        /* \"#utility.yul\":22402:22408   */\n      dup5\n        /* \"#utility.yul\":22398:22420   */\n      and\n        /* \"#utility.yul\":22448:22485   */\n      tag_424\n        /* \"#utility.yul\":22480:22484   */\n      dup7\n        /* \"#utility.yul\":22448:22485   */\n      tag_210\n      jump\t// in\n    tag_424:\n        /* \"#utility.yul\":22507:22508   */\n      0x00\n        /* \"#utility.yul\":22521:22729   */\n    tag_425:\n        /* \"#utility.yul\":22535:22542   */\n      dup3\n        /* \"#utility.yul\":22532:22533   */\n      dup2\n        /* \"#utility.yul\":22529:22543   */\n      lt\n        /* \"#utility.yul\":22521:22729   */\n      iszero\n      tag_427\n      jumpi\n        /* \"#utility.yul\":22614:22623   */\n      dup5\n        /* \"#utility.yul\":22609:22612   */\n      dup10\n        /* \"#utility.yul\":22605:22624   */\n      add\n        /* \"#utility.yul\":22599:22625   */\n      mload\n        /* \"#utility.yul\":22591:22597   */\n      dup3\n        /* \"#utility.yul\":22584:22626   */\n      sstore\n        /* \"#utility.yul\":22665:22666   */\n      0x01\n        /* \"#utility.yul\":22657:22663   */\n      dup3\n        /* \"#utility.yul\":22653:22667   */\n      add\n        /* \"#utility.yul\":22643:22667   */\n      swap2\n      pop\n        /* \"#utility.yul\":22712:22714   */\n      0x20\n        /* \"#utility.yul\":22701:22710   */\n      dup6\n        /* \"#utility.yul\":22697:22715   */\n      add\n        /* \"#utility.yul\":22684:22715   */\n      swap5\n      pop\n        /* \"#utility.yul\":22558:22562   */\n      0x20\n        /* \"#utility.yul\":22555:22556   */\n      dup2\n        /* \"#utility.yul\":22551:22563   */\n      add\n        /* \"#utility.yul\":22546:22563   */\n      swap1\n      pop\n        /* \"#utility.yul\":22521:22729   */\n      jump(tag_425)\n    tag_427:\n        /* \"#utility.yul\":22757:22763   */\n      dup7\n        /* \"#utility.yul\":22748:22755   */\n      dup4\n        /* \"#utility.yul\":22745:22764   */\n      lt\n        /* \"#utility.yul\":22742:22921   */\n      iszero\n      tag_428\n      jumpi\n        /* \"#utility.yul\":22815:22824   */\n      dup5\n        /* \"#utility.yul\":22810:22813   */\n      dup10\n        /* \"#utility.yul\":22806:22825   */\n      add\n        /* \"#utility.yul\":22800:22826   */\n      mload\n        /* \"#utility.yul\":22858:22906   */\n      tag_429\n        /* \"#utility.yul\":22900:22904   */\n      0x1f\n        /* \"#utility.yul\":22892:22898   */\n      dup10\n        /* \"#utility.yul\":22888:22905   */\n      and\n        /* \"#utility.yul\":22877:22886   */\n      dup3\n        /* \"#utility.yul\":22858:22906   */\n      tag_223\n      jump\t// in\n    tag_429:\n        /* \"#utility.yul\":22850:22856   */\n      dup4\n        /* \"#utility.yul\":22843:22907   */\n      sstore\n        /* \"#utility.yul\":22765:22921   */\n      pop\n        /* \"#utility.yul\":22742:22921   */\n    tag_428:\n        /* \"#utility.yul\":22967:22968   */\n      0x01\n        /* \"#utility.yul\":22963:22964   */\n      0x02\n        /* \"#utility.yul\":22955:22961   */\n      dup9\n        /* \"#utility.yul\":22951:22965   */\n      mul\n        /* \"#utility.yul\":22947:22969   */\n      add\n        /* \"#utility.yul\":22941:22945   */\n      dup9\n        /* \"#utility.yul\":22934:22970   */\n      sstore\n        /* \"#utility.yul\":22369:22980   */\n      pop\n      pop\n      pop\n        /* \"#utility.yul\":22332:23219   */\n    tag_420:\n      pop\n        /* \"#utility.yul\":21922:23225   */\n      pop\n      pop\n      pop\n        /* \"#utility.yul\":21830:23225   */\n      pop\n      pop\n      jump\t// out\n        /* \"#utility.yul\":23231:23464   */\n    tag_121:\n        /* \"#utility.yul\":23270:23273   */\n      0x00\n        /* \"#utility.yul\":23293:23317   */\n      tag_431\n        /* \"#utility.yul\":23311:23316   */\n      dup3\n        /* \"#utility.yul\":23293:23317   */\n      tag_167\n      jump\t// in\n    tag_431:\n        /* \"#utility.yul\":23284:23317   */\n      swap2\n      pop\n        /* \"#utility.yul\":23339:23405   */\n      0xffffffffffffffffffffffffffffffffffffffffffffffffffffffffffffffff\n        /* \"#utility.yul\":23332:23337   */\n      dup3\n        /* \"#utility.yul\":23329:23406   */\n      sub\n        /* \"#utility.yul\":23326:23429   */\n      tag_432\n      jumpi\n        /* \"#utility.yul\":23409:23427   */\n      tag_433\n      tag_201\n      jump\t// in\n    tag_433:\n        /* \"#utility.yul\":23326:23429   */\n    tag_432:\n        /* \"#utility.yul\":23456:23457   */\n      0x01\n        /* \"#utility.yul\":23449:23454   */\n      dup3\n        /* \"#utility.yul\":23445:23458   */\n      add\n        /* \"#utility.yul\":23438:23458   */\n      swap1\n      pop\n        /* \"#utility.yul\":23231:23464   */\n      swap2\n      swap1\n      pop\n      jump\t// out\n\n    auxdata: 0xa2646970667358221220070339c44f3674365409a3c500094b9a724f75026b3d37646b2b04b32711231164736f6c63430008120033\n}\n",
				"bytecode": {
					"linkReferences": {},
					"object": "60806040523480156200001157600080fd5b506040516200227d3803806200227d8339818101604052810190620000379190620000f0565b6000600281905550806000806101000a81548173ffffffffffffffffffffffffffffffffffffffff021916908373ffffffffffffffffffffffffffffffffffffffff1602179055505062000122565b600080fd5b600073ffffffffffffffffffffffffffffffffffffffff82169050919050565b6000620000b8826200008b565b9050919050565b620000ca81620000ab565b8114620000d657600080fd5b50565b600081519050620000ea81620000bf565b92915050565b60006020828403121562000109576200010862000086565b5b60006200011984828501620000d9565b91505092915050565b61214b80620001326000396000f3fe6080604052600436106100345760003560e01c80632973ef2d146100395780639c200b8814610064578063a97606e81461008f575b600080fd5b34801561004557600080fd5b5061004e6100ab565b60405161005b919061150e565b60405180910390f35b34801561007057600080fd5b50610079610167565b60405161008691906119a5565b60405180910390f35b6100a960048036038101906100a491906119f8565b6106c8565b005b60008060009054906101000a900473ffffffffffffffffffffffffffffffffffffffff1673ffffffffffffffffffffffffffffffffffffffff163373ffffffffffffffffffffffffffffffffffffffff161461013c576040517f08c379a000000000000000000000000000000000000000000000000000000000815260040161013390611ace565b60405180910390fd5b6000610146610acf565b905060646017826101579190611b1d565b6101619190611b8e565b91505090565b60606001805480602002602001604051908101604052809291908181526020016000905b828210156106bf578382906000526020600020906015020160405180610100016040529081600082015481526020016001820160405180610120016040529081600082015481526020016001820180546101e490611bee565b80601f016020809104026020016040519081016040528092919081815260200182805461021090611bee565b801561025d5780601f106102325761010080835404028352916020019161025d565b820191906000526020600020905b81548152906001019060200180831161024057829003601f168201915b5050505050815260200160028201805461027690611bee565b80601f01602080910402602001604051908101604052809291908181526020018280546102a290611bee565b80156102ef5780601f106102c4576101008083540402835291602001916102ef565b820191906000526020600020905b8154815290600101906020018083116102d257829003601f168201915b505050505081526020016003820160009054906101000a900460ff16600281111561031d5761031c6115f4565b5b600281111561032f5761032e6115f4565b5b815260200160048201805461034390611bee565b80601f016020809104026020016040519081016040528092919081815260200182805461036f90611bee565b80156103bc5780601f10610391576101008083540402835291602001916103bc565b820191906000526020600020905b81548152906001019060200180831161039f57829003601f168201915b505050505081526020016005820180546103d590611bee565b80601f016020809104026020016040519081016040528092919081815260200182805461040190611bee565b801561044e5780601f106104235761010080835404028352916020019161044e565b820191906000526020600020905b81548152906001019060200180831161043157829003601f168201915b5050505050815260200160068201805461046790611bee565b80601f016020809104026020016040519081016040528092919081815260200182805461049390611bee565b80156104e05780601f106104b5576101008083540402835291602001916104e0565b820191906000526020600020905b8154815290600101906020018083116104c357829003601f168201915b50505050508152602001600782015481526020016008820160009054906101000a900460ff1615151515815250508152602001600a8201604051806101000160405290816000820154815260200160018201805461053d90611bee565b80601f016020809104026020016040519081016040528092919081815260200182805461056990611bee565b80156105b65780601f1061058b576101008083540402835291602001916105b6565b820191906000526020600020905b81548152906001019060200180831161059957829003601f168201915b505050505081526020016002820154815260200160038201548152602001600482015481526020016005820160009054906101000a900460ff161515151581526020016005820160019054906101000a900460ff161515151581526020016005820160029054906101000a900460ff16151515158152505081526020016010820160009054906101000a900473ffffffffffffffffffffffffffffffffffffffff1673ffffffffffffffffffffffffffffffffffffffff1673ffffffffffffffffffffffffffffffffffffffff1681526020016011820154815260200160128201548152602001601382015481526020016014820154815250508152602001906001019061018b565b50505050905090565b6000831180156106e057506106db610b34565b518311155b61071f576040517f08c379a000000000000000000000000000000000000000000000000000000000815260040161071690611c6b565b60405180910390fd5b6000821180156107375750610732610f38565b518211155b610776576040517f08c379a000000000000000000000000000000000000000000000000000000000815260040161076d90611cd7565b60405180910390fd5b600081116107b9576040517f08c379a00000000000000000000000000000000000000000000000000000000081526004016107b090611d69565b60405180910390fd5b60006107c3610b34565b6001856107d09190611d89565b815181106107e1576107e0611dbd565b5b6020026020010151905060006107f5610f38565b6001856108029190611d89565b8151811061081357610812611dbd565b5b60200260200101519050600061082d84846040015161141a565b9050610837611430565b600060405180610100016040528060025481526020018481526020018581526020013373ffffffffffffffffffffffffffffffffffffffff16815260200183815260200186815260200142815260200186426108939190611dec565b81525090506001819080600181540180825580915050600190039060005260206000209060150201600090919091909150600082015181600001556020820151816001016000820151816000015560208201518160010190816108f69190611ffb565b50604082015181600201908161090c9190611ffb565b5060608201518160030160006101000a81548160ff02191690836002811115610938576109376115f4565b5b021790555060808201518160040190816109529190611ffb565b5060a08201518160050190816109689190611ffb565b5060c082015181600601908161097e9190611ffb565b5060e082015181600701556101008201518160080160006101000a81548160ff0219169083151502179055505050604082015181600a016000820151816000015560208201518160010190816109d49190611ffb565b5060408201518160020155606082015181600301556080820151816004015560a08201518160050160006101000a81548160ff02191690831515021790555060c08201518160050160016101000a81548160ff02191690831515021790555060e08201518160050160026101000a81548160ff021916908315150217905550505060608201518160100160006101000a81548173ffffffffffffffffffffffffffffffffffffffff021916908373ffffffffffffffffffffffffffffffffffffffff1602179055506080820151816011015560a0820151816012015560c0820151816013015560e08201518160140155505050505050505050565b6000806000905060005b600180549050811015610b2c5760018181548110610afa57610af9611dbd565b5b90600052602060002090601502016011015482610b179190611dec565b91508080610b24906120cd565b915050610ad9565b508091505090565b60606000600667ffffffffffffffff811115610b5357610b52611e20565b5b604051908082528060200260200182016040528015610b8c57816020015b610b7961144a565b815260200190600190039081610b715790505b509050604051806101000160405280600181526020016040518060400160405280600981526020017f5072656d69756d20310000000000000000000000000000000000000000000000815250815260200160c8815260200160018152602001600481526020016001151581526020016001151581526020016001151581525081600081518110610c1f57610c1e611dbd565b5b6020026020010181905250604051806101000160405280600281526020016040518060400160405280600981526020017f5072656d69756d20320000000000000000000000000000000000000000000000815250815260200160c8815260200160018152602001600481526020016001151581526020016001151581526020016000151581525081600181518110610cba57610cb9611dbd565b5b6020026020010181905250604051806101000160405280600381526020016040518060400160405280600a81526020017f5374616e6461726420310000000000000000000000000000000000000000000081525081526020016064815260200160018152602001600681526020016001151581526020016000151581526020016001151581525081600281518110610d5557610d54611dbd565b5b6020026020010181905250604051806101000160405280600481526020016040518060400160405280600a81526020017f5374616e64617264203200000000000000000000000000000000000000000000815250815260200160c8815260200160018152602001600781526020016000151581526020016000151581526020016000151581525081600381518110610df057610def611dbd565b5b6020026020010181905250604051806101000160405280600581526020016040518060400160405280600681526020017f506f6f722031000000000000000000000000000000000000000000000000000081525081526020016032815260200160018152602001600a81526020016000151581526020016000151581526020016001151581525081600481518110610e8b57610e8a611dbd565b5b6020026020010181905250604051806101000160405280600681526020016040518060400160405280600681526020017f506f6f722032000000000000000000000000000000000000000000000000000081525081526020016032815260200160018152602001601481526020016000151581526020016000151581526020016000151581525081600581518110610f2657610f25611dbd565b5b60200260200101819052508091505090565b60606000600367ffffffffffffffff811115610f5757610f56611e20565b5b604051908082528060200260200182016040528015610f9057816020015b610f7d611495565b815260200190600190039081610f755790505b509050604051806101200160405280600181526020016040518060400160405280600d81526020017f486f74656c205072656d69756d0000000000000000000000000000000000000081525081526020016040518060400160405280600781526020017f5072656d69756d000000000000000000000000000000000000000000000000008152508152602001600060028111156110305761102f6115f4565b5b81526020016040518060400160405280600981526020017f476c6f676f77736b61000000000000000000000000000000000000000000000081525081526020016040518060400160405280600681526020017f36312d353030000000000000000000000000000000000000000000000000000081525081526020016040518060400160405280600b81526020017f3530302d3530302d353035000000000000000000000000000000000000000000815250815260200160058152602001600115158152508160008151811061110857611107611dbd565b5b6020026020010181905250604051806101200160405280600281526020016040518060400160405280600e81526020017f486f74656c205374616e6461726400000000000000000000000000000000000081525081526020016040518060400160405280600881526020017f5374616e646172640000000000000000000000000000000000000000000000008152508152602001600060028111156111b0576111af6115f4565b5b81526020016040518060400160405280600981526020017f476c6f676f77736b61000000000000000000000000000000000000000000000081525081526020016040518060400160405280600681526020017f36312d333030000000000000000000000000000000000000000000000000000081525081526020016040518060400160405280600b81526020017f3330302d3330302d333030000000000000000000000000000000000000000000815250815260200160038152602001600115158152508160018151811061128857611287611dbd565b5b6020026020010181905250604051806101200160405280600381526020016040518060400160405280600a81526020017f486f74656c20506f6f720000000000000000000000000000000000000000000081525081526020016040518060400160405280600481526020017f506f6f72000000000000000000000000000000000000000000000000000000008152508152602001600060028111156113305761132f6115f4565b5b81526020016040518060400160405280600981526020017f476c6f676f77736b61000000000000000000000000000000000000000000000081525081526020016040518060400160405280600681526020017f36312d313030000000000000000000000000000000000000000000000000000081525081526020016040518060400160405280600b81526020017f3130302d3130302d313030000000000000000000000000000000000000000000815250815260200160018152602001600115158152508160028151811061140857611407611dbd565b5b60200260200101819052508091505090565b600081836114289190611b1d565b905092915050565b60026000815480929190611443906120cd565b9190505550565b60405180610100016040528060008152602001606081526020016000815260200160008152602001600081526020016000151581526020016000151581526020016000151581525090565b604051806101200160405280600081526020016060815260200160608152602001600060028111156114ca576114c96115f4565b5b8152602001606081526020016060815260200160608152602001600081526020016000151581525090565b6000819050919050565b611508816114f5565b82525050565b600060208201905061152360008301846114ff565b92915050565b600081519050919050565b600082825260208201905092915050565b6000819050602082019050919050565b61155e816114f5565b82525050565b600081519050919050565b600082825260208201905092915050565b60005b8381101561159e578082015181840152602081019050611583565b60008484015250505050565b6000601f19601f8301169050919050565b60006115c682611564565b6115d0818561156f565b93506115e0818560208601611580565b6115e9816115aa565b840191505092915050565b7f4e487b7100000000000000000000000000000000000000000000000000000000600052602160045260246000fd5b60038110611634576116336115f4565b5b50565b600081905061164582611623565b919050565b600061165582611637565b9050919050565b6116658161164a565b82525050565b60008115159050919050565b6116808161166b565b82525050565b60006101208301600083015161169f6000860182611555565b50602083015184820360208601526116b782826115bb565b915050604083015184820360408601526116d182826115bb565b91505060608301516116e6606086018261165c565b50608083015184820360808601526116fe82826115bb565b91505060a083015184820360a086015261171882826115bb565b91505060c083015184820360c086015261173282826115bb565b91505060e083015161174760e0860182611555565b5061010083015161175c610100860182611677565b508091505092915050565b6000610100830160008301516117806000860182611555565b506020830151848203602086015261179882826115bb565b91505060408301516117ad6040860182611555565b5060608301516117c06060860182611555565b5060808301516117d36080860182611555565b5060a08301516117e660a0860182611677565b5060c08301516117f960c0860182611677565b5060e083015161180c60e0860182611677565b508091505092915050565b600073ffffffffffffffffffffffffffffffffffffffff82169050919050565b600061184282611817565b9050919050565b61185281611837565b82525050565b6000610100830160008301516118716000860182611555565b50602083015184820360208601526118898282611686565b915050604083015184820360408601526118a38282611767565b91505060608301516118b86060860182611849565b5060808301516118cb6080860182611555565b5060a08301516118de60a0860182611555565b5060c08301516118f160c0860182611555565b5060e083015161190460e0860182611555565b508091505092915050565b600061191b8383611858565b905092915050565b6000602082019050919050565b600061193b82611529565b6119458185611534565b93508360208202850161195785611545565b8060005b858110156119935784840389528151611974858261190f565b945061197f83611923565b925060208a0199505060018101905061195b565b50829750879550505050505092915050565b600060208201905081810360008301526119bf8184611930565b905092915050565b600080fd5b6119d5816114f5565b81146119e057600080fd5b50565b6000813590506119f2816119cc565b92915050565b600080600060608486031215611a1157611a106119c7565b5b6000611a1f868287016119e3565b9350506020611a30868287016119e3565b9250506040611a41868287016119e3565b9150509250925092565b600082825260208201905092915050565b7f4f6e6c7920746178206f66666963652063616e2063616c6c207468697320667560008201527f6e6374696f6e0000000000000000000000000000000000000000000000000000602082015250565b6000611ab8602683611a4b565b9150611ac382611a5c565b604082019050919050565b60006020820190508181036000830152611ae781611aab565b9050919050565b7f4e487b7100000000000000000000000000000000000000000000000000000000600052601160045260246000fd5b6000611b28826114f5565b9150611b33836114f5565b9250828202611b41816114f5565b91508282048414831517611b5857611b57611aee565b5b5092915050565b7f4e487b7100000000000000000000000000000000000000000000000000000000600052601260045260246000fd5b6000611b99826114f5565b9150611ba4836114f5565b925082611bb457611bb3611b5f565b5b828204905092915050565b7f4e487b7100000000000000000000000000000000000000000000000000000000600052602260045260246000fd5b60006002820490506001821680611c0657607f821691505b602082108103611c1957611c18611bbf565b5b50919050565b7f496e76616c696420726f6f6d2049440000000000000000000000000000000000600082015250565b6000611c55600f83611a4b565b9150611c6082611c1f565b602082019050919050565b60006020820190508181036000830152611c8481611c48565b9050919050565b7f496e76616c696420686f74656c20494400000000000000000000000000000000600082015250565b6000611cc1601083611a4b565b9150611ccc82611c8b565b602082019050919050565b60006020820190508181036000830152611cf081611cb4565b9050919050565b7f546f74616c206e756d626572206f662064617973206f6620726f6f6d2072656e60008201527f74616c2073686f756c642062652067726561746572207468616e203000000000602082015250565b6000611d53603c83611a4b565b9150611d5e82611cf7565b604082019050919050565b60006020820190508181036000830152611d8281611d46565b9050919050565b6000611d94826114f5565b9150611d9f836114f5565b9250828203905081811115611db757611db6611aee565b5b92915050565b7f4e487b7100000000000000000000000000000000000000000000000000000000600052603260045260246000fd5b6000611df7826114f5565b9150611e02836114f5565b9250828201905080821115611e1a57611e19611aee565b5b92915050565b7f4e487b7100000000000000000000000000000000000000000000000000000000600052604160045260246000fd5b60008190508160005260206000209050919050565b60006020601f8301049050919050565b600082821b905092915050565b600060088302611eb17fffffffffffffffffffffffffffffffffffffffffffffffffffffffffffffffff82611e74565b611ebb8683611e74565b95508019841693508086168417925050509392505050565b6000819050919050565b6000611ef8611ef3611eee846114f5565b611ed3565b6114f5565b9050919050565b6000819050919050565b611f1283611edd565b611f26611f1e82611eff565b848454611e81565b825550505050565b600090565b611f3b611f2e565b611f46818484611f09565b505050565b5b81811015611f6a57611f5f600082611f33565b600181019050611f4c565b5050565b601f821115611faf57611f8081611e4f565b611f8984611e64565b81016020851015611f98578190505b611fac611fa485611e64565b830182611f4b565b50505b505050565b600082821c905092915050565b6000611fd260001984600802611fb4565b1980831691505092915050565b6000611feb8383611fc1565b9150826002028217905092915050565b61200482611564565b67ffffffffffffffff81111561201d5761201c611e20565b5b6120278254611bee565b612032828285611f6e565b600060209050601f8311600181146120655760008415612053578287015190505b61205d8582611fdf565b8655506120c5565b601f19841661207386611e4f565b60005b8281101561209b57848901518255600182019150602085019450602081019050612076565b868310156120b857848901516120b4601f891682611fc1565b8355505b6001600288020188555050505b505050505050565b60006120d8826114f5565b91507fffffffffffffffffffffffffffffffffffffffffffffffffffffffffffffffff820361210a57612109611aee565b5b60018201905091905056fea2646970667358221220070339c44f3674365409a3c500094b9a724f75026b3d37646b2b04b32711231164736f6c63430008120033",
					"opcodes": "PUSH1 0x80 PUSH1 0x40 MSTORE CALLVALUE DUP1 ISZERO PUSH3 0x11 JUMPI PUSH1 0x0 DUP1 REVERT JUMPDEST POP PUSH1 0x40 MLOAD PUSH3 0x227D CODESIZE SUB DUP1 PUSH3 0x227D DUP4 CODECOPY DUP2 DUP2 ADD PUSH1 0x40 MSTORE DUP2 ADD SWAP1 PUSH3 0x37 SWAP2 SWAP1 PUSH3 0xF0 JUMP JUMPDEST PUSH1 0x0 PUSH1 0x2 DUP2 SWAP1 SSTORE POP DUP1 PUSH1 0x0 DUP1 PUSH2 0x100 EXP DUP2 SLOAD DUP2 PUSH20 0xFFFFFFFFFFFFFFFFFFFFFFFFFFFFFFFFFFFFFFFF MUL NOT AND SWAP1 DUP4 PUSH20 0xFFFFFFFFFFFFFFFFFFFFFFFFFFFFFFFFFFFFFFFF AND MUL OR SWAP1 SSTORE POP POP PUSH3 0x122 JUMP JUMPDEST PUSH1 0x0 DUP1 REVERT JUMPDEST PUSH1 0x0 PUSH20 0xFFFFFFFFFFFFFFFFFFFFFFFFFFFFFFFFFFFFFFFF DUP3 AND SWAP1 POP SWAP2 SWAP1 POP JUMP JUMPDEST PUSH1 0x0 PUSH3 0xB8 DUP3 PUSH3 0x8B JUMP JUMPDEST SWAP1 POP SWAP2 SWAP1 POP JUMP JUMPDEST PUSH3 0xCA DUP2 PUSH3 0xAB JUMP JUMPDEST DUP2 EQ PUSH3 0xD6 JUMPI PUSH1 0x0 DUP1 REVERT JUMPDEST POP JUMP JUMPDEST PUSH1 0x0 DUP2 MLOAD SWAP1 POP PUSH3 0xEA DUP2 PUSH3 0xBF JUMP JUMPDEST SWAP3 SWAP2 POP POP JUMP JUMPDEST PUSH1 0x0 PUSH1 0x20 DUP3 DUP5 SUB SLT ISZERO PUSH3 0x109 JUMPI PUSH3 0x108 PUSH3 0x86 JUMP JUMPDEST JUMPDEST PUSH1 0x0 PUSH3 0x119 DUP5 DUP3 DUP6 ADD PUSH3 0xD9 JUMP JUMPDEST SWAP2 POP POP SWAP3 SWAP2 POP POP JUMP JUMPDEST PUSH2 0x214B DUP1 PUSH3 0x132 PUSH1 0x0 CODECOPY PUSH1 0x0 RETURN INVALID PUSH1 0x80 PUSH1 0x40 MSTORE PUSH1 0x4 CALLDATASIZE LT PUSH2 0x34 JUMPI PUSH1 0x0 CALLDATALOAD PUSH1 0xE0 SHR DUP1 PUSH4 0x2973EF2D EQ PUSH2 0x39 JUMPI DUP1 PUSH4 0x9C200B88 EQ PUSH2 0x64 JUMPI DUP1 PUSH4 0xA97606E8 EQ PUSH2 0x8F JUMPI JUMPDEST PUSH1 0x0 DUP1 REVERT JUMPDEST CALLVALUE DUP1 ISZERO PUSH2 0x45 JUMPI PUSH1 0x0 DUP1 REVERT JUMPDEST POP PUSH2 0x4E PUSH2 0xAB JUMP JUMPDEST PUSH1 0x40 MLOAD PUSH2 0x5B SWAP2 SWAP1 PUSH2 0x150E JUMP JUMPDEST PUSH1 0x40 MLOAD DUP1 SWAP2 SUB SWAP1 RETURN JUMPDEST CALLVALUE DUP1 ISZERO PUSH2 0x70 JUMPI PUSH1 0x0 DUP1 REVERT JUMPDEST POP PUSH2 0x79 PUSH2 0x167 JUMP JUMPDEST PUSH1 0x40 MLOAD PUSH2 0x86 SWAP2 SWAP1 PUSH2 0x19A5 JUMP JUMPDEST PUSH1 0x40 MLOAD DUP1 SWAP2 SUB SWAP1 RETURN JUMPDEST PUSH2 0xA9 PUSH1 0x4 DUP1 CALLDATASIZE SUB DUP2 ADD SWAP1 PUSH2 0xA4 SWAP2 SWAP1 PUSH2 0x19F8 JUMP JUMPDEST PUSH2 0x6C8 JUMP JUMPDEST STOP JUMPDEST PUSH1 0x0 DUP1 PUSH1 0x0 SWAP1 SLOAD SWAP1 PUSH2 0x100 EXP SWAP1 DIV PUSH20 0xFFFFFFFFFFFFFFFFFFFFFFFFFFFFFFFFFFFFFFFF AND PUSH20 0xFFFFFFFFFFFFFFFFFFFFFFFFFFFFFFFFFFFFFFFF AND CALLER PUSH20 0xFFFFFFFFFFFFFFFFFFFFFFFFFFFFFFFFFFFFFFFF AND EQ PUSH2 0x13C JUMPI PUSH1 0x40 MLOAD PUSH32 0x8C379A000000000000000000000000000000000000000000000000000000000 DUP2 MSTORE PUSH1 0x4 ADD PUSH2 0x133 SWAP1 PUSH2 0x1ACE JUMP JUMPDEST PUSH1 0x40 MLOAD DUP1 SWAP2 SUB SWAP1 REVERT JUMPDEST PUSH1 0x0 PUSH2 0x146 PUSH2 0xACF JUMP JUMPDEST SWAP1 POP PUSH1 0x64 PUSH1 0x17 DUP3 PUSH2 0x157 SWAP2 SWAP1 PUSH2 0x1B1D JUMP JUMPDEST PUSH2 0x161 SWAP2 SWAP1 PUSH2 0x1B8E JUMP JUMPDEST SWAP2 POP POP SWAP1 JUMP JUMPDEST PUSH1 0x60 PUSH1 0x1 DUP1 SLOAD DUP1 PUSH1 0x20 MUL PUSH1 0x20 ADD PUSH1 0x40 MLOAD SWAP1 DUP2 ADD PUSH1 0x40 MSTORE DUP1 SWAP3 SWAP2 SWAP1 DUP2 DUP2 MSTORE PUSH1 0x20 ADD PUSH1 0x0 SWAP1 JUMPDEST DUP3 DUP3 LT ISZERO PUSH2 0x6BF JUMPI DUP4 DUP3 SWAP1 PUSH1 0x0 MSTORE PUSH1 0x20 PUSH1 0x0 KECCAK256 SWAP1 PUSH1 0x15 MUL ADD PUSH1 0x40 MLOAD DUP1 PUSH2 0x100 ADD PUSH1 0x40 MSTORE SWAP1 DUP2 PUSH1 0x0 DUP3 ADD SLOAD DUP2 MSTORE PUSH1 0x20 ADD PUSH1 0x1 DUP3 ADD PUSH1 0x40 MLOAD DUP1 PUSH2 0x120 ADD PUSH1 0x40 MSTORE SWAP1 DUP2 PUSH1 0x0 DUP3 ADD SLOAD DUP2 MSTORE PUSH1 0x20 ADD PUSH1 0x1 DUP3 ADD DUP1 SLOAD PUSH2 0x1E4 SWAP1 PUSH2 0x1BEE JUMP JUMPDEST DUP1 PUSH1 0x1F ADD PUSH1 0x20 DUP1 SWAP2 DIV MUL PUSH1 0x20 ADD PUSH1 0x40 MLOAD SWAP1 DUP2 ADD PUSH1 0x40 MSTORE DUP1 SWAP3 SWAP2 SWAP1 DUP2 DUP2 MSTORE PUSH1 0x20 ADD DUP3 DUP1 SLOAD PUSH2 0x210 SWAP1 PUSH2 0x1BEE JUMP JUMPDEST DUP1 ISZERO PUSH2 0x25D JUMPI DUP1 PUSH1 0x1F LT PUSH2 0x232 JUMPI PUSH2 0x100 DUP1 DUP4 SLOAD DIV MUL DUP4 MSTORE SWAP2 PUSH1 0x20 ADD SWAP2 PUSH2 0x25D JUMP JUMPDEST DUP3 ADD SWAP2 SWAP1 PUSH1 0x0 MSTORE PUSH1 0x20 PUSH1 0x0 KECCAK256 SWAP1 JUMPDEST DUP2 SLOAD DUP2 MSTORE SWAP1 PUSH1 0x1 ADD SWAP1 PUSH1 0x20 ADD DUP1 DUP4 GT PUSH2 0x240 JUMPI DUP3 SWAP1 SUB PUSH1 0x1F AND DUP3 ADD SWAP2 JUMPDEST POP POP POP POP POP DUP2 MSTORE PUSH1 0x20 ADD PUSH1 0x2 DUP3 ADD DUP1 SLOAD PUSH2 0x276 SWAP1 PUSH2 0x1BEE JUMP JUMPDEST DUP1 PUSH1 0x1F ADD PUSH1 0x20 DUP1 SWAP2 DIV MUL PUSH1 0x20 ADD PUSH1 0x40 MLOAD SWAP1 DUP2 ADD PUSH1 0x40 MSTORE DUP1 SWAP3 SWAP2 SWAP1 DUP2 DUP2 MSTORE PUSH1 0x20 ADD DUP3 DUP1 SLOAD PUSH2 0x2A2 SWAP1 PUSH2 0x1BEE JUMP JUMPDEST DUP1 ISZERO PUSH2 0x2EF JUMPI DUP1 PUSH1 0x1F LT PUSH2 0x2C4 JUMPI PUSH2 0x100 DUP1 DUP4 SLOAD DIV MUL DUP4 MSTORE SWAP2 PUSH1 0x20 ADD SWAP2 PUSH2 0x2EF JUMP JUMPDEST DUP3 ADD SWAP2 SWAP1 PUSH1 0x0 MSTORE PUSH1 0x20 PUSH1 0x0 KECCAK256 SWAP1 JUMPDEST DUP2 SLOAD DUP2 MSTORE SWAP1 PUSH1 0x1 ADD SWAP1 PUSH1 0x20 ADD DUP1 DUP4 GT PUSH2 0x2D2 JUMPI DUP3 SWAP1 SUB PUSH1 0x1F AND DUP3 ADD SWAP2 JUMPDEST POP POP POP POP POP DUP2 MSTORE PUSH1 0x20 ADD PUSH1 0x3 DUP3 ADD PUSH1 0x0 SWAP1 SLOAD SWAP1 PUSH2 0x100 EXP SWAP1 DIV PUSH1 0xFF AND PUSH1 0x2 DUP2 GT ISZERO PUSH2 0x31D JUMPI PUSH2 0x31C PUSH2 0x15F4 JUMP JUMPDEST JUMPDEST PUSH1 0x2 DUP2 GT ISZERO PUSH2 0x32F JUMPI PUSH2 0x32E PUSH2 0x15F4 JUMP JUMPDEST JUMPDEST DUP2 MSTORE PUSH1 0x20 ADD PUSH1 0x4 DUP3 ADD DUP1 SLOAD PUSH2 0x343 SWAP1 PUSH2 0x1BEE JUMP JUMPDEST DUP1 PUSH1 0x1F ADD PUSH1 0x20 DUP1 SWAP2 DIV MUL PUSH1 0x20 ADD PUSH1 0x40 MLOAD SWAP1 DUP2 ADD PUSH1 0x40 MSTORE DUP1 SWAP3 SWAP2 SWAP1 DUP2 DUP2 MSTORE PUSH1 0x20 ADD DUP3 DUP1 SLOAD PUSH2 0x36F SWAP1 PUSH2 0x1BEE JUMP JUMPDEST DUP1 ISZERO PUSH2 0x3BC JUMPI DUP1 PUSH1 0x1F LT PUSH2 0x391 JUMPI PUSH2 0x100 DUP1 DUP4 SLOAD DIV MUL DUP4 MSTORE SWAP2 PUSH1 0x20 ADD SWAP2 PUSH2 0x3BC JUMP JUMPDEST DUP3 ADD SWAP2 SWAP1 PUSH1 0x0 MSTORE PUSH1 0x20 PUSH1 0x0 KECCAK256 SWAP1 JUMPDEST DUP2 SLOAD DUP2 MSTORE SWAP1 PUSH1 0x1 ADD SWAP1 PUSH1 0x20 ADD DUP1 DUP4 GT PUSH2 0x39F JUMPI DUP3 SWAP1 SUB PUSH1 0x1F AND DUP3 ADD SWAP2 JUMPDEST POP POP POP POP POP DUP2 MSTORE PUSH1 0x20 ADD PUSH1 0x5 DUP3 ADD DUP1 SLOAD PUSH2 0x3D5 SWAP1 PUSH2 0x1BEE JUMP JUMPDEST DUP1 PUSH1 0x1F ADD PUSH1 0x20 DUP1 SWAP2 DIV MUL PUSH1 0x20 ADD PUSH1 0x40 MLOAD SWAP1 DUP2 ADD PUSH1 0x40 MSTORE DUP1 SWAP3 SWAP2 SWAP1 DUP2 DUP2 MSTORE PUSH1 0x20 ADD DUP3 DUP1 SLOAD PUSH2 0x401 SWAP1 PUSH2 0x1BEE JUMP JUMPDEST DUP1 ISZERO PUSH2 0x44E JUMPI DUP1 PUSH1 0x1F LT PUSH2 0x423 JUMPI PUSH2 0x100 DUP1 DUP4 SLOAD DIV MUL DUP4 MSTORE SWAP2 PUSH1 0x20 ADD SWAP2 PUSH2 0x44E JUMP JUMPDEST DUP3 ADD SWAP2 SWAP1 PUSH1 0x0 MSTORE PUSH1 0x20 PUSH1 0x0 KECCAK256 SWAP1 JUMPDEST DUP2 SLOAD DUP2 MSTORE SWAP1 PUSH1 0x1 ADD SWAP1 PUSH1 0x20 ADD DUP1 DUP4 GT PUSH2 0x431 JUMPI DUP3 SWAP1 SUB PUSH1 0x1F AND DUP3 ADD SWAP2 JUMPDEST POP POP POP POP POP DUP2 MSTORE PUSH1 0x20 ADD PUSH1 0x6 DUP3 ADD DUP1 SLOAD PUSH2 0x467 SWAP1 PUSH2 0x1BEE JUMP JUMPDEST DUP1 PUSH1 0x1F ADD PUSH1 0x20 DUP1 SWAP2 DIV MUL PUSH1 0x20 ADD PUSH1 0x40 MLOAD SWAP1 DUP2 ADD PUSH1 0x40 MSTORE DUP1 SWAP3 SWAP2 SWAP1 DUP2 DUP2 MSTORE PUSH1 0x20 ADD DUP3 DUP1 SLOAD PUSH2 0x493 SWAP1 PUSH2 0x1BEE JUMP JUMPDEST DUP1 ISZERO PUSH2 0x4E0 JUMPI DUP1 PUSH1 0x1F LT PUSH2 0x4B5 JUMPI PUSH2 0x100 DUP1 DUP4 SLOAD DIV MUL DUP4 MSTORE SWAP2 PUSH1 0x20 ADD SWAP2 PUSH2 0x4E0 JUMP JUMPDEST DUP3 ADD SWAP2 SWAP1 PUSH1 0x0 MSTORE PUSH1 0x20 PUSH1 0x0 KECCAK256 SWAP1 JUMPDEST DUP2 SLOAD DUP2 MSTORE SWAP1 PUSH1 0x1 ADD SWAP1 PUSH1 0x20 ADD DUP1 DUP4 GT PUSH2 0x4C3 JUMPI DUP3 SWAP1 SUB PUSH1 0x1F AND DUP3 ADD SWAP2 JUMPDEST POP POP POP POP POP DUP2 MSTORE PUSH1 0x20 ADD PUSH1 0x7 DUP3 ADD SLOAD DUP2 MSTORE PUSH1 0x20 ADD PUSH1 0x8 DUP3 ADD PUSH1 0x0 SWAP1 SLOAD SWAP1 PUSH2 0x100 EXP SWAP1 DIV PUSH1 0xFF AND ISZERO ISZERO ISZERO ISZERO DUP2 MSTORE POP POP DUP2 MSTORE PUSH1 0x20 ADD PUSH1 0xA DUP3 ADD PUSH1 0x40 MLOAD DUP1 PUSH2 0x100 ADD PUSH1 0x40 MSTORE SWAP1 DUP2 PUSH1 0x0 DUP3 ADD SLOAD DUP2 MSTORE PUSH1 0x20 ADD PUSH1 0x1 DUP3 ADD DUP1 SLOAD PUSH2 0x53D SWAP1 PUSH2 0x1BEE JUMP JUMPDEST DUP1 PUSH1 0x1F ADD PUSH1 0x20 DUP1 SWAP2 DIV MUL PUSH1 0x20 ADD PUSH1 0x40 MLOAD SWAP1 DUP2 ADD PUSH1 0x40 MSTORE DUP1 SWAP3 SWAP2 SWAP1 DUP2 DUP2 MSTORE PUSH1 0x20 ADD DUP3 DUP1 SLOAD PUSH2 0x569 SWAP1 PUSH2 0x1BEE JUMP JUMPDEST DUP1 ISZERO PUSH2 0x5B6 JUMPI DUP1 PUSH1 0x1F LT PUSH2 0x58B JUMPI PUSH2 0x100 DUP1 DUP4 SLOAD DIV MUL DUP4 MSTORE SWAP2 PUSH1 0x20 ADD SWAP2 PUSH2 0x5B6 JUMP JUMPDEST DUP3 ADD SWAP2 SWAP1 PUSH1 0x0 MSTORE PUSH1 0x20 PUSH1 0x0 KECCAK256 SWAP1 JUMPDEST DUP2 SLOAD DUP2 MSTORE SWAP1 PUSH1 0x1 ADD SWAP1 PUSH1 0x20 ADD DUP1 DUP4 GT PUSH2 0x599 JUMPI DUP3 SWAP1 SUB PUSH1 0x1F AND DUP3 ADD SWAP2 JUMPDEST POP POP POP POP POP DUP2 MSTORE PUSH1 0x20 ADD PUSH1 0x2 DUP3 ADD SLOAD DUP2 MSTORE PUSH1 0x20 ADD PUSH1 0x3 DUP3 ADD SLOAD DUP2 MSTORE PUSH1 0x20 ADD PUSH1 0x4 DUP3 ADD SLOAD DUP2 MSTORE PUSH1 0x20 ADD PUSH1 0x5 DUP3 ADD PUSH1 0x0 SWAP1 SLOAD SWAP1 PUSH2 0x100 EXP SWAP1 DIV PUSH1 0xFF AND ISZERO ISZERO ISZERO ISZERO DUP2 MSTORE PUSH1 0x20 ADD PUSH1 0x5 DUP3 ADD PUSH1 0x1 SWAP1 SLOAD SWAP1 PUSH2 0x100 EXP SWAP1 DIV PUSH1 0xFF AND ISZERO ISZERO ISZERO ISZERO DUP2 MSTORE PUSH1 0x20 ADD PUSH1 0x5 DUP3 ADD PUSH1 0x2 SWAP1 SLOAD SWAP1 PUSH2 0x100 EXP SWAP1 DIV PUSH1 0xFF AND ISZERO ISZERO ISZERO ISZERO DUP2 MSTORE POP POP DUP2 MSTORE PUSH1 0x20 ADD PUSH1 0x10 DUP3 ADD PUSH1 0x0 SWAP1 SLOAD SWAP1 PUSH2 0x100 EXP SWAP1 DIV PUSH20 0xFFFFFFFFFFFFFFFFFFFFFFFFFFFFFFFFFFFFFFFF AND PUSH20 0xFFFFFFFFFFFFFFFFFFFFFFFFFFFFFFFFFFFFFFFF AND PUSH20 0xFFFFFFFFFFFFFFFFFFFFFFFFFFFFFFFFFFFFFFFF AND DUP2 MSTORE PUSH1 0x20 ADD PUSH1 0x11 DUP3 ADD SLOAD DUP2 MSTORE PUSH1 0x20 ADD PUSH1 0x12 DUP3 ADD SLOAD DUP2 MSTORE PUSH1 0x20 ADD PUSH1 0x13 DUP3 ADD SLOAD DUP2 MSTORE PUSH1 0x20 ADD PUSH1 0x14 DUP3 ADD SLOAD DUP2 MSTORE POP POP DUP2 MSTORE PUSH1 0x20 ADD SWAP1 PUSH1 0x1 ADD SWAP1 PUSH2 0x18B JUMP JUMPDEST POP POP POP POP SWAP1 POP SWAP1 JUMP JUMPDEST PUSH1 0x0 DUP4 GT DUP1 ISZERO PUSH2 0x6E0 JUMPI POP PUSH2 0x6DB PUSH2 0xB34 JUMP JUMPDEST MLOAD DUP4 GT ISZERO JUMPDEST PUSH2 0x71F JUMPI PUSH1 0x40 MLOAD PUSH32 0x8C379A000000000000000000000000000000000000000000000000000000000 DUP2 MSTORE PUSH1 0x4 ADD PUSH2 0x716 SWAP1 PUSH2 0x1C6B JUMP JUMPDEST PUSH1 0x40 MLOAD DUP1 SWAP2 SUB SWAP1 REVERT JUMPDEST PUSH1 0x0 DUP3 GT DUP1 ISZERO PUSH2 0x737 JUMPI POP PUSH2 0x732 PUSH2 0xF38 JUMP JUMPDEST MLOAD DUP3 GT ISZERO JUMPDEST PUSH2 0x776 JUMPI PUSH1 0x40 MLOAD PUSH32 0x8C379A000000000000000000000000000000000000000000000000000000000 DUP2 MSTORE PUSH1 0x4 ADD PUSH2 0x76D SWAP1 PUSH2 0x1CD7 JUMP JUMPDEST PUSH1 0x40 MLOAD DUP1 SWAP2 SUB SWAP1 REVERT JUMPDEST PUSH1 0x0 DUP2 GT PUSH2 0x7B9 JUMPI PUSH1 0x40 MLOAD PUSH32 0x8C379A000000000000000000000000000000000000000000000000000000000 DUP2 MSTORE PUSH1 0x4 ADD PUSH2 0x7B0 SWAP1 PUSH2 0x1D69 JUMP JUMPDEST PUSH1 0x40 MLOAD DUP1 SWAP2 SUB SWAP1 REVERT JUMPDEST PUSH1 0x0 PUSH2 0x7C3 PUSH2 0xB34 JUMP JUMPDEST PUSH1 0x1 DUP6 PUSH2 0x7D0 SWAP2 SWAP1 PUSH2 0x1D89 JUMP JUMPDEST DUP2 MLOAD DUP2 LT PUSH2 0x7E1 JUMPI PUSH2 0x7E0 PUSH2 0x1DBD JUMP JUMPDEST JUMPDEST PUSH1 0x20 MUL PUSH1 0x20 ADD ADD MLOAD SWAP1 POP PUSH1 0x0 PUSH2 0x7F5 PUSH2 0xF38 JUMP JUMPDEST PUSH1 0x1 DUP6 PUSH2 0x802 SWAP2 SWAP1 PUSH2 0x1D89 JUMP JUMPDEST DUP2 MLOAD DUP2 LT PUSH2 0x813 JUMPI PUSH2 0x812 PUSH2 0x1DBD JUMP JUMPDEST JUMPDEST PUSH1 0x20 MUL PUSH1 0x20 ADD ADD MLOAD SWAP1 POP PUSH1 0x0 PUSH2 0x82D DUP5 DUP5 PUSH1 0x40 ADD MLOAD PUSH2 0x141A JUMP JUMPDEST SWAP1 POP PUSH2 0x837 PUSH2 0x1430 JUMP JUMPDEST PUSH1 0x0 PUSH1 0x40 MLOAD DUP1 PUSH2 0x100 ADD PUSH1 0x40 MSTORE DUP1 PUSH1 0x2 SLOAD DUP2 MSTORE PUSH1 0x20 ADD DUP5 DUP2 MSTORE PUSH1 0x20 ADD DUP6 DUP2 MSTORE PUSH1 0x20 ADD CALLER PUSH20 0xFFFFFFFFFFFFFFFFFFFFFFFFFFFFFFFFFFFFFFFF AND DUP2 MSTORE PUSH1 0x20 ADD DUP4 DUP2 MSTORE PUSH1 0x20 ADD DUP7 DUP2 MSTORE PUSH1 0x20 ADD TIMESTAMP DUP2 MSTORE PUSH1 0x20 ADD DUP7 TIMESTAMP PUSH2 0x893 SWAP2 SWAP1 PUSH2 0x1DEC JUMP JUMPDEST DUP2 MSTORE POP SWAP1 POP PUSH1 0x1 DUP2 SWAP1 DUP1 PUSH1 0x1 DUP2 SLOAD ADD DUP1 DUP3 SSTORE DUP1 SWAP2 POP POP PUSH1 0x1 SWAP1 SUB SWAP1 PUSH1 0x0 MSTORE PUSH1 0x20 PUSH1 0x0 KECCAK256 SWAP1 PUSH1 0x15 MUL ADD PUSH1 0x0 SWAP1 SWAP2 SWAP1 SWAP2 SWAP1 SWAP2 POP PUSH1 0x0 DUP3 ADD MLOAD DUP2 PUSH1 0x0 ADD SSTORE PUSH1 0x20 DUP3 ADD MLOAD DUP2 PUSH1 0x1 ADD PUSH1 0x0 DUP3 ADD MLOAD DUP2 PUSH1 0x0 ADD SSTORE PUSH1 0x20 DUP3 ADD MLOAD DUP2 PUSH1 0x1 ADD SWAP1 DUP2 PUSH2 0x8F6 SWAP2 SWAP1 PUSH2 0x1FFB JUMP JUMPDEST POP PUSH1 0x40 DUP3 ADD MLOAD DUP2 PUSH1 0x2 ADD SWAP1 DUP2 PUSH2 0x90C SWAP2 SWAP1 PUSH2 0x1FFB JUMP JUMPDEST POP PUSH1 0x60 DUP3 ADD MLOAD DUP2 PUSH1 0x3 ADD PUSH1 0x0 PUSH2 0x100 EXP DUP2 SLOAD DUP2 PUSH1 0xFF MUL NOT AND SWAP1 DUP4 PUSH1 0x2 DUP2 GT ISZERO PUSH2 0x938 JUMPI PUSH2 0x937 PUSH2 0x15F4 JUMP JUMPDEST JUMPDEST MUL OR SWAP1 SSTORE POP PUSH1 0x80 DUP3 ADD MLOAD DUP2 PUSH1 0x4 ADD SWAP1 DUP2 PUSH2 0x952 SWAP2 SWAP1 PUSH2 0x1FFB JUMP JUMPDEST POP PUSH1 0xA0 DUP3 ADD MLOAD DUP2 PUSH1 0x5 ADD SWAP1 DUP2 PUSH2 0x968 SWAP2 SWAP1 PUSH2 0x1FFB JUMP JUMPDEST POP PUSH1 0xC0 DUP3 ADD MLOAD DUP2 PUSH1 0x6 ADD SWAP1 DUP2 PUSH2 0x97E SWAP2 SWAP1 PUSH2 0x1FFB JUMP JUMPDEST POP PUSH1 0xE0 DUP3 ADD MLOAD DUP2 PUSH1 0x7 ADD SSTORE PUSH2 0x100 DUP3 ADD MLOAD DUP2 PUSH1 0x8 ADD PUSH1 0x0 PUSH2 0x100 EXP DUP2 SLOAD DUP2 PUSH1 0xFF MUL NOT AND SWAP1 DUP4 ISZERO ISZERO MUL OR SWAP1 SSTORE POP POP POP PUSH1 0x40 DUP3 ADD MLOAD DUP2 PUSH1 0xA ADD PUSH1 0x0 DUP3 ADD MLOAD DUP2 PUSH1 0x0 ADD SSTORE PUSH1 0x20 DUP3 ADD MLOAD DUP2 PUSH1 0x1 ADD SWAP1 DUP2 PUSH2 0x9D4 SWAP2 SWAP1 PUSH2 0x1FFB JUMP JUMPDEST POP PUSH1 0x40 DUP3 ADD MLOAD DUP2 PUSH1 0x2 ADD SSTORE PUSH1 0x60 DUP3 ADD MLOAD DUP2 PUSH1 0x3 ADD SSTORE PUSH1 0x80 DUP3 ADD MLOAD DUP2 PUSH1 0x4 ADD SSTORE PUSH1 0xA0 DUP3 ADD MLOAD DUP2 PUSH1 0x5 ADD PUSH1 0x0 PUSH2 0x100 EXP DUP2 SLOAD DUP2 PUSH1 0xFF MUL NOT AND SWAP1 DUP4 ISZERO ISZERO MUL OR SWAP1 SSTORE POP PUSH1 0xC0 DUP3 ADD MLOAD DUP2 PUSH1 0x5 ADD PUSH1 0x1 PUSH2 0x100 EXP DUP2 SLOAD DUP2 PUSH1 0xFF MUL NOT AND SWAP1 DUP4 ISZERO ISZERO MUL OR SWAP1 SSTORE POP PUSH1 0xE0 DUP3 ADD MLOAD DUP2 PUSH1 0x5 ADD PUSH1 0x2 PUSH2 0x100 EXP DUP2 SLOAD DUP2 PUSH1 0xFF MUL NOT AND SWAP1 DUP4 ISZERO ISZERO MUL OR SWAP1 SSTORE POP POP POP PUSH1 0x60 DUP3 ADD MLOAD DUP2 PUSH1 0x10 ADD PUSH1 0x0 PUSH2 0x100 EXP DUP2 SLOAD DUP2 PUSH20 0xFFFFFFFFFFFFFFFFFFFFFFFFFFFFFFFFFFFFFFFF MUL NOT AND SWAP1 DUP4 PUSH20 0xFFFFFFFFFFFFFFFFFFFFFFFFFFFFFFFFFFFFFFFF AND MUL OR SWAP1 SSTORE POP PUSH1 0x80 DUP3 ADD MLOAD DUP2 PUSH1 0x11 ADD SSTORE PUSH1 0xA0 DUP3 ADD MLOAD DUP2 PUSH1 0x12 ADD SSTORE PUSH1 0xC0 DUP3 ADD MLOAD DUP2 PUSH1 0x13 ADD SSTORE PUSH1 0xE0 DUP3 ADD MLOAD DUP2 PUSH1 0x14 ADD SSTORE POP POP POP POP POP POP POP POP POP JUMP JUMPDEST PUSH1 0x0 DUP1 PUSH1 0x0 SWAP1 POP PUSH1 0x0 JUMPDEST PUSH1 0x1 DUP1 SLOAD SWAP1 POP DUP2 LT ISZERO PUSH2 0xB2C JUMPI PUSH1 0x1 DUP2 DUP2 SLOAD DUP2 LT PUSH2 0xAFA JUMPI PUSH2 0xAF9 PUSH2 0x1DBD JUMP JUMPDEST JUMPDEST SWAP1 PUSH1 0x0 MSTORE PUSH1 0x20 PUSH1 0x0 KECCAK256 SWAP1 PUSH1 0x15 MUL ADD PUSH1 0x11 ADD SLOAD DUP3 PUSH2 0xB17 SWAP2 SWAP1 PUSH2 0x1DEC JUMP JUMPDEST SWAP2 POP DUP1 DUP1 PUSH2 0xB24 SWAP1 PUSH2 0x20CD JUMP JUMPDEST SWAP2 POP POP PUSH2 0xAD9 JUMP JUMPDEST POP DUP1 SWAP2 POP POP SWAP1 JUMP JUMPDEST PUSH1 0x60 PUSH1 0x0 PUSH1 0x6 PUSH8 0xFFFFFFFFFFFFFFFF DUP2 GT ISZERO PUSH2 0xB53 JUMPI PUSH2 0xB52 PUSH2 0x1E20 JUMP JUMPDEST JUMPDEST PUSH1 0x40 MLOAD SWAP1 DUP1 DUP3 MSTORE DUP1 PUSH1 0x20 MUL PUSH1 0x20 ADD DUP3 ADD PUSH1 0x40 MSTORE DUP1 ISZERO PUSH2 0xB8C JUMPI DUP2 PUSH1 0x20 ADD JUMPDEST PUSH2 0xB79 PUSH2 0x144A JUMP JUMPDEST DUP2 MSTORE PUSH1 0x20 ADD SWAP1 PUSH1 0x1 SWAP1 SUB SWAP1 DUP2 PUSH2 0xB71 JUMPI SWAP1 POP JUMPDEST POP SWAP1 POP PUSH1 0x40 MLOAD DUP1 PUSH2 0x100 ADD PUSH1 0x40 MSTORE DUP1 PUSH1 0x1 DUP2 MSTORE PUSH1 0x20 ADD PUSH1 0x40 MLOAD DUP1 PUSH1 0x40 ADD PUSH1 0x40 MSTORE DUP1 PUSH1 0x9 DUP2 MSTORE PUSH1 0x20 ADD PUSH32 0x5072656D69756D20310000000000000000000000000000000000000000000000 DUP2 MSTORE POP DUP2 MSTORE PUSH1 0x20 ADD PUSH1 0xC8 DUP2 MSTORE PUSH1 0x20 ADD PUSH1 0x1 DUP2 MSTORE PUSH1 0x20 ADD PUSH1 0x4 DUP2 MSTORE PUSH1 0x20 ADD PUSH1 0x1 ISZERO ISZERO DUP2 MSTORE PUSH1 0x20 ADD PUSH1 0x1 ISZERO ISZERO DUP2 MSTORE PUSH1 0x20 ADD PUSH1 0x1 ISZERO ISZERO DUP2 MSTORE POP DUP2 PUSH1 0x0 DUP2 MLOAD DUP2 LT PUSH2 0xC1F JUMPI PUSH2 0xC1E PUSH2 0x1DBD JUMP JUMPDEST JUMPDEST PUSH1 0x20 MUL PUSH1 0x20 ADD ADD DUP2 SWAP1 MSTORE POP PUSH1 0x40 MLOAD DUP1 PUSH2 0x100 ADD PUSH1 0x40 MSTORE DUP1 PUSH1 0x2 DUP2 MSTORE PUSH1 0x20 ADD PUSH1 0x40 MLOAD DUP1 PUSH1 0x40 ADD PUSH1 0x40 MSTORE DUP1 PUSH1 0x9 DUP2 MSTORE PUSH1 0x20 ADD PUSH32 0x5072656D69756D20320000000000000000000000000000000000000000000000 DUP2 MSTORE POP DUP2 MSTORE PUSH1 0x20 ADD PUSH1 0xC8 DUP2 MSTORE PUSH1 0x20 ADD PUSH1 0x1 DUP2 MSTORE PUSH1 0x20 ADD PUSH1 0x4 DUP2 MSTORE PUSH1 0x20 ADD PUSH1 0x1 ISZERO ISZERO DUP2 MSTORE PUSH1 0x20 ADD PUSH1 0x1 ISZERO ISZERO DUP2 MSTORE PUSH1 0x20 ADD PUSH1 0x0 ISZERO ISZERO DUP2 MSTORE POP DUP2 PUSH1 0x1 DUP2 MLOAD DUP2 LT PUSH2 0xCBA JUMPI PUSH2 0xCB9 PUSH2 0x1DBD JUMP JUMPDEST JUMPDEST PUSH1 0x20 MUL PUSH1 0x20 ADD ADD DUP2 SWAP1 MSTORE POP PUSH1 0x40 MLOAD DUP1 PUSH2 0x100 ADD PUSH1 0x40 MSTORE DUP1 PUSH1 0x3 DUP2 MSTORE PUSH1 0x20 ADD PUSH1 0x40 MLOAD DUP1 PUSH1 0x40 ADD PUSH1 0x40 MSTORE DUP1 PUSH1 0xA DUP2 MSTORE PUSH1 0x20 ADD PUSH32 0x5374616E64617264203100000000000000000000000000000000000000000000 DUP2 MSTORE POP DUP2 MSTORE PUSH1 0x20 ADD PUSH1 0x64 DUP2 MSTORE PUSH1 0x20 ADD PUSH1 0x1 DUP2 MSTORE PUSH1 0x20 ADD PUSH1 0x6 DUP2 MSTORE PUSH1 0x20 ADD PUSH1 0x1 ISZERO ISZERO DUP2 MSTORE PUSH1 0x20 ADD PUSH1 0x0 ISZERO ISZERO DUP2 MSTORE PUSH1 0x20 ADD PUSH1 0x1 ISZERO ISZERO DUP2 MSTORE POP DUP2 PUSH1 0x2 DUP2 MLOAD DUP2 LT PUSH2 0xD55 JUMPI PUSH2 0xD54 PUSH2 0x1DBD JUMP JUMPDEST JUMPDEST PUSH1 0x20 MUL PUSH1 0x20 ADD ADD DUP2 SWAP1 MSTORE POP PUSH1 0x40 MLOAD DUP1 PUSH2 0x100 ADD PUSH1 0x40 MSTORE DUP1 PUSH1 0x4 DUP2 MSTORE PUSH1 0x20 ADD PUSH1 0x40 MLOAD DUP1 PUSH1 0x40 ADD PUSH1 0x40 MSTORE DUP1 PUSH1 0xA DUP2 MSTORE PUSH1 0x20 ADD PUSH32 0x5374616E64617264203200000000000000000000000000000000000000000000 DUP2 MSTORE POP DUP2 MSTORE PUSH1 0x20 ADD PUSH1 0xC8 DUP2 MSTORE PUSH1 0x20 ADD PUSH1 0x1 DUP2 MSTORE PUSH1 0x20 ADD PUSH1 0x7 DUP2 MSTORE PUSH1 0x20 ADD PUSH1 0x0 ISZERO ISZERO DUP2 MSTORE PUSH1 0x20 ADD PUSH1 0x0 ISZERO ISZERO DUP2 MSTORE PUSH1 0x20 ADD PUSH1 0x0 ISZERO ISZERO DUP2 MSTORE POP DUP2 PUSH1 0x3 DUP2 MLOAD DUP2 LT PUSH2 0xDF0 JUMPI PUSH2 0xDEF PUSH2 0x1DBD JUMP JUMPDEST JUMPDEST PUSH1 0x20 MUL PUSH1 0x20 ADD ADD DUP2 SWAP1 MSTORE POP PUSH1 0x40 MLOAD DUP1 PUSH2 0x100 ADD PUSH1 0x40 MSTORE DUP1 PUSH1 0x5 DUP2 MSTORE PUSH1 0x20 ADD PUSH1 0x40 MLOAD DUP1 PUSH1 0x40 ADD PUSH1 0x40 MSTORE DUP1 PUSH1 0x6 DUP2 MSTORE PUSH1 0x20 ADD PUSH32 0x506F6F7220310000000000000000000000000000000000000000000000000000 DUP2 MSTORE POP DUP2 MSTORE PUSH1 0x20 ADD PUSH1 0x32 DUP2 MSTORE PUSH1 0x20 ADD PUSH1 0x1 DUP2 MSTORE PUSH1 0x20 ADD PUSH1 0xA DUP2 MSTORE PUSH1 0x20 ADD PUSH1 0x0 ISZERO ISZERO DUP2 MSTORE PUSH1 0x20 ADD PUSH1 0x0 ISZERO ISZERO DUP2 MSTORE PUSH1 0x20 ADD PUSH1 0x1 ISZERO ISZERO DUP2 MSTORE POP DUP2 PUSH1 0x4 DUP2 MLOAD DUP2 LT PUSH2 0xE8B JUMPI PUSH2 0xE8A PUSH2 0x1DBD JUMP JUMPDEST JUMPDEST PUSH1 0x20 MUL PUSH1 0x20 ADD ADD DUP2 SWAP1 MSTORE POP PUSH1 0x40 MLOAD DUP1 PUSH2 0x100 ADD PUSH1 0x40 MSTORE DUP1 PUSH1 0x6 DUP2 MSTORE PUSH1 0x20 ADD PUSH1 0x40 MLOAD DUP1 PUSH1 0x40 ADD PUSH1 0x40 MSTORE DUP1 PUSH1 0x6 DUP2 MSTORE PUSH1 0x20 ADD PUSH32 0x506F6F7220320000000000000000000000000000000000000000000000000000 DUP2 MSTORE POP DUP2 MSTORE PUSH1 0x20 ADD PUSH1 0x32 DUP2 MSTORE PUSH1 0x20 ADD PUSH1 0x1 DUP2 MSTORE PUSH1 0x20 ADD PUSH1 0x14 DUP2 MSTORE PUSH1 0x20 ADD PUSH1 0x0 ISZERO ISZERO DUP2 MSTORE PUSH1 0x20 ADD PUSH1 0x0 ISZERO ISZERO DUP2 MSTORE PUSH1 0x20 ADD PUSH1 0x0 ISZERO ISZERO DUP2 MSTORE POP DUP2 PUSH1 0x5 DUP2 MLOAD DUP2 LT PUSH2 0xF26 JUMPI PUSH2 0xF25 PUSH2 0x1DBD JUMP JUMPDEST JUMPDEST PUSH1 0x20 MUL PUSH1 0x20 ADD ADD DUP2 SWAP1 MSTORE POP DUP1 SWAP2 POP POP SWAP1 JUMP JUMPDEST PUSH1 0x60 PUSH1 0x0 PUSH1 0x3 PUSH8 0xFFFFFFFFFFFFFFFF DUP2 GT ISZERO PUSH2 0xF57 JUMPI PUSH2 0xF56 PUSH2 0x1E20 JUMP JUMPDEST JUMPDEST PUSH1 0x40 MLOAD SWAP1 DUP1 DUP3 MSTORE DUP1 PUSH1 0x20 MUL PUSH1 0x20 ADD DUP3 ADD PUSH1 0x40 MSTORE DUP1 ISZERO PUSH2 0xF90 JUMPI DUP2 PUSH1 0x20 ADD JUMPDEST PUSH2 0xF7D PUSH2 0x1495 JUMP JUMPDEST DUP2 MSTORE PUSH1 0x20 ADD SWAP1 PUSH1 0x1 SWAP1 SUB SWAP1 DUP2 PUSH2 0xF75 JUMPI SWAP1 POP JUMPDEST POP SWAP1 POP PUSH1 0x40 MLOAD DUP1 PUSH2 0x120 ADD PUSH1 0x40 MSTORE DUP1 PUSH1 0x1 DUP2 MSTORE PUSH1 0x20 ADD PUSH1 0x40 MLOAD DUP1 PUSH1 0x40 ADD PUSH1 0x40 MSTORE DUP1 PUSH1 0xD DUP2 MSTORE PUSH1 0x20 ADD PUSH32 0x486F74656C205072656D69756D00000000000000000000000000000000000000 DUP2 MSTORE POP DUP2 MSTORE PUSH1 0x20 ADD PUSH1 0x40 MLOAD DUP1 PUSH1 0x40 ADD PUSH1 0x40 MSTORE DUP1 PUSH1 0x7 DUP2 MSTORE PUSH1 0x20 ADD PUSH32 0x5072656D69756D00000000000000000000000000000000000000000000000000 DUP2 MSTORE POP DUP2 MSTORE PUSH1 0x20 ADD PUSH1 0x0 PUSH1 0x2 DUP2 GT ISZERO PUSH2 0x1030 JUMPI PUSH2 0x102F PUSH2 0x15F4 JUMP JUMPDEST JUMPDEST DUP2 MSTORE PUSH1 0x20 ADD PUSH1 0x40 MLOAD DUP1 PUSH1 0x40 ADD PUSH1 0x40 MSTORE DUP1 PUSH1 0x9 DUP2 MSTORE PUSH1 0x20 ADD PUSH32 0x476C6F676F77736B610000000000000000000000000000000000000000000000 DUP2 MSTORE POP DUP2 MSTORE PUSH1 0x20 ADD PUSH1 0x40 MLOAD DUP1 PUSH1 0x40 ADD PUSH1 0x40 MSTORE DUP1 PUSH1 0x6 DUP2 MSTORE PUSH1 0x20 ADD PUSH32 0x36312D3530300000000000000000000000000000000000000000000000000000 DUP2 MSTORE POP DUP2 MSTORE PUSH1 0x20 ADD PUSH1 0x40 MLOAD DUP1 PUSH1 0x40 ADD PUSH1 0x40 MSTORE DUP1 PUSH1 0xB DUP2 MSTORE PUSH1 0x20 ADD PUSH32 0x3530302D3530302D353035000000000000000000000000000000000000000000 DUP2 MSTORE POP DUP2 MSTORE PUSH1 0x20 ADD PUSH1 0x5 DUP2 MSTORE PUSH1 0x20 ADD PUSH1 0x1 ISZERO ISZERO DUP2 MSTORE POP DUP2 PUSH1 0x0 DUP2 MLOAD DUP2 LT PUSH2 0x1108 JUMPI PUSH2 0x1107 PUSH2 0x1DBD JUMP JUMPDEST JUMPDEST PUSH1 0x20 MUL PUSH1 0x20 ADD ADD DUP2 SWAP1 MSTORE POP PUSH1 0x40 MLOAD DUP1 PUSH2 0x120 ADD PUSH1 0x40 MSTORE DUP1 PUSH1 0x2 DUP2 MSTORE PUSH1 0x20 ADD PUSH1 0x40 MLOAD DUP1 PUSH1 0x40 ADD PUSH1 0x40 MSTORE DUP1 PUSH1 0xE DUP2 MSTORE PUSH1 0x20 ADD PUSH32 0x486F74656C205374616E64617264000000000000000000000000000000000000 DUP2 MSTORE POP DUP2 MSTORE PUSH1 0x20 ADD PUSH1 0x40 MLOAD DUP1 PUSH1 0x40 ADD PUSH1 0x40 MSTORE DUP1 PUSH1 0x8 DUP2 MSTORE PUSH1 0x20 ADD PUSH32 0x5374616E64617264000000000000000000000000000000000000000000000000 DUP2 MSTORE POP DUP2 MSTORE PUSH1 0x20 ADD PUSH1 0x0 PUSH1 0x2 DUP2 GT ISZERO PUSH2 0x11B0 JUMPI PUSH2 0x11AF PUSH2 0x15F4 JUMP JUMPDEST JUMPDEST DUP2 MSTORE PUSH1 0x20 ADD PUSH1 0x40 MLOAD DUP1 PUSH1 0x40 ADD PUSH1 0x40 MSTORE DUP1 PUSH1 0x9 DUP2 MSTORE PUSH1 0x20 ADD PUSH32 0x476C6F676F77736B610000000000000000000000000000000000000000000000 DUP2 MSTORE POP DUP2 MSTORE PUSH1 0x20 ADD PUSH1 0x40 MLOAD DUP1 PUSH1 0x40 ADD PUSH1 0x40 MSTORE DUP1 PUSH1 0x6 DUP2 MSTORE PUSH1 0x20 ADD PUSH32 0x36312D3330300000000000000000000000000000000000000000000000000000 DUP2 MSTORE POP DUP2 MSTORE PUSH1 0x20 ADD PUSH1 0x40 MLOAD DUP1 PUSH1 0x40 ADD PUSH1 0x40 MSTORE DUP1 PUSH1 0xB DUP2 MSTORE PUSH1 0x20 ADD PUSH32 0x3330302D3330302D333030000000000000000000000000000000000000000000 DUP2 MSTORE POP DUP2 MSTORE PUSH1 0x20 ADD PUSH1 0x3 DUP2 MSTORE PUSH1 0x20 ADD PUSH1 0x1 ISZERO ISZERO DUP2 MSTORE POP DUP2 PUSH1 0x1 DUP2 MLOAD DUP2 LT PUSH2 0x1288 JUMPI PUSH2 0x1287 PUSH2 0x1DBD JUMP JUMPDEST JUMPDEST PUSH1 0x20 MUL PUSH1 0x20 ADD ADD DUP2 SWAP1 MSTORE POP PUSH1 0x40 MLOAD DUP1 PUSH2 0x120 ADD PUSH1 0x40 MSTORE DUP1 PUSH1 0x3 DUP2 MSTORE PUSH1 0x20 ADD PUSH1 0x40 MLOAD DUP1 PUSH1 0x40 ADD PUSH1 0x40 MSTORE DUP1 PUSH1 0xA DUP2 MSTORE PUSH1 0x20 ADD PUSH32 0x486F74656C20506F6F7200000000000000000000000000000000000000000000 DUP2 MSTORE POP DUP2 MSTORE PUSH1 0x20 ADD PUSH1 0x40 MLOAD DUP1 PUSH1 0x40 ADD PUSH1 0x40 MSTORE DUP1 PUSH1 0x4 DUP2 MSTORE PUSH1 0x20 ADD PUSH32 0x506F6F7200000000000000000000000000000000000000000000000000000000 DUP2 MSTORE POP DUP2 MSTORE PUSH1 0x20 ADD PUSH1 0x0 PUSH1 0x2 DUP2 GT ISZERO PUSH2 0x1330 JUMPI PUSH2 0x132F PUSH2 0x15F4 JUMP JUMPDEST JUMPDEST DUP2 MSTORE PUSH1 0x20 ADD PUSH1 0x40 MLOAD DUP1 PUSH1 0x40 ADD PUSH1 0x40 MSTORE DUP1 PUSH1 0x9 DUP2 MSTORE PUSH1 0x20 ADD PUSH32 0x476C6F676F77736B610000000000000000000000000000000000000000000000 DUP2 MSTORE POP DUP2 MSTORE PUSH1 0x20 ADD PUSH1 0x40 MLOAD DUP1 PUSH1 0x40 ADD PUSH1 0x40 MSTORE DUP1 PUSH1 0x6 DUP2 MSTORE PUSH1 0x20 ADD PUSH32 0x36312D3130300000000000000000000000000000000000000000000000000000 DUP2 MSTORE POP DUP2 MSTORE PUSH1 0x20 ADD PUSH1 0x40 MLOAD DUP1 PUSH1 0x40 ADD PUSH1 0x40 MSTORE DUP1 PUSH1 0xB DUP2 MSTORE PUSH1 0x20 ADD PUSH32 0x3130302D3130302D313030000000000000000000000000000000000000000000 DUP2 MSTORE POP DUP2 MSTORE PUSH1 0x20 ADD PUSH1 0x1 DUP2 MSTORE PUSH1 0x20 ADD PUSH1 0x1 ISZERO ISZERO DUP2 MSTORE POP DUP2 PUSH1 0x2 DUP2 MLOAD DUP2 LT PUSH2 0x1408 JUMPI PUSH2 0x1407 PUSH2 0x1DBD JUMP JUMPDEST JUMPDEST PUSH1 0x20 MUL PUSH1 0x20 ADD ADD DUP2 SWAP1 MSTORE POP DUP1 SWAP2 POP POP SWAP1 JUMP JUMPDEST PUSH1 0x0 DUP2 DUP4 PUSH2 0x1428 SWAP2 SWAP1 PUSH2 0x1B1D JUMP JUMPDEST SWAP1 POP SWAP3 SWAP2 POP POP JUMP JUMPDEST PUSH1 0x2 PUSH1 0x0 DUP2 SLOAD DUP1 SWAP3 SWAP2 SWAP1 PUSH2 0x1443 SWAP1 PUSH2 0x20CD JUMP JUMPDEST SWAP2 SWAP1 POP SSTORE POP JUMP JUMPDEST PUSH1 0x40 MLOAD DUP1 PUSH2 0x100 ADD PUSH1 0x40 MSTORE DUP1 PUSH1 0x0 DUP2 MSTORE PUSH1 0x20 ADD PUSH1 0x60 DUP2 MSTORE PUSH1 0x20 ADD PUSH1 0x0 DUP2 MSTORE PUSH1 0x20 ADD PUSH1 0x0 DUP2 MSTORE PUSH1 0x20 ADD PUSH1 0x0 DUP2 MSTORE PUSH1 0x20 ADD PUSH1 0x0 ISZERO ISZERO DUP2 MSTORE PUSH1 0x20 ADD PUSH1 0x0 ISZERO ISZERO DUP2 MSTORE PUSH1 0x20 ADD PUSH1 0x0 ISZERO ISZERO DUP2 MSTORE POP SWAP1 JUMP JUMPDEST PUSH1 0x40 MLOAD DUP1 PUSH2 0x120 ADD PUSH1 0x40 MSTORE DUP1 PUSH1 0x0 DUP2 MSTORE PUSH1 0x20 ADD PUSH1 0x60 DUP2 MSTORE PUSH1 0x20 ADD PUSH1 0x60 DUP2 MSTORE PUSH1 0x20 ADD PUSH1 0x0 PUSH1 0x2 DUP2 GT ISZERO PUSH2 0x14CA JUMPI PUSH2 0x14C9 PUSH2 0x15F4 JUMP JUMPDEST JUMPDEST DUP2 MSTORE PUSH1 0x20 ADD PUSH1 0x60 DUP2 MSTORE PUSH1 0x20 ADD PUSH1 0x60 DUP2 MSTORE PUSH1 0x20 ADD PUSH1 0x60 DUP2 MSTORE PUSH1 0x20 ADD PUSH1 0x0 DUP2 MSTORE PUSH1 0x20 ADD PUSH1 0x0 ISZERO ISZERO DUP2 MSTORE POP SWAP1 JUMP JUMPDEST PUSH1 0x0 DUP2 SWAP1 POP SWAP2 SWAP1 POP JUMP JUMPDEST PUSH2 0x1508 DUP2 PUSH2 0x14F5 JUMP JUMPDEST DUP3 MSTORE POP POP JUMP JUMPDEST PUSH1 0x0 PUSH1 0x20 DUP3 ADD SWAP1 POP PUSH2 0x1523 PUSH1 0x0 DUP4 ADD DUP5 PUSH2 0x14FF JUMP JUMPDEST SWAP3 SWAP2 POP POP JUMP JUMPDEST PUSH1 0x0 DUP2 MLOAD SWAP1 POP SWAP2 SWAP1 POP JUMP JUMPDEST PUSH1 0x0 DUP3 DUP3 MSTORE PUSH1 0x20 DUP3 ADD SWAP1 POP SWAP3 SWAP2 POP POP JUMP JUMPDEST PUSH1 0x0 DUP2 SWAP1 POP PUSH1 0x20 DUP3 ADD SWAP1 POP SWAP2 SWAP1 POP JUMP JUMPDEST PUSH2 0x155E DUP2 PUSH2 0x14F5 JUMP JUMPDEST DUP3 MSTORE POP POP JUMP JUMPDEST PUSH1 0x0 DUP2 MLOAD SWAP1 POP SWAP2 SWAP1 POP JUMP JUMPDEST PUSH1 0x0 DUP3 DUP3 MSTORE PUSH1 0x20 DUP3 ADD SWAP1 POP SWAP3 SWAP2 POP POP JUMP JUMPDEST PUSH1 0x0 JUMPDEST DUP4 DUP2 LT ISZERO PUSH2 0x159E JUMPI DUP1 DUP3 ADD MLOAD DUP2 DUP5 ADD MSTORE PUSH1 0x20 DUP2 ADD SWAP1 POP PUSH2 0x1583 JUMP JUMPDEST PUSH1 0x0 DUP5 DUP5 ADD MSTORE POP POP POP POP JUMP JUMPDEST PUSH1 0x0 PUSH1 0x1F NOT PUSH1 0x1F DUP4 ADD AND SWAP1 POP SWAP2 SWAP1 POP JUMP JUMPDEST PUSH1 0x0 PUSH2 0x15C6 DUP3 PUSH2 0x1564 JUMP JUMPDEST PUSH2 0x15D0 DUP2 DUP6 PUSH2 0x156F JUMP JUMPDEST SWAP4 POP PUSH2 0x15E0 DUP2 DUP6 PUSH1 0x20 DUP7 ADD PUSH2 0x1580 JUMP JUMPDEST PUSH2 0x15E9 DUP2 PUSH2 0x15AA JUMP JUMPDEST DUP5 ADD SWAP2 POP POP SWAP3 SWAP2 POP POP JUMP JUMPDEST PUSH32 0x4E487B7100000000000000000000000000000000000000000000000000000000 PUSH1 0x0 MSTORE PUSH1 0x21 PUSH1 0x4 MSTORE PUSH1 0x24 PUSH1 0x0 REVERT JUMPDEST PUSH1 0x3 DUP2 LT PUSH2 0x1634 JUMPI PUSH2 0x1633 PUSH2 0x15F4 JUMP JUMPDEST JUMPDEST POP JUMP JUMPDEST PUSH1 0x0 DUP2 SWAP1 POP PUSH2 0x1645 DUP3 PUSH2 0x1623 JUMP JUMPDEST SWAP2 SWAP1 POP JUMP JUMPDEST PUSH1 0x0 PUSH2 0x1655 DUP3 PUSH2 0x1637 JUMP JUMPDEST SWAP1 POP SWAP2 SWAP1 POP JUMP JUMPDEST PUSH2 0x1665 DUP2 PUSH2 0x164A JUMP JUMPDEST DUP3 MSTORE POP POP JUMP JUMPDEST PUSH1 0x0 DUP2 ISZERO ISZERO SWAP1 POP SWAP2 SWAP1 POP JUMP JUMPDEST PUSH2 0x1680 DUP2 PUSH2 0x166B JUMP JUMPDEST DUP3 MSTORE POP POP JUMP JUMPDEST PUSH1 0x0 PUSH2 0x120 DUP4 ADD PUSH1 0x0 DUP4 ADD MLOAD PUSH2 0x169F PUSH1 0x0 DUP7 ADD DUP3 PUSH2 0x1555 JUMP JUMPDEST POP PUSH1 0x20 DUP4 ADD MLOAD DUP5 DUP3 SUB PUSH1 0x20 DUP7 ADD MSTORE PUSH2 0x16B7 DUP3 DUP3 PUSH2 0x15BB JUMP JUMPDEST SWAP2 POP POP PUSH1 0x40 DUP4 ADD MLOAD DUP5 DUP3 SUB PUSH1 0x40 DUP7 ADD MSTORE PUSH2 0x16D1 DUP3 DUP3 PUSH2 0x15BB JUMP JUMPDEST SWAP2 POP POP PUSH1 0x60 DUP4 ADD MLOAD PUSH2 0x16E6 PUSH1 0x60 DUP7 ADD DUP3 PUSH2 0x165C JUMP JUMPDEST POP PUSH1 0x80 DUP4 ADD MLOAD DUP5 DUP3 SUB PUSH1 0x80 DUP7 ADD MSTORE PUSH2 0x16FE DUP3 DUP3 PUSH2 0x15BB JUMP JUMPDEST SWAP2 POP POP PUSH1 0xA0 DUP4 ADD MLOAD DUP5 DUP3 SUB PUSH1 0xA0 DUP7 ADD MSTORE PUSH2 0x1718 DUP3 DUP3 PUSH2 0x15BB JUMP JUMPDEST SWAP2 POP POP PUSH1 0xC0 DUP4 ADD MLOAD DUP5 DUP3 SUB PUSH1 0xC0 DUP7 ADD MSTORE PUSH2 0x1732 DUP3 DUP3 PUSH2 0x15BB JUMP JUMPDEST SWAP2 POP POP PUSH1 0xE0 DUP4 ADD MLOAD PUSH2 0x1747 PUSH1 0xE0 DUP7 ADD DUP3 PUSH2 0x1555 JUMP JUMPDEST POP PUSH2 0x100 DUP4 ADD MLOAD PUSH2 0x175C PUSH2 0x100 DUP7 ADD DUP3 PUSH2 0x1677 JUMP JUMPDEST POP DUP1 SWAP2 POP POP SWAP3 SWAP2 POP POP JUMP JUMPDEST PUSH1 0x0 PUSH2 0x100 DUP4 ADD PUSH1 0x0 DUP4 ADD MLOAD PUSH2 0x1780 PUSH1 0x0 DUP7 ADD DUP3 PUSH2 0x1555 JUMP JUMPDEST POP PUSH1 0x20 DUP4 ADD MLOAD DUP5 DUP3 SUB PUSH1 0x20 DUP7 ADD MSTORE PUSH2 0x1798 DUP3 DUP3 PUSH2 0x15BB JUMP JUMPDEST SWAP2 POP POP PUSH1 0x40 DUP4 ADD MLOAD PUSH2 0x17AD PUSH1 0x40 DUP7 ADD DUP3 PUSH2 0x1555 JUMP JUMPDEST POP PUSH1 0x60 DUP4 ADD MLOAD PUSH2 0x17C0 PUSH1 0x60 DUP7 ADD DUP3 PUSH2 0x1555 JUMP JUMPDEST POP PUSH1 0x80 DUP4 ADD MLOAD PUSH2 0x17D3 PUSH1 0x80 DUP7 ADD DUP3 PUSH2 0x1555 JUMP JUMPDEST POP PUSH1 0xA0 DUP4 ADD MLOAD PUSH2 0x17E6 PUSH1 0xA0 DUP7 ADD DUP3 PUSH2 0x1677 JUMP JUMPDEST POP PUSH1 0xC0 DUP4 ADD MLOAD PUSH2 0x17F9 PUSH1 0xC0 DUP7 ADD DUP3 PUSH2 0x1677 JUMP JUMPDEST POP PUSH1 0xE0 DUP4 ADD MLOAD PUSH2 0x180C PUSH1 0xE0 DUP7 ADD DUP3 PUSH2 0x1677 JUMP JUMPDEST POP DUP1 SWAP2 POP POP SWAP3 SWAP2 POP POP JUMP JUMPDEST PUSH1 0x0 PUSH20 0xFFFFFFFFFFFFFFFFFFFFFFFFFFFFFFFFFFFFFFFF DUP3 AND SWAP1 POP SWAP2 SWAP1 POP JUMP JUMPDEST PUSH1 0x0 PUSH2 0x1842 DUP3 PUSH2 0x1817 JUMP JUMPDEST SWAP1 POP SWAP2 SWAP1 POP JUMP JUMPDEST PUSH2 0x1852 DUP2 PUSH2 0x1837 JUMP JUMPDEST DUP3 MSTORE POP POP JUMP JUMPDEST PUSH1 0x0 PUSH2 0x100 DUP4 ADD PUSH1 0x0 DUP4 ADD MLOAD PUSH2 0x1871 PUSH1 0x0 DUP7 ADD DUP3 PUSH2 0x1555 JUMP JUMPDEST POP PUSH1 0x20 DUP4 ADD MLOAD DUP5 DUP3 SUB PUSH1 0x20 DUP7 ADD MSTORE PUSH2 0x1889 DUP3 DUP3 PUSH2 0x1686 JUMP JUMPDEST SWAP2 POP POP PUSH1 0x40 DUP4 ADD MLOAD DUP5 DUP3 SUB PUSH1 0x40 DUP7 ADD MSTORE PUSH2 0x18A3 DUP3 DUP3 PUSH2 0x1767 JUMP JUMPDEST SWAP2 POP POP PUSH1 0x60 DUP4 ADD MLOAD PUSH2 0x18B8 PUSH1 0x60 DUP7 ADD DUP3 PUSH2 0x1849 JUMP JUMPDEST POP PUSH1 0x80 DUP4 ADD MLOAD PUSH2 0x18CB PUSH1 0x80 DUP7 ADD DUP3 PUSH2 0x1555 JUMP JUMPDEST POP PUSH1 0xA0 DUP4 ADD MLOAD PUSH2 0x18DE PUSH1 0xA0 DUP7 ADD DUP3 PUSH2 0x1555 JUMP JUMPDEST POP PUSH1 0xC0 DUP4 ADD MLOAD PUSH2 0x18F1 PUSH1 0xC0 DUP7 ADD DUP3 PUSH2 0x1555 JUMP JUMPDEST POP PUSH1 0xE0 DUP4 ADD MLOAD PUSH2 0x1904 PUSH1 0xE0 DUP7 ADD DUP3 PUSH2 0x1555 JUMP JUMPDEST POP DUP1 SWAP2 POP POP SWAP3 SWAP2 POP POP JUMP JUMPDEST PUSH1 0x0 PUSH2 0x191B DUP4 DUP4 PUSH2 0x1858 JUMP JUMPDEST SWAP1 POP SWAP3 SWAP2 POP POP JUMP JUMPDEST PUSH1 0x0 PUSH1 0x20 DUP3 ADD SWAP1 POP SWAP2 SWAP1 POP JUMP JUMPDEST PUSH1 0x0 PUSH2 0x193B DUP3 PUSH2 0x1529 JUMP JUMPDEST PUSH2 0x1945 DUP2 DUP6 PUSH2 0x1534 JUMP JUMPDEST SWAP4 POP DUP4 PUSH1 0x20 DUP3 MUL DUP6 ADD PUSH2 0x1957 DUP6 PUSH2 0x1545 JUMP JUMPDEST DUP1 PUSH1 0x0 JUMPDEST DUP6 DUP2 LT ISZERO PUSH2 0x1993 JUMPI DUP5 DUP5 SUB DUP10 MSTORE DUP2 MLOAD PUSH2 0x1974 DUP6 DUP3 PUSH2 0x190F JUMP JUMPDEST SWAP5 POP PUSH2 0x197F DUP4 PUSH2 0x1923 JUMP JUMPDEST SWAP3 POP PUSH1 0x20 DUP11 ADD SWAP10 POP POP PUSH1 0x1 DUP2 ADD SWAP1 POP PUSH2 0x195B JUMP JUMPDEST POP DUP3 SWAP8 POP DUP8 SWAP6 POP POP POP POP POP POP SWAP3 SWAP2 POP POP JUMP JUMPDEST PUSH1 0x0 PUSH1 0x20 DUP3 ADD SWAP1 POP DUP2 DUP2 SUB PUSH1 0x0 DUP4 ADD MSTORE PUSH2 0x19BF DUP2 DUP5 PUSH2 0x1930 JUMP JUMPDEST SWAP1 POP SWAP3 SWAP2 POP POP JUMP JUMPDEST PUSH1 0x0 DUP1 REVERT JUMPDEST PUSH2 0x19D5 DUP2 PUSH2 0x14F5 JUMP JUMPDEST DUP2 EQ PUSH2 0x19E0 JUMPI PUSH1 0x0 DUP1 REVERT JUMPDEST POP JUMP JUMPDEST PUSH1 0x0 DUP2 CALLDATALOAD SWAP1 POP PUSH2 0x19F2 DUP2 PUSH2 0x19CC JUMP JUMPDEST SWAP3 SWAP2 POP POP JUMP JUMPDEST PUSH1 0x0 DUP1 PUSH1 0x0 PUSH1 0x60 DUP5 DUP7 SUB SLT ISZERO PUSH2 0x1A11 JUMPI PUSH2 0x1A10 PUSH2 0x19C7 JUMP JUMPDEST JUMPDEST PUSH1 0x0 PUSH2 0x1A1F DUP7 DUP3 DUP8 ADD PUSH2 0x19E3 JUMP JUMPDEST SWAP4 POP POP PUSH1 0x20 PUSH2 0x1A30 DUP7 DUP3 DUP8 ADD PUSH2 0x19E3 JUMP JUMPDEST SWAP3 POP POP PUSH1 0x40 PUSH2 0x1A41 DUP7 DUP3 DUP8 ADD PUSH2 0x19E3 JUMP JUMPDEST SWAP2 POP POP SWAP3 POP SWAP3 POP SWAP3 JUMP JUMPDEST PUSH1 0x0 DUP3 DUP3 MSTORE PUSH1 0x20 DUP3 ADD SWAP1 POP SWAP3 SWAP2 POP POP JUMP JUMPDEST PUSH32 0x4F6E6C7920746178206F66666963652063616E2063616C6C2074686973206675 PUSH1 0x0 DUP3 ADD MSTORE PUSH32 0x6E6374696F6E0000000000000000000000000000000000000000000000000000 PUSH1 0x20 DUP3 ADD MSTORE POP JUMP JUMPDEST PUSH1 0x0 PUSH2 0x1AB8 PUSH1 0x26 DUP4 PUSH2 0x1A4B JUMP JUMPDEST SWAP2 POP PUSH2 0x1AC3 DUP3 PUSH2 0x1A5C JUMP JUMPDEST PUSH1 0x40 DUP3 ADD SWAP1 POP SWAP2 SWAP1 POP JUMP JUMPDEST PUSH1 0x0 PUSH1 0x20 DUP3 ADD SWAP1 POP DUP2 DUP2 SUB PUSH1 0x0 DUP4 ADD MSTORE PUSH2 0x1AE7 DUP2 PUSH2 0x1AAB JUMP JUMPDEST SWAP1 POP SWAP2 SWAP1 POP JUMP JUMPDEST PUSH32 0x4E487B7100000000000000000000000000000000000000000000000000000000 PUSH1 0x0 MSTORE PUSH1 0x11 PUSH1 0x4 MSTORE PUSH1 0x24 PUSH1 0x0 REVERT JUMPDEST PUSH1 0x0 PUSH2 0x1B28 DUP3 PUSH2 0x14F5 JUMP JUMPDEST SWAP2 POP PUSH2 0x1B33 DUP4 PUSH2 0x14F5 JUMP JUMPDEST SWAP3 POP DUP3 DUP3 MUL PUSH2 0x1B41 DUP2 PUSH2 0x14F5 JUMP JUMPDEST SWAP2 POP DUP3 DUP3 DIV DUP5 EQ DUP4 ISZERO OR PUSH2 0x1B58 JUMPI PUSH2 0x1B57 PUSH2 0x1AEE JUMP JUMPDEST JUMPDEST POP SWAP3 SWAP2 POP POP JUMP JUMPDEST PUSH32 0x4E487B7100000000000000000000000000000000000000000000000000000000 PUSH1 0x0 MSTORE PUSH1 0x12 PUSH1 0x4 MSTORE PUSH1 0x24 PUSH1 0x0 REVERT JUMPDEST PUSH1 0x0 PUSH2 0x1B99 DUP3 PUSH2 0x14F5 JUMP JUMPDEST SWAP2 POP PUSH2 0x1BA4 DUP4 PUSH2 0x14F5 JUMP JUMPDEST SWAP3 POP DUP3 PUSH2 0x1BB4 JUMPI PUSH2 0x1BB3 PUSH2 0x1B5F JUMP JUMPDEST JUMPDEST DUP3 DUP3 DIV SWAP1 POP SWAP3 SWAP2 POP POP JUMP JUMPDEST PUSH32 0x4E487B7100000000000000000000000000000000000000000000000000000000 PUSH1 0x0 MSTORE PUSH1 0x22 PUSH1 0x4 MSTORE PUSH1 0x24 PUSH1 0x0 REVERT JUMPDEST PUSH1 0x0 PUSH1 0x2 DUP3 DIV SWAP1 POP PUSH1 0x1 DUP3 AND DUP1 PUSH2 0x1C06 JUMPI PUSH1 0x7F DUP3 AND SWAP2 POP JUMPDEST PUSH1 0x20 DUP3 LT DUP2 SUB PUSH2 0x1C19 JUMPI PUSH2 0x1C18 PUSH2 0x1BBF JUMP JUMPDEST JUMPDEST POP SWAP2 SWAP1 POP JUMP JUMPDEST PUSH32 0x496E76616C696420726F6F6D2049440000000000000000000000000000000000 PUSH1 0x0 DUP3 ADD MSTORE POP JUMP JUMPDEST PUSH1 0x0 PUSH2 0x1C55 PUSH1 0xF DUP4 PUSH2 0x1A4B JUMP JUMPDEST SWAP2 POP PUSH2 0x1C60 DUP3 PUSH2 0x1C1F JUMP JUMPDEST PUSH1 0x20 DUP3 ADD SWAP1 POP SWAP2 SWAP1 POP JUMP JUMPDEST PUSH1 0x0 PUSH1 0x20 DUP3 ADD SWAP1 POP DUP2 DUP2 SUB PUSH1 0x0 DUP4 ADD MSTORE PUSH2 0x1C84 DUP2 PUSH2 0x1C48 JUMP JUMPDEST SWAP1 POP SWAP2 SWAP1 POP JUMP JUMPDEST PUSH32 0x496E76616C696420686F74656C20494400000000000000000000000000000000 PUSH1 0x0 DUP3 ADD MSTORE POP JUMP JUMPDEST PUSH1 0x0 PUSH2 0x1CC1 PUSH1 0x10 DUP4 PUSH2 0x1A4B JUMP JUMPDEST SWAP2 POP PUSH2 0x1CCC DUP3 PUSH2 0x1C8B JUMP JUMPDEST PUSH1 0x20 DUP3 ADD SWAP1 POP SWAP2 SWAP1 POP JUMP JUMPDEST PUSH1 0x0 PUSH1 0x20 DUP3 ADD SWAP1 POP DUP2 DUP2 SUB PUSH1 0x0 DUP4 ADD MSTORE PUSH2 0x1CF0 DUP2 PUSH2 0x1CB4 JUMP JUMPDEST SWAP1 POP SWAP2 SWAP1 POP JUMP JUMPDEST PUSH32 0x546F74616C206E756D626572206F662064617973206F6620726F6F6D2072656E PUSH1 0x0 DUP3 ADD MSTORE PUSH32 0x74616C2073686F756C642062652067726561746572207468616E203000000000 PUSH1 0x20 DUP3 ADD MSTORE POP JUMP JUMPDEST PUSH1 0x0 PUSH2 0x1D53 PUSH1 0x3C DUP4 PUSH2 0x1A4B JUMP JUMPDEST SWAP2 POP PUSH2 0x1D5E DUP3 PUSH2 0x1CF7 JUMP JUMPDEST PUSH1 0x40 DUP3 ADD SWAP1 POP SWAP2 SWAP1 POP JUMP JUMPDEST PUSH1 0x0 PUSH1 0x20 DUP3 ADD SWAP1 POP DUP2 DUP2 SUB PUSH1 0x0 DUP4 ADD MSTORE PUSH2 0x1D82 DUP2 PUSH2 0x1D46 JUMP JUMPDEST SWAP1 POP SWAP2 SWAP1 POP JUMP JUMPDEST PUSH1 0x0 PUSH2 0x1D94 DUP3 PUSH2 0x14F5 JUMP JUMPDEST SWAP2 POP PUSH2 0x1D9F DUP4 PUSH2 0x14F5 JUMP JUMPDEST SWAP3 POP DUP3 DUP3 SUB SWAP1 POP DUP2 DUP2 GT ISZERO PUSH2 0x1DB7 JUMPI PUSH2 0x1DB6 PUSH2 0x1AEE JUMP JUMPDEST JUMPDEST SWAP3 SWAP2 POP POP JUMP JUMPDEST PUSH32 0x4E487B7100000000000000000000000000000000000000000000000000000000 PUSH1 0x0 MSTORE PUSH1 0x32 PUSH1 0x4 MSTORE PUSH1 0x24 PUSH1 0x0 REVERT JUMPDEST PUSH1 0x0 PUSH2 0x1DF7 DUP3 PUSH2 0x14F5 JUMP JUMPDEST SWAP2 POP PUSH2 0x1E02 DUP4 PUSH2 0x14F5 JUMP JUMPDEST SWAP3 POP DUP3 DUP3 ADD SWAP1 POP DUP1 DUP3 GT ISZERO PUSH2 0x1E1A JUMPI PUSH2 0x1E19 PUSH2 0x1AEE JUMP JUMPDEST JUMPDEST SWAP3 SWAP2 POP POP JUMP JUMPDEST PUSH32 0x4E487B7100000000000000000000000000000000000000000000000000000000 PUSH1 0x0 MSTORE PUSH1 0x41 PUSH1 0x4 MSTORE PUSH1 0x24 PUSH1 0x0 REVERT JUMPDEST PUSH1 0x0 DUP2 SWAP1 POP DUP2 PUSH1 0x0 MSTORE PUSH1 0x20 PUSH1 0x0 KECCAK256 SWAP1 POP SWAP2 SWAP1 POP JUMP JUMPDEST PUSH1 0x0 PUSH1 0x20 PUSH1 0x1F DUP4 ADD DIV SWAP1 POP SWAP2 SWAP1 POP JUMP JUMPDEST PUSH1 0x0 DUP3 DUP3 SHL SWAP1 POP SWAP3 SWAP2 POP POP JUMP JUMPDEST PUSH1 0x0 PUSH1 0x8 DUP4 MUL PUSH2 0x1EB1 PUSH32 0xFFFFFFFFFFFFFFFFFFFFFFFFFFFFFFFFFFFFFFFFFFFFFFFFFFFFFFFFFFFFFFFF DUP3 PUSH2 0x1E74 JUMP JUMPDEST PUSH2 0x1EBB DUP7 DUP4 PUSH2 0x1E74 JUMP JUMPDEST SWAP6 POP DUP1 NOT DUP5 AND SWAP4 POP DUP1 DUP7 AND DUP5 OR SWAP3 POP POP POP SWAP4 SWAP3 POP POP POP JUMP JUMPDEST PUSH1 0x0 DUP2 SWAP1 POP SWAP2 SWAP1 POP JUMP JUMPDEST PUSH1 0x0 PUSH2 0x1EF8 PUSH2 0x1EF3 PUSH2 0x1EEE DUP5 PUSH2 0x14F5 JUMP JUMPDEST PUSH2 0x1ED3 JUMP JUMPDEST PUSH2 0x14F5 JUMP JUMPDEST SWAP1 POP SWAP2 SWAP1 POP JUMP JUMPDEST PUSH1 0x0 DUP2 SWAP1 POP SWAP2 SWAP1 POP JUMP JUMPDEST PUSH2 0x1F12 DUP4 PUSH2 0x1EDD JUMP JUMPDEST PUSH2 0x1F26 PUSH2 0x1F1E DUP3 PUSH2 0x1EFF JUMP JUMPDEST DUP5 DUP5 SLOAD PUSH2 0x1E81 JUMP JUMPDEST DUP3 SSTORE POP POP POP POP JUMP JUMPDEST PUSH1 0x0 SWAP1 JUMP JUMPDEST PUSH2 0x1F3B PUSH2 0x1F2E JUMP JUMPDEST PUSH2 0x1F46 DUP2 DUP5 DUP5 PUSH2 0x1F09 JUMP JUMPDEST POP POP POP JUMP JUMPDEST JUMPDEST DUP2 DUP2 LT ISZERO PUSH2 0x1F6A JUMPI PUSH2 0x1F5F PUSH1 0x0 DUP3 PUSH2 0x1F33 JUMP JUMPDEST PUSH1 0x1 DUP2 ADD SWAP1 POP PUSH2 0x1F4C JUMP JUMPDEST POP POP JUMP JUMPDEST PUSH1 0x1F DUP3 GT ISZERO PUSH2 0x1FAF JUMPI PUSH2 0x1F80 DUP2 PUSH2 0x1E4F JUMP JUMPDEST PUSH2 0x1F89 DUP5 PUSH2 0x1E64 JUMP JUMPDEST DUP2 ADD PUSH1 0x20 DUP6 LT ISZERO PUSH2 0x1F98 JUMPI DUP2 SWAP1 POP JUMPDEST PUSH2 0x1FAC PUSH2 0x1FA4 DUP6 PUSH2 0x1E64 JUMP JUMPDEST DUP4 ADD DUP3 PUSH2 0x1F4B JUMP JUMPDEST POP POP JUMPDEST POP POP POP JUMP JUMPDEST PUSH1 0x0 DUP3 DUP3 SHR SWAP1 POP SWAP3 SWAP2 POP POP JUMP JUMPDEST PUSH1 0x0 PUSH2 0x1FD2 PUSH1 0x0 NOT DUP5 PUSH1 0x8 MUL PUSH2 0x1FB4 JUMP JUMPDEST NOT DUP1 DUP4 AND SWAP2 POP POP SWAP3 SWAP2 POP POP JUMP JUMPDEST PUSH1 0x0 PUSH2 0x1FEB DUP4 DUP4 PUSH2 0x1FC1 JUMP JUMPDEST SWAP2 POP DUP3 PUSH1 0x2 MUL DUP3 OR SWAP1 POP SWAP3 SWAP2 POP POP JUMP JUMPDEST PUSH2 0x2004 DUP3 PUSH2 0x1564 JUMP JUMPDEST PUSH8 0xFFFFFFFFFFFFFFFF DUP2 GT ISZERO PUSH2 0x201D JUMPI PUSH2 0x201C PUSH2 0x1E20 JUMP JUMPDEST JUMPDEST PUSH2 0x2027 DUP3 SLOAD PUSH2 0x1BEE JUMP JUMPDEST PUSH2 0x2032 DUP3 DUP3 DUP6 PUSH2 0x1F6E JUMP JUMPDEST PUSH1 0x0 PUSH1 0x20 SWAP1 POP PUSH1 0x1F DUP4 GT PUSH1 0x1 DUP2 EQ PUSH2 0x2065 JUMPI PUSH1 0x0 DUP5 ISZERO PUSH2 0x2053 JUMPI DUP3 DUP8 ADD MLOAD SWAP1 POP JUMPDEST PUSH2 0x205D DUP6 DUP3 PUSH2 0x1FDF JUMP JUMPDEST DUP7 SSTORE POP PUSH2 0x20C5 JUMP JUMPDEST PUSH1 0x1F NOT DUP5 AND PUSH2 0x2073 DUP7 PUSH2 0x1E4F JUMP JUMPDEST PUSH1 0x0 JUMPDEST DUP3 DUP2 LT ISZERO PUSH2 0x209B JUMPI DUP5 DUP10 ADD MLOAD DUP3 SSTORE PUSH1 0x1 DUP3 ADD SWAP2 POP PUSH1 0x20 DUP6 ADD SWAP5 POP PUSH1 0x20 DUP2 ADD SWAP1 POP PUSH2 0x2076 JUMP JUMPDEST DUP7 DUP4 LT ISZERO PUSH2 0x20B8 JUMPI DUP5 DUP10 ADD MLOAD PUSH2 0x20B4 PUSH1 0x1F DUP10 AND DUP3 PUSH2 0x1FC1 JUMP JUMPDEST DUP4 SSTORE POP JUMPDEST PUSH1 0x1 PUSH1 0x2 DUP9 MUL ADD DUP9 SSTORE POP POP POP JUMPDEST POP POP POP POP POP POP JUMP JUMPDEST PUSH1 0x0 PUSH2 0x20D8 DUP3 PUSH2 0x14F5 JUMP JUMPDEST SWAP2 POP PUSH32 0xFFFFFFFFFFFFFFFFFFFFFFFFFFFFFFFFFFFFFFFFFFFFFFFFFFFFFFFFFFFFFFFF DUP3 SUB PUSH2 0x210A JUMPI PUSH2 0x2109 PUSH2 0x1AEE JUMP JUMPDEST JUMPDEST PUSH1 0x1 DUP3 ADD SWAP1 POP SWAP2 SWAP1 POP JUMP INVALID LOG2 PUSH5 0x6970667358 0x22 SLT KECCAK256 SMOD SUB CODECOPY 0xC4 0x4F CALLDATASIZE PUSH21 0x365409A3C500094B9A724F75026B3D37646B2B04B3 0x27 GT 0x23 GT PUSH5 0x736F6C6343 STOP ADDMOD SLT STOP CALLER "
				},
				"gasEstimates": {
					"creation": {
						"codeDepositCost": "1704600",
						"executionCost": "infinite",
						"totalCost": "infinite"
					},
					"external": {
						"createReservation(uint256,uint256,uint256)": "infinite",
						"getReservations()": "infinite",
						"getTaxes()": "infinite"
					},
					"internal": {
						"calculatePrice(uint256,uint256)": "infinite",
						"calculateTotalIncome()": "infinite",
						"incrementReservationID()": "24366",
						"prepareHotelRooms()": "infinite",
						"prepareHotels()": "infinite"
					}
				},
				"methodIdentifiers": {
					"createReservation(uint256,uint256,uint256)": "a97606e8",
					"getReservations()": "9c200b88",
					"getTaxes()": "2973ef2d"
				}
			},
			"storageLayout": {
				"storage": [
					{
						"astId": 63,
						"contract": "contracts/Booking.sol:Booking",
						"label": "taxOffice",
						"offset": 0,
						"slot": "0",
						"type": "t_address"
					},
					{
						"astId": 67,
						"contract": "contracts/Booking.sol:Booking",
						"label": "reservation",
						"offset": 0,
						"slot": "1",
						"type": "t_array(t_struct(Reservation)61_storage)dyn_storage"
					},
					{
						"astId": 69,
						"contract": "contracts/Booking.sol:Booking",
						"label": "reservationID",
						"offset": 0,
						"slot": "2",
						"type": "t_uint256"
					}
				],
				"types": {
					"t_address": {
						"encoding": "inplace",
						"label": "address",
						"numberOfBytes": "20"
					},
					"t_array(t_struct(Reservation)61_storage)dyn_storage": {
						"base": "t_struct(Reservation)61_storage",
						"encoding": "dynamic_array",
						"label": "struct Booking.Reservation[]",
						"numberOfBytes": "32"
					},
					"t_bool": {
						"encoding": "inplace",
						"label": "bool",
						"numberOfBytes": "1"
					},
					"t_enum(Country)5": {
						"encoding": "inplace",
						"label": "enum Booking.Country",
						"numberOfBytes": "1"
					},
					"t_string_storage": {
						"encoding": "bytes",
						"label": "string",
						"numberOfBytes": "32"
					},
					"t_struct(Hotel)25_storage": {
						"encoding": "inplace",
						"label": "struct Booking.Hotel",
						"members": [
							{
								"astId": 7,
								"contract": "contracts/Booking.sol:Booking",
								"label": "id",
								"offset": 0,
								"slot": "0",
								"type": "t_uint256"
							},
							{
								"astId": 9,
								"contract": "contracts/Booking.sol:Booking",
								"label": "name",
								"offset": 0,
								"slot": "1",
								"type": "t_string_storage"
							},
							{
								"astId": 11,
								"contract": "contracts/Booking.sol:Booking",
								"label": "city",
								"offset": 0,
								"slot": "2",
								"type": "t_string_storage"
							},
							{
								"astId": 14,
								"contract": "contracts/Booking.sol:Booking",
								"label": "country",
								"offset": 0,
								"slot": "3",
								"type": "t_enum(Country)5"
							},
							{
								"astId": 16,
								"contract": "contracts/Booking.sol:Booking",
								"label": "street",
								"offset": 0,
								"slot": "4",
								"type": "t_string_storage"
							},
							{
								"astId": 18,
								"contract": "contracts/Booking.sol:Booking",
								"label": "postalCode",
								"offset": 0,
								"slot": "5",
								"type": "t_string_storage"
							},
							{
								"astId": 20,
								"contract": "contracts/Booking.sol:Booking",
								"label": "phoneNumber",
								"offset": 0,
								"slot": "6",
								"type": "t_string_storage"
							},
							{
								"astId": 22,
								"contract": "contracts/Booking.sol:Booking",
								"label": "rating",
								"offset": 0,
								"slot": "7",
								"type": "t_uint256"
							},
							{
								"astId": 24,
								"contract": "contracts/Booking.sol:Booking",
								"label": "isOpen",
								"offset": 0,
								"slot": "8",
								"type": "t_bool"
							}
						],
						"numberOfBytes": "288"
					},
					"t_struct(Reservation)61_storage": {
						"encoding": "inplace",
						"label": "struct Booking.Reservation",
						"members": [
							{
								"astId": 44,
								"contract": "contracts/Booking.sol:Booking",
								"label": "id",
								"offset": 0,
								"slot": "0",
								"type": "t_uint256"
							},
							{
								"astId": 47,
								"contract": "contracts/Booking.sol:Booking",
								"label": "hotel",
								"offset": 0,
								"slot": "1",
								"type": "t_struct(Hotel)25_storage"
							},
							{
								"astId": 50,
								"contract": "contracts/Booking.sol:Booking",
								"label": "room",
								"offset": 0,
								"slot": "10",
								"type": "t_struct(Room)42_storage"
							},
							{
								"astId": 52,
								"contract": "contracts/Booking.sol:Booking",
								"label": "tenant",
								"offset": 0,
								"slot": "16",
								"type": "t_address"
							},
							{
								"astId": 54,
								"contract": "contracts/Booking.sol:Booking",
								"label": "price",
								"offset": 0,
								"slot": "17",
								"type": "t_uint256"
							},
							{
								"astId": 56,
								"contract": "contracts/Booking.sol:Booking",
								"label": "totalNumberOfDaysOfRoomRental",
								"offset": 0,
								"slot": "18",
								"type": "t_uint256"
							},
							{
								"astId": 58,
								"contract": "contracts/Booking.sol:Booking",
								"label": "startDate",
								"offset": 0,
								"slot": "19",
								"type": "t_uint256"
							},
							{
								"astId": 60,
								"contract": "contracts/Booking.sol:Booking",
								"label": "endDate",
								"offset": 0,
								"slot": "20",
								"type": "t_uint256"
							}
						],
						"numberOfBytes": "672"
					},
					"t_struct(Room)42_storage": {
						"encoding": "inplace",
						"label": "struct Booking.Room",
						"members": [
							{
								"astId": 27,
								"contract": "contracts/Booking.sol:Booking",
								"label": "id",
								"offset": 0,
								"slot": "0",
								"type": "t_uint256"
							},
							{
								"astId": 29,
								"contract": "contracts/Booking.sol:Booking",
								"label": "name",
								"offset": 0,
								"slot": "1",
								"type": "t_string_storage"
							},
							{
								"astId": 31,
								"contract": "contracts/Booking.sol:Booking",
								"label": "ratePerDay",
								"offset": 0,
								"slot": "2",
								"type": "t_uint256"
							},
							{
								"astId": 33,
								"contract": "contracts/Booking.sol:Booking",
								"label": "minimumPersonAmount",
								"offset": 0,
								"slot": "3",
								"type": "t_uint256"
							},
							{
								"astId": 35,
								"contract": "contracts/Booking.sol:Booking",
								"label": "maximumPersonAmount",
								"offset": 0,
								"slot": "4",
								"type": "t_uint256"
							},
							{
								"astId": 37,
								"contract": "contracts/Booking.sol:Booking",
								"label": "hasWifi",
								"offset": 0,
								"slot": "5",
								"type": "t_bool"
							},
							{
								"astId": 39,
								"contract": "contracts/Booking.sol:Booking",
								"label": "hasAirConditioning",
								"offset": 1,
								"slot": "5",
								"type": "t_bool"
							},
							{
								"astId": 41,
								"contract": "contracts/Booking.sol:Booking",
								"label": "isAvailable",
								"offset": 2,
								"slot": "5",
								"type": "t_bool"
							}
						],
						"numberOfBytes": "192"
					},
					"t_uint256": {
						"encoding": "inplace",
						"label": "uint256",
						"numberOfBytes": "32"
					}
				}
			},
			"userdoc": {
				"kind": "user",
				"methods": {},
				"version": 1
			}
		}
	}
}