{
	"data": {
		"bytecode": {
			"linkReferences": {},
			"object": "608060405234801561001057600080fd5b50600061002161005a60201b60201c565b9050600061003361020b60201b60201c565b90506100448261060f60201b60201c565b6100538161067760201b60201c565b5050610c15565b6100626107cf565b60006040518061010001604052806040518060400160405280600d81526020017f486f74656c204d65726b7572790000000000000000000000000000000000000081525081526020016040518060400160405280600681526020017f506f7a6e616e00000000000000000000000000000000000000000000000000008152508152602001600060028111156100fa576100f9610873565b5b81526020016040518060400160405280600981526020017f476c6f676f77736b61000000000000000000000000000000000000000000000081525081526020016040518060400160405280600681526020017f36312d363030000000000000000000000000000000000000000000000000000081525081526020016040518060400160405280600b81526020017f3530302d3530302d3530300000000000000000000000000000000000000000008152508152602001600581526020016001151581525090508060e00151610204576040517f08c379a00000000000000000000000000000000000000000000000000000000081526004016101fb906108ff565b60405180910390fd5b8091505090565b60606000600667ffffffffffffffff81111561022a5761022961091f565b5b60405190808252806020026020018201604052801561026357816020015b610250610828565b8152602001906001900390816102485790505b509050604051806101000160405280600181526020016040518060400160405280600981526020017f5072656d69756d20310000000000000000000000000000000000000000000000815250815260200160c88152602001600181526020016004815260200160011515815260200160011515815260200160011515815250816000815181106102f6576102f561094e565b5b6020026020010181905250604051806101000160405280600281526020016040518060400160405280600981526020017f5072656d69756d20320000000000000000000000000000000000000000000000815250815260200160c88152602001600181526020016004815260200160011515815260200160011515815260200160001515815250816001815181106103915761039061094e565b5b6020026020010181905250604051806101000160405280600381526020016040518060400160405280600a81526020017f5374616e646172642031000000000000000000000000000000000000000000008152508152602001606481526020016001815260200160068152602001600115158152602001600015158152602001600115158152508160028151811061042c5761042b61094e565b5b6020026020010181905250604051806101000160405280600481526020016040518060400160405280600a81526020017f5374616e64617264203200000000000000000000000000000000000000000000815250815260200160c88152602001600181526020016007815260200160001515815260200160001515815260200160001515815250816003815181106104c7576104c661094e565b5b6020026020010181905250604051806101000160405280600581526020016040518060400160405280600681526020017f506f6f722031000000000000000000000000000000000000000000000000000081525081526020016032815260200160018152602001600a815260200160001515815260200160001515815260200160011515815250816004815181106105625761056161094e565b5b6020026020010181905250604051806101000160405280600681526020016040518060400160405280600681526020017f506f6f7220320000000000000000000000000000000000000000000000000000815250815260200160328152602001600181526020016014815260200160001515815260200160001515815260200160001515815250816005815181106105fd576105fc61094e565b5b60200260200101819052508091505090565b7ff6f7d9d9803e4d892d2dc7733f082e78b08c6d20562c92353d2a2e0330ee1f8c816000015182602001518360400151846060015185608001518660a001518760c001518860e0015160405161066c989796959493929190610a78565b60405180910390a150565b60005b81518110156107cb577ff6fbce65c2c27c63ae0bf1f7ae3e52695bd8cd1e05659a4a77ca949cc7dc7c048282815181106106b7576106b661094e565b5b6020026020010151600001518383815181106106d6576106d561094e565b5b6020026020010151602001518484815181106106f5576106f461094e565b5b6020026020010151604001518585815181106107145761071361094e565b5b6020026020010151606001518686815181106107335761073261094e565b5b6020026020010151608001518787815181106107525761075161094e565b5b602002602001015160a001518888815181106107715761077061094e565b5b602002602001015160c001518989815181106107905761078f61094e565b5b602002602001015160e001516040516107b0989796959493929190610b19565b60405180910390a180806107c390610bcd565b91505061067a565b5050565b6040518061010001604052806060815260200160608152602001600060028111156107fd576107fc610873565b5b8152602001606081526020016060815260200160608152602001600081526020016000151581525090565b60405180610100016040528060008152602001606081526020016000815260200160008152602001600081526020016000151581526020016000151581526020016000151581525090565b7f4e487b7100000000000000000000000000000000000000000000000000000000600052602160045260246000fd5b600082825260208201905092915050565b7f54686520686f74656c20697320636c6f73650000000000000000000000000000600082015250565b60006108e96012836108a2565b91506108f4826108b3565b602082019050919050565b60006020820190508181036000830152610918816108dc565b9050919050565b7f4e487b7100000000000000000000000000000000000000000000000000000000600052604160045260246000fd5b7f4e487b7100000000000000000000000000000000000000000000000000000000600052603260045260246000fd5b600081519050919050565b60005b838110156109a657808201518184015260208101905061098b565b60008484015250505050565b6000601f19601f8301169050919050565b60006109ce8261097d565b6109d881856108a2565b93506109e8818560208601610988565b6109f1816109b2565b840191505092915050565b60038110610a0d57610a0c610873565b5b50565b6000819050610a1e826109fc565b919050565b6000610a2e82610a10565b9050919050565b610a3e81610a23565b82525050565b6000819050919050565b610a5781610a44565b82525050565b60008115159050919050565b610a7281610a5d565b82525050565b6000610100820190508181036000830152610a93818b6109c3565b90508181036020830152610aa7818a6109c3565b9050610ab66040830189610a35565b8181036060830152610ac881886109c3565b90508181036080830152610adc81876109c3565b905081810360a0830152610af081866109c3565b9050610aff60c0830185610a4e565b610b0c60e0830184610a69565b9998505050505050505050565b600061010082019050610b2f600083018b610a4e565b8181036020830152610b41818a6109c3565b9050610b506040830189610a4e565b610b5d6060830188610a4e565b610b6a6080830187610a4e565b610b7760a0830186610a69565b610b8460c0830185610a69565b610b9160e0830184610a69565b9998505050505050505050565b7f4e487b7100000000000000000000000000000000000000000000000000000000600052601160045260246000fd5b6000610bd882610a44565b91507fffffffffffffffffffffffffffffffffffffffffffffffffffffffffffffffff8203610c0a57610c09610b9e565b5b600182019050919050565b60e280610c236000396000f3fe608060405260043610601c5760003560e01c80633317d8c4146021575b600080fd5b60376004803603810190603391906073565b6039565b005b5050565b600080fd5b6000819050919050565b6053816042565b8114605d57600080fd5b50565b600081359050606d81604c565b92915050565b600080604083850312156087576086603d565b5b60006093858286016060565b925050602060a2858286016060565b915050925092905056fea264697066735822122050d0be1fdc81f37a71ba3542866ce353db76e464a0ae7e2bf42685a0b44a7ebb64736f6c63430008120033",
			"opcodes": "PUSH1 0x80 PUSH1 0x40 MSTORE CALLVALUE DUP1 ISZERO PUSH2 0x10 JUMPI PUSH1 0x0 DUP1 REVERT JUMPDEST POP PUSH1 0x0 PUSH2 0x21 PUSH2 0x5A PUSH1 0x20 SHL PUSH1 0x20 SHR JUMP JUMPDEST SWAP1 POP PUSH1 0x0 PUSH2 0x33 PUSH2 0x20B PUSH1 0x20 SHL PUSH1 0x20 SHR JUMP JUMPDEST SWAP1 POP PUSH2 0x44 DUP3 PUSH2 0x60F PUSH1 0x20 SHL PUSH1 0x20 SHR JUMP JUMPDEST PUSH2 0x53 DUP2 PUSH2 0x677 PUSH1 0x20 SHL PUSH1 0x20 SHR JUMP JUMPDEST POP POP PUSH2 0xC15 JUMP JUMPDEST PUSH2 0x62 PUSH2 0x7CF JUMP JUMPDEST PUSH1 0x0 PUSH1 0x40 MLOAD DUP1 PUSH2 0x100 ADD PUSH1 0x40 MSTORE DUP1 PUSH1 0x40 MLOAD DUP1 PUSH1 0x40 ADD PUSH1 0x40 MSTORE DUP1 PUSH1 0xD DUP2 MSTORE PUSH1 0x20 ADD PUSH32 0x486F74656C204D65726B75727900000000000000000000000000000000000000 DUP2 MSTORE POP DUP2 MSTORE PUSH1 0x20 ADD PUSH1 0x40 MLOAD DUP1 PUSH1 0x40 ADD PUSH1 0x40 MSTORE DUP1 PUSH1 0x6 DUP2 MSTORE PUSH1 0x20 ADD PUSH32 0x506F7A6E616E0000000000000000000000000000000000000000000000000000 DUP2 MSTORE POP DUP2 MSTORE PUSH1 0x20 ADD PUSH1 0x0 PUSH1 0x2 DUP2 GT ISZERO PUSH2 0xFA JUMPI PUSH2 0xF9 PUSH2 0x873 JUMP JUMPDEST JUMPDEST DUP2 MSTORE PUSH1 0x20 ADD PUSH1 0x40 MLOAD DUP1 PUSH1 0x40 ADD PUSH1 0x40 MSTORE DUP1 PUSH1 0x9 DUP2 MSTORE PUSH1 0x20 ADD PUSH32 0x476C6F676F77736B610000000000000000000000000000000000000000000000 DUP2 MSTORE POP DUP2 MSTORE PUSH1 0x20 ADD PUSH1 0x40 MLOAD DUP1 PUSH1 0x40 ADD PUSH1 0x40 MSTORE DUP1 PUSH1 0x6 DUP2 MSTORE PUSH1 0x20 ADD PUSH32 0x36312D3630300000000000000000000000000000000000000000000000000000 DUP2 MSTORE POP DUP2 MSTORE PUSH1 0x20 ADD PUSH1 0x40 MLOAD DUP1 PUSH1 0x40 ADD PUSH1 0x40 MSTORE DUP1 PUSH1 0xB DUP2 MSTORE PUSH1 0x20 ADD PUSH32 0x3530302D3530302D353030000000000000000000000000000000000000000000 DUP2 MSTORE POP DUP2 MSTORE PUSH1 0x20 ADD PUSH1 0x5 DUP2 MSTORE PUSH1 0x20 ADD PUSH1 0x1 ISZERO ISZERO DUP2 MSTORE POP SWAP1 POP DUP1 PUSH1 0xE0 ADD MLOAD PUSH2 0x204 JUMPI PUSH1 0x40 MLOAD PUSH32 0x8C379A000000000000000000000000000000000000000000000000000000000 DUP2 MSTORE PUSH1 0x4 ADD PUSH2 0x1FB SWAP1 PUSH2 0x8FF JUMP JUMPDEST PUSH1 0x40 MLOAD DUP1 SWAP2 SUB SWAP1 REVERT JUMPDEST DUP1 SWAP2 POP POP SWAP1 JUMP JUMPDEST PUSH1 0x60 PUSH1 0x0 PUSH1 0x6 PUSH8 0xFFFFFFFFFFFFFFFF DUP2 GT ISZERO PUSH2 0x22A JUMPI PUSH2 0x229 PUSH2 0x91F JUMP JUMPDEST JUMPDEST PUSH1 0x40 MLOAD SWAP1 DUP1 DUP3 MSTORE DUP1 PUSH1 0x20 MUL PUSH1 0x20 ADD DUP3 ADD PUSH1 0x40 MSTORE DUP1 ISZERO PUSH2 0x263 JUMPI DUP2 PUSH1 0x20 ADD JUMPDEST PUSH2 0x250 PUSH2 0x828 JUMP JUMPDEST DUP2 MSTORE PUSH1 0x20 ADD SWAP1 PUSH1 0x1 SWAP1 SUB SWAP1 DUP2 PUSH2 0x248 JUMPI SWAP1 POP JUMPDEST POP SWAP1 POP PUSH1 0x40 MLOAD DUP1 PUSH2 0x100 ADD PUSH1 0x40 MSTORE DUP1 PUSH1 0x1 DUP2 MSTORE PUSH1 0x20 ADD PUSH1 0x40 MLOAD DUP1 PUSH1 0x40 ADD PUSH1 0x40 MSTORE DUP1 PUSH1 0x9 DUP2 MSTORE PUSH1 0x20 ADD PUSH32 0x5072656D69756D20310000000000000000000000000000000000000000000000 DUP2 MSTORE POP DUP2 MSTORE PUSH1 0x20 ADD PUSH1 0xC8 DUP2 MSTORE PUSH1 0x20 ADD PUSH1 0x1 DUP2 MSTORE PUSH1 0x20 ADD PUSH1 0x4 DUP2 MSTORE PUSH1 0x20 ADD PUSH1 0x1 ISZERO ISZERO DUP2 MSTORE PUSH1 0x20 ADD PUSH1 0x1 ISZERO ISZERO DUP2 MSTORE PUSH1 0x20 ADD PUSH1 0x1 ISZERO ISZERO DUP2 MSTORE POP DUP2 PUSH1 0x0 DUP2 MLOAD DUP2 LT PUSH2 0x2F6 JUMPI PUSH2 0x2F5 PUSH2 0x94E JUMP JUMPDEST JUMPDEST PUSH1 0x20 MUL PUSH1 0x20 ADD ADD DUP2 SWAP1 MSTORE POP PUSH1 0x40 MLOAD DUP1 PUSH2 0x100 ADD PUSH1 0x40 MSTORE DUP1 PUSH1 0x2 DUP2 MSTORE PUSH1 0x20 ADD PUSH1 0x40 MLOAD DUP1 PUSH1 0x40 ADD PUSH1 0x40 MSTORE DUP1 PUSH1 0x9 DUP2 MSTORE PUSH1 0x20 ADD PUSH32 0x5072656D69756D20320000000000000000000000000000000000000000000000 DUP2 MSTORE POP DUP2 MSTORE PUSH1 0x20 ADD PUSH1 0xC8 DUP2 MSTORE PUSH1 0x20 ADD PUSH1 0x1 DUP2 MSTORE PUSH1 0x20 ADD PUSH1 0x4 DUP2 MSTORE PUSH1 0x20 ADD PUSH1 0x1 ISZERO ISZERO DUP2 MSTORE PUSH1 0x20 ADD PUSH1 0x1 ISZERO ISZERO DUP2 MSTORE PUSH1 0x20 ADD PUSH1 0x0 ISZERO ISZERO DUP2 MSTORE POP DUP2 PUSH1 0x1 DUP2 MLOAD DUP2 LT PUSH2 0x391 JUMPI PUSH2 0x390 PUSH2 0x94E JUMP JUMPDEST JUMPDEST PUSH1 0x20 MUL PUSH1 0x20 ADD ADD DUP2 SWAP1 MSTORE POP PUSH1 0x40 MLOAD DUP1 PUSH2 0x100 ADD PUSH1 0x40 MSTORE DUP1 PUSH1 0x3 DUP2 MSTORE PUSH1 0x20 ADD PUSH1 0x40 MLOAD DUP1 PUSH1 0x40 ADD PUSH1 0x40 MSTORE DUP1 PUSH1 0xA DUP2 MSTORE PUSH1 0x20 ADD PUSH32 0x5374616E64617264203100000000000000000000000000000000000000000000 DUP2 MSTORE POP DUP2 MSTORE PUSH1 0x20 ADD PUSH1 0x64 DUP2 MSTORE PUSH1 0x20 ADD PUSH1 0x1 DUP2 MSTORE PUSH1 0x20 ADD PUSH1 0x6 DUP2 MSTORE PUSH1 0x20 ADD PUSH1 0x1 ISZERO ISZERO DUP2 MSTORE PUSH1 0x20 ADD PUSH1 0x0 ISZERO ISZERO DUP2 MSTORE PUSH1 0x20 ADD PUSH1 0x1 ISZERO ISZERO DUP2 MSTORE POP DUP2 PUSH1 0x2 DUP2 MLOAD DUP2 LT PUSH2 0x42C JUMPI PUSH2 0x42B PUSH2 0x94E JUMP JUMPDEST JUMPDEST PUSH1 0x20 MUL PUSH1 0x20 ADD ADD DUP2 SWAP1 MSTORE POP PUSH1 0x40 MLOAD DUP1 PUSH2 0x100 ADD PUSH1 0x40 MSTORE DUP1 PUSH1 0x4 DUP2 MSTORE PUSH1 0x20 ADD PUSH1 0x40 MLOAD DUP1 PUSH1 0x40 ADD PUSH1 0x40 MSTORE DUP1 PUSH1 0xA DUP2 MSTORE PUSH1 0x20 ADD PUSH32 0x5374616E64617264203200000000000000000000000000000000000000000000 DUP2 MSTORE POP DUP2 MSTORE PUSH1 0x20 ADD PUSH1 0xC8 DUP2 MSTORE PUSH1 0x20 ADD PUSH1 0x1 DUP2 MSTORE PUSH1 0x20 ADD PUSH1 0x7 DUP2 MSTORE PUSH1 0x20 ADD PUSH1 0x0 ISZERO ISZERO DUP2 MSTORE PUSH1 0x20 ADD PUSH1 0x0 ISZERO ISZERO DUP2 MSTORE PUSH1 0x20 ADD PUSH1 0x0 ISZERO ISZERO DUP2 MSTORE POP DUP2 PUSH1 0x3 DUP2 MLOAD DUP2 LT PUSH2 0x4C7 JUMPI PUSH2 0x4C6 PUSH2 0x94E JUMP JUMPDEST JUMPDEST PUSH1 0x20 MUL PUSH1 0x20 ADD ADD DUP2 SWAP1 MSTORE POP PUSH1 0x40 MLOAD DUP1 PUSH2 0x100 ADD PUSH1 0x40 MSTORE DUP1 PUSH1 0x5 DUP2 MSTORE PUSH1 0x20 ADD PUSH1 0x40 MLOAD DUP1 PUSH1 0x40 ADD PUSH1 0x40 MSTORE DUP1 PUSH1 0x6 DUP2 MSTORE PUSH1 0x20 ADD PUSH32 0x506F6F7220310000000000000000000000000000000000000000000000000000 DUP2 MSTORE POP DUP2 MSTORE PUSH1 0x20 ADD PUSH1 0x32 DUP2 MSTORE PUSH1 0x20 ADD PUSH1 0x1 DUP2 MSTORE PUSH1 0x20 ADD PUSH1 0xA DUP2 MSTORE PUSH1 0x20 ADD PUSH1 0x0 ISZERO ISZERO DUP2 MSTORE PUSH1 0x20 ADD PUSH1 0x0 ISZERO ISZERO DUP2 MSTORE PUSH1 0x20 ADD PUSH1 0x1 ISZERO ISZERO DUP2 MSTORE POP DUP2 PUSH1 0x4 DUP2 MLOAD DUP2 LT PUSH2 0x562 JUMPI PUSH2 0x561 PUSH2 0x94E JUMP JUMPDEST JUMPDEST PUSH1 0x20 MUL PUSH1 0x20 ADD ADD DUP2 SWAP1 MSTORE POP PUSH1 0x40 MLOAD DUP1 PUSH2 0x100 ADD PUSH1 0x40 MSTORE DUP1 PUSH1 0x6 DUP2 MSTORE PUSH1 0x20 ADD PUSH1 0x40 MLOAD DUP1 PUSH1 0x40 ADD PUSH1 0x40 MSTORE DUP1 PUSH1 0x6 DUP2 MSTORE PUSH1 0x20 ADD PUSH32 0x506F6F7220320000000000000000000000000000000000000000000000000000 DUP2 MSTORE POP DUP2 MSTORE PUSH1 0x20 ADD PUSH1 0x32 DUP2 MSTORE PUSH1 0x20 ADD PUSH1 0x1 DUP2 MSTORE PUSH1 0x20 ADD PUSH1 0x14 DUP2 MSTORE PUSH1 0x20 ADD PUSH1 0x0 ISZERO ISZERO DUP2 MSTORE PUSH1 0x20 ADD PUSH1 0x0 ISZERO ISZERO DUP2 MSTORE PUSH1 0x20 ADD PUSH1 0x0 ISZERO ISZERO DUP2 MSTORE POP DUP2 PUSH1 0x5 DUP2 MLOAD DUP2 LT PUSH2 0x5FD JUMPI PUSH2 0x5FC PUSH2 0x94E JUMP JUMPDEST JUMPDEST PUSH1 0x20 MUL PUSH1 0x20 ADD ADD DUP2 SWAP1 MSTORE POP DUP1 SWAP2 POP POP SWAP1 JUMP JUMPDEST PUSH32 0xF6F7D9D9803E4D892D2DC7733F082E78B08C6D20562C92353D2A2E0330EE1F8C DUP2 PUSH1 0x0 ADD MLOAD DUP3 PUSH1 0x20 ADD MLOAD DUP4 PUSH1 0x40 ADD MLOAD DUP5 PUSH1 0x60 ADD MLOAD DUP6 PUSH1 0x80 ADD MLOAD DUP7 PUSH1 0xA0 ADD MLOAD DUP8 PUSH1 0xC0 ADD MLOAD DUP9 PUSH1 0xE0 ADD MLOAD PUSH1 0x40 MLOAD PUSH2 0x66C SWAP9 SWAP8 SWAP7 SWAP6 SWAP5 SWAP4 SWAP3 SWAP2 SWAP1 PUSH2 0xA78 JUMP JUMPDEST PUSH1 0x40 MLOAD DUP1 SWAP2 SUB SWAP1 LOG1 POP JUMP JUMPDEST PUSH1 0x0 JUMPDEST DUP2 MLOAD DUP2 LT ISZERO PUSH2 0x7CB JUMPI PUSH32 0xF6FBCE65C2C27C63AE0BF1F7AE3E52695BD8CD1E05659A4A77CA949CC7DC7C04 DUP3 DUP3 DUP2 MLOAD DUP2 LT PUSH2 0x6B7 JUMPI PUSH2 0x6B6 PUSH2 0x94E JUMP JUMPDEST JUMPDEST PUSH1 0x20 MUL PUSH1 0x20 ADD ADD MLOAD PUSH1 0x0 ADD MLOAD DUP4 DUP4 DUP2 MLOAD DUP2 LT PUSH2 0x6D6 JUMPI PUSH2 0x6D5 PUSH2 0x94E JUMP JUMPDEST JUMPDEST PUSH1 0x20 MUL PUSH1 0x20 ADD ADD MLOAD PUSH1 0x20 ADD MLOAD DUP5 DUP5 DUP2 MLOAD DUP2 LT PUSH2 0x6F5 JUMPI PUSH2 0x6F4 PUSH2 0x94E JUMP JUMPDEST JUMPDEST PUSH1 0x20 MUL PUSH1 0x20 ADD ADD MLOAD PUSH1 0x40 ADD MLOAD DUP6 DUP6 DUP2 MLOAD DUP2 LT PUSH2 0x714 JUMPI PUSH2 0x713 PUSH2 0x94E JUMP JUMPDEST JUMPDEST PUSH1 0x20 MUL PUSH1 0x20 ADD ADD MLOAD PUSH1 0x60 ADD MLOAD DUP7 DUP7 DUP2 MLOAD DUP2 LT PUSH2 0x733 JUMPI PUSH2 0x732 PUSH2 0x94E JUMP JUMPDEST JUMPDEST PUSH1 0x20 MUL PUSH1 0x20 ADD ADD MLOAD PUSH1 0x80 ADD MLOAD DUP8 DUP8 DUP2 MLOAD DUP2 LT PUSH2 0x752 JUMPI PUSH2 0x751 PUSH2 0x94E JUMP JUMPDEST JUMPDEST PUSH1 0x20 MUL PUSH1 0x20 ADD ADD MLOAD PUSH1 0xA0 ADD MLOAD DUP9 DUP9 DUP2 MLOAD DUP2 LT PUSH2 0x771 JUMPI PUSH2 0x770 PUSH2 0x94E JUMP JUMPDEST JUMPDEST PUSH1 0x20 MUL PUSH1 0x20 ADD ADD MLOAD PUSH1 0xC0 ADD MLOAD DUP10 DUP10 DUP2 MLOAD DUP2 LT PUSH2 0x790 JUMPI PUSH2 0x78F PUSH2 0x94E JUMP JUMPDEST JUMPDEST PUSH1 0x20 MUL PUSH1 0x20 ADD ADD MLOAD PUSH1 0xE0 ADD MLOAD PUSH1 0x40 MLOAD PUSH2 0x7B0 SWAP9 SWAP8 SWAP7 SWAP6 SWAP5 SWAP4 SWAP3 SWAP2 SWAP1 PUSH2 0xB19 JUMP JUMPDEST PUSH1 0x40 MLOAD DUP1 SWAP2 SUB SWAP1 LOG1 DUP1 DUP1 PUSH2 0x7C3 SWAP1 PUSH2 0xBCD JUMP JUMPDEST SWAP2 POP POP PUSH2 0x67A JUMP JUMPDEST POP POP JUMP JUMPDEST PUSH1 0x40 MLOAD DUP1 PUSH2 0x100 ADD PUSH1 0x40 MSTORE DUP1 PUSH1 0x60 DUP2 MSTORE PUSH1 0x20 ADD PUSH1 0x60 DUP2 MSTORE PUSH1 0x20 ADD PUSH1 0x0 PUSH1 0x2 DUP2 GT ISZERO PUSH2 0x7FD JUMPI PUSH2 0x7FC PUSH2 0x873 JUMP JUMPDEST JUMPDEST DUP2 MSTORE PUSH1 0x20 ADD PUSH1 0x60 DUP2 MSTORE PUSH1 0x20 ADD PUSH1 0x60 DUP2 MSTORE PUSH1 0x20 ADD PUSH1 0x60 DUP2 MSTORE PUSH1 0x20 ADD PUSH1 0x0 DUP2 MSTORE PUSH1 0x20 ADD PUSH1 0x0 ISZERO ISZERO DUP2 MSTORE POP SWAP1 JUMP JUMPDEST PUSH1 0x40 MLOAD DUP1 PUSH2 0x100 ADD PUSH1 0x40 MSTORE DUP1 PUSH1 0x0 DUP2 MSTORE PUSH1 0x20 ADD PUSH1 0x60 DUP2 MSTORE PUSH1 0x20 ADD PUSH1 0x0 DUP2 MSTORE PUSH1 0x20 ADD PUSH1 0x0 DUP2 MSTORE PUSH1 0x20 ADD PUSH1 0x0 DUP2 MSTORE PUSH1 0x20 ADD PUSH1 0x0 ISZERO ISZERO DUP2 MSTORE PUSH1 0x20 ADD PUSH1 0x0 ISZERO ISZERO DUP2 MSTORE PUSH1 0x20 ADD PUSH1 0x0 ISZERO ISZERO DUP2 MSTORE POP SWAP1 JUMP JUMPDEST PUSH32 0x4E487B7100000000000000000000000000000000000000000000000000000000 PUSH1 0x0 MSTORE PUSH1 0x21 PUSH1 0x4 MSTORE PUSH1 0x24 PUSH1 0x0 REVERT JUMPDEST PUSH1 0x0 DUP3 DUP3 MSTORE PUSH1 0x20 DUP3 ADD SWAP1 POP SWAP3 SWAP2 POP POP JUMP JUMPDEST PUSH32 0x54686520686F74656C20697320636C6F73650000000000000000000000000000 PUSH1 0x0 DUP3 ADD MSTORE POP JUMP JUMPDEST PUSH1 0x0 PUSH2 0x8E9 PUSH1 0x12 DUP4 PUSH2 0x8A2 JUMP JUMPDEST SWAP2 POP PUSH2 0x8F4 DUP3 PUSH2 0x8B3 JUMP JUMPDEST PUSH1 0x20 DUP3 ADD SWAP1 POP SWAP2 SWAP1 POP JUMP JUMPDEST PUSH1 0x0 PUSH1 0x20 DUP3 ADD SWAP1 POP DUP2 DUP2 SUB PUSH1 0x0 DUP4 ADD MSTORE PUSH2 0x918 DUP2 PUSH2 0x8DC JUMP JUMPDEST SWAP1 POP SWAP2 SWAP1 POP JUMP JUMPDEST PUSH32 0x4E487B7100000000000000000000000000000000000000000000000000000000 PUSH1 0x0 MSTORE PUSH1 0x41 PUSH1 0x4 MSTORE PUSH1 0x24 PUSH1 0x0 REVERT JUMPDEST PUSH32 0x4E487B7100000000000000000000000000000000000000000000000000000000 PUSH1 0x0 MSTORE PUSH1 0x32 PUSH1 0x4 MSTORE PUSH1 0x24 PUSH1 0x0 REVERT JUMPDEST PUSH1 0x0 DUP2 MLOAD SWAP1 POP SWAP2 SWAP1 POP JUMP JUMPDEST PUSH1 0x0 JUMPDEST DUP4 DUP2 LT ISZERO PUSH2 0x9A6 JUMPI DUP1 DUP3 ADD MLOAD DUP2 DUP5 ADD MSTORE PUSH1 0x20 DUP2 ADD SWAP1 POP PUSH2 0x98B JUMP JUMPDEST PUSH1 0x0 DUP5 DUP5 ADD MSTORE POP POP POP POP JUMP JUMPDEST PUSH1 0x0 PUSH1 0x1F NOT PUSH1 0x1F DUP4 ADD AND SWAP1 POP SWAP2 SWAP1 POP JUMP JUMPDEST PUSH1 0x0 PUSH2 0x9CE DUP3 PUSH2 0x97D JUMP JUMPDEST PUSH2 0x9D8 DUP2 DUP6 PUSH2 0x8A2 JUMP JUMPDEST SWAP4 POP PUSH2 0x9E8 DUP2 DUP6 PUSH1 0x20 DUP7 ADD PUSH2 0x988 JUMP JUMPDEST PUSH2 0x9F1 DUP2 PUSH2 0x9B2 JUMP JUMPDEST DUP5 ADD SWAP2 POP POP SWAP3 SWAP2 POP POP JUMP JUMPDEST PUSH1 0x3 DUP2 LT PUSH2 0xA0D JUMPI PUSH2 0xA0C PUSH2 0x873 JUMP JUMPDEST JUMPDEST POP JUMP JUMPDEST PUSH1 0x0 DUP2 SWAP1 POP PUSH2 0xA1E DUP3 PUSH2 0x9FC JUMP JUMPDEST SWAP2 SWAP1 POP JUMP JUMPDEST PUSH1 0x0 PUSH2 0xA2E DUP3 PUSH2 0xA10 JUMP JUMPDEST SWAP1 POP SWAP2 SWAP1 POP JUMP JUMPDEST PUSH2 0xA3E DUP2 PUSH2 0xA23 JUMP JUMPDEST DUP3 MSTORE POP POP JUMP JUMPDEST PUSH1 0x0 DUP2 SWAP1 POP SWAP2 SWAP1 POP JUMP JUMPDEST PUSH2 0xA57 DUP2 PUSH2 0xA44 JUMP JUMPDEST DUP3 MSTORE POP POP JUMP JUMPDEST PUSH1 0x0 DUP2 ISZERO ISZERO SWAP1 POP SWAP2 SWAP1 POP JUMP JUMPDEST PUSH2 0xA72 DUP2 PUSH2 0xA5D JUMP JUMPDEST DUP3 MSTORE POP POP JUMP JUMPDEST PUSH1 0x0 PUSH2 0x100 DUP3 ADD SWAP1 POP DUP2 DUP2 SUB PUSH1 0x0 DUP4 ADD MSTORE PUSH2 0xA93 DUP2 DUP12 PUSH2 0x9C3 JUMP JUMPDEST SWAP1 POP DUP2 DUP2 SUB PUSH1 0x20 DUP4 ADD MSTORE PUSH2 0xAA7 DUP2 DUP11 PUSH2 0x9C3 JUMP JUMPDEST SWAP1 POP PUSH2 0xAB6 PUSH1 0x40 DUP4 ADD DUP10 PUSH2 0xA35 JUMP JUMPDEST DUP2 DUP2 SUB PUSH1 0x60 DUP4 ADD MSTORE PUSH2 0xAC8 DUP2 DUP9 PUSH2 0x9C3 JUMP JUMPDEST SWAP1 POP DUP2 DUP2 SUB PUSH1 0x80 DUP4 ADD MSTORE PUSH2 0xADC DUP2 DUP8 PUSH2 0x9C3 JUMP JUMPDEST SWAP1 POP DUP2 DUP2 SUB PUSH1 0xA0 DUP4 ADD MSTORE PUSH2 0xAF0 DUP2 DUP7 PUSH2 0x9C3 JUMP JUMPDEST SWAP1 POP PUSH2 0xAFF PUSH1 0xC0 DUP4 ADD DUP6 PUSH2 0xA4E JUMP JUMPDEST PUSH2 0xB0C PUSH1 0xE0 DUP4 ADD DUP5 PUSH2 0xA69 JUMP JUMPDEST SWAP10 SWAP9 POP POP POP POP POP POP POP POP POP JUMP JUMPDEST PUSH1 0x0 PUSH2 0x100 DUP3 ADD SWAP1 POP PUSH2 0xB2F PUSH1 0x0 DUP4 ADD DUP12 PUSH2 0xA4E JUMP JUMPDEST DUP2 DUP2 SUB PUSH1 0x20 DUP4 ADD MSTORE PUSH2 0xB41 DUP2 DUP11 PUSH2 0x9C3 JUMP JUMPDEST SWAP1 POP PUSH2 0xB50 PUSH1 0x40 DUP4 ADD DUP10 PUSH2 0xA4E JUMP JUMPDEST PUSH2 0xB5D PUSH1 0x60 DUP4 ADD DUP9 PUSH2 0xA4E JUMP JUMPDEST PUSH2 0xB6A PUSH1 0x80 DUP4 ADD DUP8 PUSH2 0xA4E JUMP JUMPDEST PUSH2 0xB77 PUSH1 0xA0 DUP4 ADD DUP7 PUSH2 0xA69 JUMP JUMPDEST PUSH2 0xB84 PUSH1 0xC0 DUP4 ADD DUP6 PUSH2 0xA69 JUMP JUMPDEST PUSH2 0xB91 PUSH1 0xE0 DUP4 ADD DUP5 PUSH2 0xA69 JUMP JUMPDEST SWAP10 SWAP9 POP POP POP POP POP POP POP POP POP JUMP JUMPDEST PUSH32 0x4E487B7100000000000000000000000000000000000000000000000000000000 PUSH1 0x0 MSTORE PUSH1 0x11 PUSH1 0x4 MSTORE PUSH1 0x24 PUSH1 0x0 REVERT JUMPDEST PUSH1 0x0 PUSH2 0xBD8 DUP3 PUSH2 0xA44 JUMP JUMPDEST SWAP2 POP PUSH32 0xFFFFFFFFFFFFFFFFFFFFFFFFFFFFFFFFFFFFFFFFFFFFFFFFFFFFFFFFFFFFFFFF DUP3 SUB PUSH2 0xC0A JUMPI PUSH2 0xC09 PUSH2 0xB9E JUMP JUMPDEST JUMPDEST PUSH1 0x1 DUP3 ADD SWAP1 POP SWAP2 SWAP1 POP JUMP JUMPDEST PUSH1 0xE2 DUP1 PUSH2 0xC23 PUSH1 0x0 CODECOPY PUSH1 0x0 RETURN INVALID PUSH1 0x80 PUSH1 0x40 MSTORE PUSH1 0x4 CALLDATASIZE LT PUSH1 0x1C JUMPI PUSH1 0x0 CALLDATALOAD PUSH1 0xE0 SHR DUP1 PUSH4 0x3317D8C4 EQ PUSH1 0x21 JUMPI JUMPDEST PUSH1 0x0 DUP1 REVERT JUMPDEST PUSH1 0x37 PUSH1 0x4 DUP1 CALLDATASIZE SUB DUP2 ADD SWAP1 PUSH1 0x33 SWAP2 SWAP1 PUSH1 0x73 JUMP JUMPDEST PUSH1 0x39 JUMP JUMPDEST STOP JUMPDEST POP POP JUMP JUMPDEST PUSH1 0x0 DUP1 REVERT JUMPDEST PUSH1 0x0 DUP2 SWAP1 POP SWAP2 SWAP1 POP JUMP JUMPDEST PUSH1 0x53 DUP2 PUSH1 0x42 JUMP JUMPDEST DUP2 EQ PUSH1 0x5D JUMPI PUSH1 0x0 DUP1 REVERT JUMPDEST POP JUMP JUMPDEST PUSH1 0x0 DUP2 CALLDATALOAD SWAP1 POP PUSH1 0x6D DUP2 PUSH1 0x4C JUMP JUMPDEST SWAP3 SWAP2 POP POP JUMP JUMPDEST PUSH1 0x0 DUP1 PUSH1 0x40 DUP4 DUP6 SUB SLT ISZERO PUSH1 0x87 JUMPI PUSH1 0x86 PUSH1 0x3D JUMP JUMPDEST JUMPDEST PUSH1 0x0 PUSH1 0x93 DUP6 DUP3 DUP7 ADD PUSH1 0x60 JUMP JUMPDEST SWAP3 POP POP PUSH1 0x20 PUSH1 0xA2 DUP6 DUP3 DUP7 ADD PUSH1 0x60 JUMP JUMPDEST SWAP2 POP POP SWAP3 POP SWAP3 SWAP1 POP JUMP INVALID LOG2 PUSH5 0x6970667358 0x22 SLT KECCAK256 POP 0xD0 0xBE 0x1F 0xDC DUP2 RETURN PUSH27 0x71BA3542866CE353DB76E464A0AE7E2BF42685A0B44A7EBB64736F PUSH13 0x63430008120033000000000000 "
		},
		"gasEstimates": {
			"creation": {
				"codeDepositCost": "45200",
				"executionCost": "infinite",
				"totalCost": "infinite"
			},
			"external": {
				"reserveRoom(uint256,uint256)": "infinite"
			},
			"internal": {
				"emitPreparedHotel(struct Booking.Hotel memory)": "infinite",
				"emitPreparedHotelRooms(struct Booking.Room memory[] memory)": "infinite",
				"prepareHotel()": "infinite",
				"prepareHotelRooms()": "infinite"
			}
		},
		"methodIdentifiers": {
			"reserveRoom(uint256,uint256)": "3317d8c4"
		}
	},
	"abi": [
		{
			"inputs": [],
			"stateMutability": "nonpayable",
			"type": "constructor"
		},
		{
			"anonymous": false,
			"inputs": [
				{
					"indexed": false,
					"internalType": "string",
					"name": "name",
					"type": "string"
				},
				{
					"indexed": false,
					"internalType": "string",
					"name": "city",
					"type": "string"
				},
				{
					"indexed": false,
					"internalType": "enum Booking.Country",
					"name": "country",
					"type": "uint8"
				},
				{
					"indexed": false,
					"internalType": "string",
					"name": "street",
					"type": "string"
				},
				{
					"indexed": false,
					"internalType": "string",
					"name": "postalCode",
					"type": "string"
				},
				{
					"indexed": false,
					"internalType": "string",
					"name": "phoneNumber",
					"type": "string"
				},
				{
					"indexed": false,
					"internalType": "uint256",
					"name": "rating",
					"type": "uint256"
				},
				{
					"indexed": false,
					"internalType": "bool",
					"name": "isOpen",
					"type": "bool"
				}
			],
			"name": "HotelCreated",
			"type": "event"
		},
		{
			"anonymous": false,
			"inputs": [
				{
					"indexed": false,
					"internalType": "uint256",
					"name": "id",
					"type": "uint256"
				},
				{
					"indexed": false,
					"internalType": "string",
					"name": "name",
					"type": "string"
				},
				{
					"indexed": false,
					"internalType": "uint256",
					"name": "price",
					"type": "uint256"
				},
				{
					"indexed": false,
					"internalType": "uint256",
					"name": "minimumPersonAmount",
					"type": "uint256"
				},
				{
					"indexed": false,
					"internalType": "uint256",
					"name": "maximumPersonAmount",
					"type": "uint256"
				},
				{
					"indexed": false,
					"internalType": "bool",
					"name": "hasWifi",
					"type": "bool"
				},
				{
					"indexed": false,
					"internalType": "bool",
					"name": "hasAirConditioning",
					"type": "bool"
				},
				{
					"indexed": false,
					"internalType": "bool",
					"name": "isAvailable",
					"type": "bool"
				}
			],
			"name": "RoomsCreated",
			"type": "event"
		},
		{
			"inputs": [
				{
					"internalType": "uint256",
					"name": "_hotelID",
					"type": "uint256"
				},
				{
					"internalType": "uint256",
					"name": "_roomID",
					"type": "uint256"
				}
			],
			"name": "reserveRoom",
			"outputs": [],
			"stateMutability": "payable",
			"type": "function"
		}
	]
}